:100000000C948C000C94B4000C94B4000C94B400C8
:100010000C94B4000C94B4000C94B4000C94B40090
:100020000C94B4000C94B4000C94B4000C94B40080
:100030000C94B4000C9489240C94B4000C94B40077
:100040000C943F240C94B4000C940D240C94E723DE
:100050000C94B4000C94B4000C94B4000C94B40050
:100060000C94B4000C94B40000000000240027009D
:100070002A0000000000250028002B0000000000DE
:1000800023002600290004040404040404040202DA
:100090000202020203030303030301020408102007
:1000A0004080010204081020010204081020000012
:1000B0000008000201000003040700000000000027
:1000C0000000080503040607090A0A131411120F99
:1000D00010161504050D0E02031718191A1B0B0133
:1000E0000008094D554C5476312E335A58546170DE
:1000F0006521002E545A58002E544150004D4C4456
:10010000002E5A3830002E524F4D002E53435200CD
:100110002E534E410000B02411241FBECFEFD8E073
:10012000DEBFCDBF11E0A0E0B1E0E0EDF6E602C039
:1001300005900D92A832B107D9F726E0A8E2B1E008
:1001400001C01D92AD3AB207E1F710E0CCE8D0E073
:1001500004C02197FE010E942233CB38D107C9F792
:100160000E9406250C9466330C94000087E480936B
:100170007C0080917A00806480937A0080917A007C
:1001800086FDFCCF80917800909179000895AF9220
:10019000BF92CF92DF92EF92FF920F931F93CF9374
:1001A000DF936C017B018B01040F151FEB015E01D6
:1001B000AE18BF08C017D10759F06991D601ED916B
:1001C000FC910190F081E02DC6010995892B79F70A
:1001D000C501DF91CF911F910F91FF90EF90DF90BC
:1001E000CF90BF90AF900895FC01538D448D252F83
:1001F00030E0842F90E0821B930B541710F0CF96C1
:10020000089501970895FC01918D828D981761F0F2
:10021000A28DAE0FBF2FB11D5D968C91928D9F5F09
:100220009F73928F90E008958FEF9FEF0895FC01E8
:10023000918D828D981731F0828DE80FF11D858D9B
:1002400090E008958FEF9FEF0895FC01918D228D2E
:10025000892F90E0805C9F4F821B91098F739927B3
:10026000089588E593E00E94250121E0892B09F497
:1002700020E0822F089580E090E0892B29F00E94F1
:10028000310181110C9400000895FC01A48DA80F88
:10029000B92FB11DA35ABF4F2C91848D90E00196C8
:1002A0008F739927848FA689B7892C93A089B189E8
:1002B0008C91837080648C93938D848D981306C089
:1002C0000288F389E02D80818F7D80830895EF92ED
:1002D000FF920F931F93CF93DF93EC0181E0888F00
:1002E0009B8D8C8D98131AC0E889F989808185FFD0
:1002F00015C09FB7F894EE89FF896083E889F98972
:1003000080818370806480839FBF81E090E0DF9173
:10031000CF911F910F91FF90EF900895F62E0B8DC6
:1003200010E00F5F1F4F0F731127E02E8C8D8E1181
:100330000CC00FB607FCFACFE889F989808185FFE8
:10034000F5CFCE010E944501F1CFEB8DEC0FFD2FD3
:10035000F11DE35AFF4FF0829FB7F8940B8FEA89A3
:10036000FB8980818062CFCFCF93DF93EC01888DB2
:100370008823B9F0AA89BB89E889F9898C9185FD20
:1003800003C0808186FD0DC00FB607FCF7CF8C91AE
:1003900085FFF2CF808185FFEDCFCE010E94450120
:1003A000E9CFDF91CF910895833081F028F4813037
:1003B00099F08230A9F008958730A9F08830C9F00B
:1003C0008430B1F4809180008F7D03C080918000E3
:1003D0008F7780938000089584B58F7784BD0895CA
:1003E00084B58F7DFBCF8091B0008F778093B00074
:1003F00008958091B0008F7DF9CFCF93DF93282FA0
:1004000030E0F901E255FF4F8491F901E656FF4FC4
:10041000D491F901EA57FF4FC491CC23A1F0811187
:100420000E94D401EC2FF0E0EE0FFF1FE458FF4FC5
:10043000A591B491EC91ED2381E090E009F480E086
:10044000DF91CF91089580E090E0FACF1F93CF9392
:10045000DF93282F30E0F901E255FF4F8491F90135
:10046000E656FF4FD491F901EA57FF4FC491CC23D0
:10047000A9F0162F81110E94D401EC2FF0E0EE0FAD
:10048000FF1FEE58FF4FA591B4918FB7F894EC91F0
:10049000111108C0D095DE23DC938FBFDF91CF917F
:1004A0001F910895DE2BF8CFCF93DF9390E0FC01EE
:1004B000E656FF4F24918A579F4FFC018491882371
:1004C000C9F090E0880F991FFC01E859FF4FA591F2
:1004D000B491FC01EE58FF4FC591D49161110DC04C
:1004E0009FB7F8948C91209582238C938881282340
:1004F00028839FBFDF91CF910895623051F49FB759
:10050000F8943C91822F809583238C93E8812E2B45
:10051000EFCF8FB7F894EC912E2B2C938FBFEACFAF
:100520003FB7F8948091350190913601A091370141
:10053000B091380126B5A89B05C02F3F19F0019650
:10054000A11DB11D3FBFBA2FA92F982F8827BC012D
:10055000CD01620F711D811D911D42E0660F771F55
:10056000881F991F4A95D1F708958F929F92AF9255
:10057000BF92CF92DF92EF92FF924B015C010E94FB
:1005800090026B017C010E9490026C197D098E091A
:100590009F09683E734081059105A8F321E0821A06
:1005A0009108A108B10888EEC80E83E0D81EE11CAE
:1005B000F11C81149104A104B10429F7FF90EF907C
:1005C000DF90CF90BF90AF909F908F9008952FB7FE
:1005D000F8946091310170913201809133019091D2
:1005E00034012FBF0895CF92DF92EF92FF92CF9305
:1005F000DF930E94E702D0E0C1E06B017C0128EEAE
:10060000C20E23E0D21EE11CF11CCC23D9F00E94C3
:10061000E7026C157D058E059F05A0F488E593E043
:100620000E942501892B89F388E593E00E9403014C
:10063000C82FED2FF0E0E85AFE4F8083DF5F0E9465
:10064000E702DBCF81E0C11180E0DF91CF91FF9025
:10065000EF90DF90CF900895CF93DF93EC019A81D4
:100660008B819CBD8DBD60E08A850E94260281E061
:100670008C87DF91CF9108958EBD00000DB407FEE9
:10068000FDCF8EB508958FEF0C943C030F931F930D
:10069000CF93DF93EC010E94E7028B010E9443039A
:1006A0008F3F69F00E94E702601B710BC617D707E6
:1006B000A8F780E0DF91CF911F910F91089581E01D
:1006C000F9CFCF93DF93FC012485222349F0EC017D
:1006D00061E082850E9426028FEF0E943C031C8607
:1006E000DF91CF9108950F931F93CF93DF938C01E8
:1006F000862FEA010E943C03FE0181918EBDDE5FE0
:10070000EC17FD0741F081910DB407FEFDCF8EBDC2
:1007100000000000F5CF0DB407FEFDCF8FEF0E9463
:100720003C038FEF0E943C030E944303F80185873E
:100730008F71853059F080E28387C8010E94610380
:1007400080E0DF91CF911F910F91089581E0F9CF63
:10075000DF92EF92FF920F931F93CF93DF93EC0101
:10076000162F022FF32EE42ED52E888581112DC051
:100770008C85811103C0CE010E942C03112321F02E
:100780008CE291E00E944603812F80640E943C032A
:100790008D2D0E943C038E2D0E943C038F2D0E94C4
:1007A0003C03802F0E943C0387E8111101C085E9BA
:1007B0000E943C030E9443031BE00E9443038D8779
:1007C00087FF09C01150C9F706C0CE010E94F3038C
:1007D0008111CECF8FEFDF91CF911F910F91FF90BD
:1007E000EF90DF9008951F93CF93DF93EC018885FE
:1007F00018868230A9F488E592E00E944603182FFB
:10080000882359F08DEF0E943C03CE010E946103C2
:10081000812FDF91CF911F9108958EE18B87F5CFC6
:10082000813099F420E030E0A9016CE0CE010E9413
:10083000A803882339F089E08B87CE010E946103E9
:1008400010E0E6CFCE010E94610311E0E1CFCF922C
:10085000DF92EF92FF920F931F93CF93DF93EC0100
:100860006A017B0189018885813049F48C819D81F1
:10087000AE81BF818C159D05AE05BF05C1F08E858B
:10088000A7019601833039F089E0220F331F441FFE
:10089000551F8A95D1F762E1CE010E94A80381110C
:1008A00017C0CC82DD82EE82FF8281E088870E94C1
:1008B000E7027B010E9443038D878F3FC1F40E94B2
:1008C000E7026E197F096D327140A0F38DE101C01E
:1008D0008CE08B87CE010E94610380E0DF91CF9195
:1008E0001F910F91FF90EF90DF90CF9008958E3F72
:1008F00011F088E1EECF8FEF8EBDF801D801A15045
:10090000BE4F9FEFAE17BF0749F00DB407FEFDCFF6
:100910008EB59EBD819300000000F4CF0DB407FE9C
:10092000FDCF8EB58C931D860E9443030E94430326
:100930008C819D81AE81BF810196A11DB11D8C83EB
:100940009D83AE83BF838985811102C081E0C6CFBC
:10095000CE01DF91CF911F910F91FF90EF90DF902B
:10096000CF900C94F303653048F470E0660F771F66
:10097000680F791FFB018181928108956B3048F4E3
:1009800070E0660F771F680F791FFB0184819581E6
:1009900008956D3049F070E0660F771F680F791F7A
:1009A000FB0186819781089590E080E00895FC0125
:1009B0009C01255F3F4F80E080FB879587F99191EF
:1009C000890F2E173F07C1F70895CF92DF92EF925C
:1009D000FF920F931F93CF93DF93EC016A017B018A
:1009E00089018985882371F18E85833039F099E0FA
:1009F000CC0CDD1CEE1CFF1C9A95D1F7A7019601CB
:100A000068E1CE010E94A803882339F08DE08B872E
:100A1000CE010E946103F12C0BC0A8016EEFCE0144
:100A20000E947303F82E882399F3CE010E9461037C
:100A30008F2DDF91CF911F910F91FF90EF90DF905D
:100A4000CF9008958885823049F48C819D81AE8154
:100A5000BF81C816D906EA06FB06C1F08E85A7013C
:100A60009601833039F089E0220F331F441F551F50
:100A70008A95D1F769E1CE010E94A80381110EC0C9
:100A8000CC82DD82EE82FF8282E0888788E592E078
:100A90000E944603811108C084E201C08EE08B876A
:100AA000CE010E946103B4CFA8016CEFCE010E9479
:100AB0007303F82E8823A1F38C819D81AE81BF81C1
:100AC0000196A11DB11D8C839D83AE83BF83898553
:100AD000882309F4ADCFCE01DF91CF911F910F9103
:100AE000FF90EF90DF90CF900C94F303EF92FF9282
:100AF0001F93CF93DF93FC01208111E020FF12C0F0
:100B0000EC017C01FBE0EF0EF11C4F8158856985FB
:100B10007A85970189819A810E94E504182F8111B5
:100B200008C010E0812FDF91CF911F91FF90EF90CF
:100B30000895888181FD04C088818E7F8883F2CFEB
:100B40004F81588569857A858B819C81AD81BE8175
:100B5000480F591F6A1F7B1F970189819A810E9444
:100B6000E5048111E9CFDDCFCF92DF92EF92FF92C2
:100B70001F93CF93DF93DC011196ED91FC91EF2B46
:100B800051F490E080E0DF91CF911F91FF90EF90C2
:100B9000DF90CF900895122F6A017B01EC018F81C5
:100BA0009885A985BA858C159D05AE05BF0561F0B0
:100BB000CE010E947605882321F312FF0CC0188213
:100BC000CF82D886E986FA8613702881122B188383
:100BD000CE010B96D8CF9E01255F3F4FB701A601EE
:100BE00089819A810E9427048111E9CFCACF8F920F
:100BF0009F92AF92BF92CF92DF92EF92FF920F93AC
:100C00001F93423051056105710560F480E01F912A
:100C10000F91FF90EF90DF90CF90BF90AF909F909B
:100C20008F900895FC01C08CD18CE28CF38CC4169B
:100C3000D506E606F70650F3480159016A017B0123
:100C40008581803241F584899589A689B78917E025
:100C500076956795579547951A95D1F7480F591F7F
:100C60006A1F7B1F23E0CF0180960E94B405009786
:100C700069F2E894C7F8DD24EE24FF24CC0CDD1CD7
:100C8000CC0CDD1C8C0D9D1DFC0180829182A2820A
:100C9000B38281E0BCCF803109F0B8CF4489558957
:100CA000668977894D0D511D611D711D23E0CF01AE
:100CB00080960E94B405009709F4A8CFDD24EE24A5
:100CC000FF24CC0CDD1CC80ED91EF6011183008355
:100CD000E0CFCF92DF92EF92FF920F931F93CF93CB
:100CE000DF93423051056105710550F48FEFDF91BC
:100CF000CF911F910F91FF90EF90DF90CF900895CB
:100D0000FC01C08CD18CE28CF38CC416D506E606AF
:100D1000F70660F389016A017B01EC01858180326D
:100D2000B1F584899589A689B789E7E076956795B5
:100D300057954795EA95D1F7480F591F6A1F7B1FB2
:100D400022E0CE0180960E94B405009779F2E894E3
:100D5000C7F8DD24EE24FF24CC0CDD1CCC0CDD1CFC
:100D60008C0D9D1DFC0180819181A281B381488DF4
:100D7000598D6A8D7B8D481759076A077B0738F1B3
:100D8000F80180839183A283B38381E0B0CF803167
:100D900009F0ACCF44895589668977894D0D511D7D
:100DA000611D711D22E0CF0180960E94B40500975D
:100DB00009F49CCFDD24EE24FF24CC0CDD1CC80EEE
:100DC000D91EF60180819181B0E0A0E0D0CF80E013
:100DD0008ECF4F925F926F927F928F929F92AF923F
:100DE000BF92CF92DF92EF92FF920F931F93CF9318
:100DF000DF93EC014A015B014C845D846E847F8447
:100E00002881222309F45CC0488959896A897B8931
:100E1000481559056A057B0581F081149104A104E8
:100E2000B10469F41C861D861E861F86888A998AED
:100E3000AA8ABB8A8A818F7D8A8381E046C023FF8C
:100E40002CC0888D998DAA8DBB8D88159905AA0512
:100E5000BB05B0F1EE81FF813481375F750164011C
:100E600081E0C81AD108E108F108032E04C0F69405
:100E7000E794D794C7940A94D2F78A8186FF36C044
:100E80008C8D9D8DAE8DBF8D8C0D9D1DAE1DBF1D9E
:100E90008C879D87AE87BF87C9CF25FFDBCFEE81CB
:100EA000FF818681978125E0880F991F2A95E1F7B8
:100EB000B0E0A0E088159905AA05BB0508F0B6CFFB
:100EC0004C865D866E867F8680E0DF91CF911F9194
:100ED0000F91FF90EF90DF90CF90BF90AF909F90D9
:100EE0008F907F906F905F904F900895DB01CA01C3
:100EF0000197A109B10904C0B695A7959795879563
:100F00003A95D2F7C816D906EA06FB0620F0452B1B
:100F1000462B472B49F526FF22C0848D958DA68D43
:100F2000B78D8C879D87AE87BF878E01045F1F4F6B
:100F3000C114D104E104F10409F478CF4C855D8536
:100F40006E857F8598018E819F810E94690691E060
:100F5000C91AD108E108F108181654F3B1CF8C8DE5
:100F60009D8DAE8DBF8DDDCFC81AD90AEA0AFB0A66
:100F7000DCCF3F924F925F926F927F928F929F92BF
:100F8000AF92BF92CF92DF92EF92FF920F931F9397
:100F9000CF93DF9300D000D0CDB7DEB75C01FC016A
:100FA000448455846684778486809780F401C08465
:100FB000D184E284F384C414D504E604F704C0F4B5
:100FC0007301620110E0FFEFCF1ADF0AEF0AFF0A98
:100FD000F401808D918DA28DB38D8C159D05AE058C
:100FE000BF0540F4111132C0C084D184E284F3847F
:100FF00011E0E9CF4C145D046E047F0439F19E01C9
:101000002F5F3F4FB701A601C4010E94690687FD0B
:101010001DC08823C1F289819A81AB81BC81892B53
:101020008A2B8B2B81F6112329F0F401C086D186FF
:10103000E286F3860FEF1FEF2FEF3FE0B701A60127
:10104000C4010E94F705382E811118C0312C832D60
:101050000F900F900F900F90DF91CF911F910F91F4
:10106000FF90EF90DF90CF90BF90AF909F908F90C8
:101070007F906F905F904F903F900895411451047E
:1010800061047104B9F4F501C486D586E686F78655
:1010900082814114510461047104B1F0FFEF4F1AD1
:1010A0005F0A6F0A7F0A4C145D046E047F0479F0B6
:1010B0008F7B0BC097018601B301A201C4010E947E
:1010C000F7058111E0CFC2CF8064F5018283F5017D
:1010D000828180688283BBCF0F931F93CF93DF936E
:1010E0008C01EB01DC018C91882309F459C08076D6
:1010F00051F08FE28883198281E090E0DF91CF91F7
:101100001F910F910895F80144895589668977895F
:101110008681978120E080960E94B405009709F4AB
:101120003FC0D8011496ED91FC91EF70FF2725E0A8
:10113000EE0FFF1F2A95E1F78F01080F191F011508
:10114000110571F1D80180E048E090E05EE22D9158
:101150002032E9F0883039F49E01290F311DF90160
:1011600050839F5F40E19D0121503109F9012081A9
:101170003FEB320F3A3128F4F8013485342309F07B
:10118000205EBE01690F711DFB0120839F5F8F5F91
:101190008B30E9F6892F90E0C80FD91F1882AECFA7
:1011A000188290E080E0AACF0F931F93CF93DF9334
:1011B000EC018A8187FF3BC04C895D896E897F89FC
:1011C0008E819F8121E080960E94B405009749F4AA
:1011D00089818160898380E0DF91CF911F910F9198
:1011E0000895EC81FD81EF70FF2725E0EE0FFF1FD2
:1011F0002A95E1F7E80FF91F309751F38081853E7A
:1012000039F3888183FF08C0888D998DAA8DBB8DA5
:10121000848F958FA68FB78F8C8D9D8DAE8DBF8D52
:10122000938F828FB58BA48B8A818F778A830E816F
:101230001F81C80180960E947605882349F2F80133
:10124000808191810E94F303882311F2C5CFCF934F
:10125000DF93EC018881882341F0CE010E94D408FD
:1012600018821A82DF91CF91089581E0F9CFFC01B5
:101270002485222319F00C960C94D4080895FC01BF
:10128000848583FF17C084A195A1A6A1B7A1448D31
:10129000558D668D778D841B950BA60BB70B81152D
:1012A00020E89207A105B10520F08FEF9FE7A0E0AD
:1012B000B0E0089580E090E0DC01F1CF0C960C9452
:1012C000E906579A5F9A10926F0080E1809381003F
:1012D0000895CF92DF92EF920F931F93CF93DF93F6
:1012E0006A01E62E5FB7F8948C0100541F4FE801A5
:1012F0003881FC01EF53FF4F2081DC01AE53BF4F1B
:10130000321303C02C9120FD1CC0208130E0B901B4
:10131000660F771F260F371F820F931FEC01C882BD
:10132000D982EA8280818F5F80838F738083E80116
:101330002881808191E0281390E08C9190FB80F9C6
:101340008C935FBFDF91CF911F910F91EF90DF9052
:10135000CF9008952FB7F894DC01A054BF4F4C9163
:10136000FC01EF53FF4F30813196431303C080815E
:1013700080FF08C08C918F5F8C938F738C938081DA
:101380008E7F80832FBF0895CF92DF92EF92FF92DE
:101390001F93CF93DF93E091F503F091F60341891A
:1013A000528963897489DB01CA01F3E0880F991FB0
:1013B000AA1FBB1FFA95D1F7009721E0A207B1053C
:1013C00040F421E020932D0190932C0180932B0178
:1013D0000EC00097C8E0AC07B10508F092C082E0EB
:1013E00080932D017F7150932C0140932B018091AC
:1013F0002B0190912C01909387008093860080911F
:101400002D01806180938100E091F503F091F60356
:101410008589982F927082FFA9C085B18D7F99230D
:1014200009F4A2C090E0892B85B92091F70330918F
:10143000F803D901A054BF4F9C91F901EF53FF4F1E
:101440008081981396C0C9018E539F4FEC0188810B
:1014500080FF98C04FB7F8949C918081981306C084
:10146000F901EE53FF4F808180FFAEC08C9190E078
:10147000FC01EE0FFF1FE80FF91FE20FF31F308191
:10148000218112814FBFC901C92ED82E1770E0905B
:10149000F503F090F60311FF99C0F7018589982FA5
:1014A000917021E0290F20FB80F9858B992351F061
:1014B0008091F7039091F8030E94AA09E7018D89B2
:1014C0008E7F8D8BE091F503F091F603C601B0E0BD
:1014D000A0E010FFB5C09601A8EEB3E00E9428334B
:1014E000618B728B838B948B80E0958980FB91F963
:1014F000958BDF91CF911F91FF90EF90DF90CF9070
:1015000008950097D0E4AD07B10558F423E0209387
:101510002D01E6E0B695A79597958795EA95D1F7C1
:1015200053CF0097A105E1E0BE0740F424E02093EB
:101530002D01892F9A2FAB2FBB2746CF0097A105EE
:10154000F4E0BF0758F425E020932D016AE0B6953A
:10155000A795979587956A95D1F736CF85E08093C3
:101560002D018FEF9FEF30CF92E05DCF85B18D7F62
:101570005ACF9C918081981718F580819C91891B86
:1015800009F068CF80915701883009F0B2CFC0913F
:10159000F503D091F6038D89982F917021E0290FE2
:1015A00020FB80F98D8B911155C040E452E46FE02F
:1015B00070E0498B5A8B6B8B7C8B8D7F8D8B99CF99
:1015C00080819C91805CDBCF4FBF61CF8091F7031E
:1015D0009091F80310FF31C0F7012589322F317047
:1015E00041E0430F40FB20F9258B311126C02FB776
:1015F000F894FC01E054FF4F4081DC01AF53BF4F32
:101600003C91431304C011963C9130FF13C03081CC
:10161000FC0143E0349FE00DF11D11242FBF8081B8
:10162000918101979183808310E08CEDC82E85E035
:10163000D82E48CFF0E0E0E0F1CF0E94AA0942CFD7
:10164000818B928BA38BB48B85898695817091E079
:1016500089274BCF0E9461098D89877F8D8B1092DE
:10166000570147CFCF92DF92EF92FF920F931F93D4
:10167000CF93DF93F82EC92FD62F0E94E7020F2DAC
:101680001C2FC0E06B017C0128EEC20E23E0D21EAD
:10169000E11CF11CDC17C1F00E94E7026C157D050E
:1016A0008E059F0590F488E593E00E942501892B23
:1016B00089F388E593E00E940301F80181938F018B
:1016C000CF5F0E94E702DECFCD2F81E0DC1380E008
:1016D000DF91CF911F910F91FF90EF90DF90CF900E
:1016E00008958F929F92AF92BF92CF92DF92EF9226
:1016F000FF929091C10098609093C100662329F0F9
:10170000682F88E593E00E9467010E94E702812C20
:10171000912C540183946B017C0120EAC20E2FE0CE
:10172000D21EE11CF11C80E38816910488E0A80613
:10173000B104F1F00E94E7026C157D058E059F054E
:10174000B8F488E593E00E942501892B61F388E5D0
:1017500093E00E940301682F88E593E00E946701EF
:101760000E94E7022FEF821A920AA20AB20AD3CF8E
:101770008091C100877F8093C100FF90EF90DF9040
:10178000CF90BF90AF909F908F90089562E084E0DB
:101790000E94540262E085E00E94540262E086E00A
:1017A0000E94540261E088E00E94260262E082E129
:1017B0000E94540261E083E10C94260228B1982F24
:1017C00092959F709095207F922B98B95998EFE150
:1017D000F0E03197F1F798B180958F70907F892B69
:1017E00088B9599A24E0629FC00111240597019796
:1017F000F1F708950F931F93CF93DF93EC018C01C2
:10180000060F171F6DE189910E94DE0BC017D107EB
:10181000C9F7DF91CF911F910F91089563E20C9466
:10182000DE0B0E94B60084389340DCF38091C10047
:10183000877F8093C10088B18F6088B987B18F603E
:1018400087B9599A519A0895FB0122813381DC01AD
:1018500013963C932E93129744815581668177812C
:1018600014964D935D936D937C93179740855185A6
:101870006285738518964D935D936D937C931B974A
:1018800020E23C961C9601900D922A95E1F708956E
:10189000FC011382128288EE93E0A0E0B0E0848322
:1018A0009583A683B78314861586168685E091E016
:1018B0009183808308950F931F93FC010089118900
:1018C00022893389400F511F621F731F1F910F918F
:1018D0000C94E90640E050E0BA010C94E906FC01E2
:1018E0009485907721F0CF010C960C946A0C0895A2
:1018F00090E080E00895CF92DF92EF92FF920F93F5
:101900001F93CF93DF93FC0180E2DF011D928A9544
:10191000E9F7DB011696CD91DC911797D783C68343
:10192000558344835C96CD90DD90ED90FC905F975D
:10193000C086D186E286F386DE019B964F705527DE
:1019400095E0440F551F9A95E1F7A40FB51F1B961C
:101950008C911B9783FD3FC0877180831B969C9160
:101960001B97987111F488608083238381E08283C0
:101970004FA158A569A57AA5448B558B668B778BAB
:1019800054964D915C91559770E060E0BA015527EF
:1019900044275A960D911C915B9730E020E0402B34
:1019A000512B622B732B448F558F668F778F5C96EC
:1019B0008D919D910D90BC91A02D808F918FA28FC4
:1019C000B38F81E0DF91CF911F910F91FF90EF9046
:1019D000DF90CF9008951082128280E0F3CFFC0157
:1019E000808181110FC080E2DF01982F1D929A95AE
:1019F000E9F777836683DB0115969C91903129F096
:101A0000903211F080E0089580E4808381E0828349
:101A100008952F923F924F925F926F927F928F9292
:101A20009F92AF92BF92CF92DF92EF92FF920F936D
:101A30001F93CF93DF93CDB7DEB728970FB6F894F7
:101A4000DEBF0FBECDBF9E838D834B015A01DC01EB
:101A500012968C9181FF1AC083FD21C0A50170E010
:101A600060E0ED81FE8180899189A289B3898095AA
:101A70009095A095B09565011F01FCE02F0E311CDB
:101A800084179507A607B70708F0E1C0ED81FE812E
:101A9000818181608183AA24AA94BA2C53C0AD812C
:101AA000BE8158964D915D916D917C915B97CD0172
:101AB0000E94E9068111D2CFE9CF91018F819885EB
:101AC0000E94690687FDE2CF811103C18D819E814D
:101AD0000E94B9078111FDC0D9CFED81FE81848DAF
:101AE000958DA68DB78D0097A105B10581F4CF0125
:101AF0000E94B907882351F2ED81FE818485958586
:101B0000A685B785848F958FA68FB78FE2C0ED81AC
:101B1000FE8184879587A687B787DBC021E069C0EF
:101B2000ED81FE81808D918DA28DB38D84159505FB
:101B3000A605B70538F4408E518E628E738E828171
:101B400080688283C50128960FB6F894DEBF0FBE69
:101B5000CDBFDF91CF911F910F91FF90EF90DF905C
:101B6000CF90BF90AF909F908F907F906F905F903D
:101B70004F903F902F900895EF81F8854250510982
:101B800061097109848104C0440F551F661F771FC6
:101B90008A95D2F780899189A289B389480F591F04
:101BA0006A1F7B1F80E092E0801B910B76018C15F1
:101BB0009D0508F47C010115110509F0AFCFAD8139
:101BC000BE8150964D905D906D907C905397589645
:101BD0008D919D910D90BC91A02D481659066A06D5
:101BE0007B0630F4AD81BE8112968C9185FF96CF35
:101BF00025E0CF0180960E94B405009709F446CFF6
:101C0000A701B401800F911F0E9454330E0D1F1DB8
:101C10000115124051F4ED81FE81868197818096F5
:101C20000E947605882309F431CFED81FE818089F9
:101C30009189A289B3898E0D9F1DA11DB11D808B35
:101C4000918BA28BB38B8E0C9F1CCE18DF08ED817D
:101C5000FE814088518862887388C114D10409F4D8
:101C60005FCF8681978198878F83DC011396FC90E4
:101C7000B301A20129E076956795579547952A9576
:101C8000D1F7F42282011170F11023C044855585EB
:101C9000668577850115110509F06ECF411551054F
:101CA0006105710509F419CF228126FF06CF808DC9
:101CB000918DA28DB38D481659066A067B0608F0F1
:101CC000FCCE4F5F5F4F6F4F7F4F448755876687CE
:101CD0007787AD81BE811696ED91FC9117971C9682
:101CE0004D915D916D917C911F9742505109610911
:101CF0007109848104C0440F551F661F771F8A95A0
:101D0000D2F780899189A289B389840F951FA61F74
:101D1000B71FAC01BD014F0D511D611D711D011596
:101D2000110509F03FCFC114B2E0DB0608F43ACF49
:101D300087A190A5A1A5B2A5481759076A077B07F7
:101D400041F410A28FEF9FEFDC0187A390A7A1A71A
:101D5000B2A7940181A192A10E94E504882309F40D
:101D600095CEE12C92E0F92E60CF0C960C94090DE3
:101D7000CF93DF931F92CDB7DEB7698341E050E088
:101D8000BE016F5F7F4F0C960E94090D0F90DF918F
:101D9000CF9108954F925F926F927F928F929F9210
:101DA000AF92BF92CF92DF92EF92FF920F931F9369
:101DB000CF93DF93EC015B018A018A8180FFCDC064
:101DC000888183FF16C0888D998DAA8DBB8D488927
:101DD00059896A897B89841B950BA60BB70BA801CF
:101DE00070E060E0481759076A077B07A0F08C0194
:101DF00012C085FF10C0EE81FF818681978155E07A
:101E0000880F991F5A95E1F728893989821B930B0E
:101E10008017910760F378012E018CE0480E511C69
:101E2000612C42E0742EE114F10409F4C3C0488926
:101E300059896A897B89EE81FF814A0181E0982274
:101E40002881DB01CA0139E0B695A795979587955A
:101E50003A95D1F725FF29C0448D558D668D778D34
:101E6000480F591F6A1F7B1FEE81FF818114910467
:101E700009F079C0E11482E0F80608F474C087A183
:101E800090A5A1A5B2A5481759076A077B0709F4D1
:101E90006AC0950181A192A10E942704882309F4B8
:101EA0005CC0C12C82E0D82E74C0D380D8228114AB
:101EB000910481F4D1100EC0452B462B472B81F5A0
:101EC00026FF29C0848D958DA68DB78D8C879D8723
:101ED000AE87BF87EE81FF814C855D856E857F85EE
:101EE0004250510961097109848104C0440F551F92
:101EF000661F771F8A95D2F780899189A289B38955
:101F0000840F951FA61FB71FAC01BD014D0D511DBC
:101F1000611D711DA9CF8C8D9D8DAE8DBF8DD6CFCE
:101F20004C855D856E857F8523FF0CC08A8186FF89
:101F300009C04F5F5F4F6F4F7F4F4C875D876E8744
:101F40007F87C8CF9201CF010E94690687FD05C037
:101F50008111C0CF8881807769F58981826089830A
:101F60008FEF9FEF2AC0C3018819990967018E1569
:101F70009F0508F46C0120E0CF0180960E94B40513
:101F8000009759F3BC01680D791DA601C5010E9497
:101F90005433AC0CBD1C88899989AA89BB898C0DE6
:101FA0009D1DA11DB11D888B998BAA8BBB8BEC1835
:101FB000FD0839CFC8018E199F09DF91CF911F917C
:101FC0000F91FF90EF90DF90CF90BF90AF909F90D8
:101FD0008F907F906F905F904F900895CF92DF9297
:101FE000EF92FF920F931F93CF93DF936A01AB01A0
:101FF000BC0185E294E00E945E0910E000E00C154F
:102000001D0518F5E601C01BD10BC11582E0D807EC
:1020100010F0C0E0D2E0AE0168E571E081E394E049
:102020000E94CA0E88E5E82E81E0F82E6DE1F701E6
:1020300081917F010E94DE0BC701885591408C176A
:102040009D07A0F30C0F1D1FDACFDF91CF911F91D9
:102050000F91FF90EF90DF90CF900895EF92FF9255
:102060000F931F93CF93DF931F92CDB7DEB77C0101
:10207000962FF70140895189628973898A019B01F2
:1020800085E036952795179507958A95D1F70F70B6
:1020900011F091112BC041E050E0BE016F5F7F4F06
:1020A000C7010E94CA0E813051F090E080E00F908D
:1020B000DF91CF911F910F91FF90EF900895F7015D
:1020C00080899189A289B3894F96A11DB11D808B0A
:1020D000918BA28BB38BF701868197818B96F0E26F
:1020E0000F9F90011124820F931FE1CF405E5F4F3D
:1020F0006F4F7F4F408B518B628B738BECCF2F9246
:102100003F924F925F926F927F928F929F92AF9287
:10211000BF92CF92DF92EF92FF920F931F93CF93D4
:10212000DF93CDB7DEB729970FB6F894DEBF0FBEA9
:10213000CDBF9F838E837B01FA01DB018C91807779
:1021400009F4EFC0AE81BF818C918111EAC0A180FA
:10215000B2808081837022242394882349F0C501B2
:102160000C966DE070E00E940E3322242394260E1C
:102170006F01C7010E946A0C19821986312C1886DA
:10218000F6013696FB83EA83222D2150330B3D83E3
:102190002C83D70150964D905D906D907C90539715
:1021A00061E0C7010E942E108C01009709F4B9C0AC
:1021B000FC018081853E09F4CEC0882309F4ACC0BF
:1021C000321408F4312C8E3291F1D8011B969C9177
:1021D0009F3009F05CC0B885B1112BC086FFD9CF04
:1021E0008F718987EC81FD818E171F0691F6D801CA
:1021F0001D96BC91B9838887E985E150FF0BCF011B
:10220000FDE0F89F4001F99F900C11248A149B0473
:1022100070F4712C672DC8010E94B304A814B9048E
:10222000A1F4892B09F4B5CF02C0853E61F618866A
:10223000B0CFE985E150E9878E13F9CFD8011D961B
:102240008C91B9818B17C1F2F2CF8F3F910509F0C4
:1022500070F72FEB280F2A3108F4805EA4014F5F3E
:102260005F4FD60113962D913C91820E931EF4017F
:1022700090812FEB290F2A3108F4905E9813D7CF65
:102280007394FDE07F1609F484CF4A01C3CF93FD18
:10229000CECF2885222389F13985313009F041C01C
:1022A000C8010E94D704998198133BC0B301A201D1
:1022B00085E076956795579547958A95D1F7288556
:1022C000B7018E819F8129960FB6F894DEBF0FBEAD
:1022D000CDBFDF91CF911F910F91FF90EF90DF90D5
:1022E000CF90BF90AF909F908F907F906F905F90B6
:1022F0004F903F902F900C947B0C4BE050E06A8104
:102300007B81C8010E944733892B09F042CFD60157
:102310008C9180FD3ECFCACF321418F433948111D2
:1023200084CF80E029960FB6F894DEBF0FBECDBFF4
:10233000DF91CF911F910F91FF90EF90DF90CF90A1
:10234000BF90AF909F908F907F906F905F904F90D5
:102350003F902F900895321408F069CFDFCF2F926D
:102360003F924F925F926F927F928F929F92AF9225
:10237000BF92CF92DF92EF92FF920F931F93CF9372
:10238000DF93CDB7DEB7E7970FB6F894DEBF0FBE89
:10239000CDBF7C018B0119821A821B82DC018C91DA
:1023A0008823D1F080E0E7960FB6F894DEBF0FBE29
:1023B000CDBFDF91CF911F910F91FF90EF90DF90F4
:1023C000CF90BF90AF909F908F907F906F905F90D5
:1023D0004F903F902F90089580917C06807711F365
:1023E000FB0180816CE776E08F32B9F48F01819137
:1023F0008F32E1F36091820670918306811104C0EF
:10240000C7010E94EF0CCFCFCE0101960E94EF0CC6
:10241000BE016F5F7F4F882329F29E012E5C3F4FE4
:102420003FAB2EABF8019F012F5F3F4F8081803281
:1024300009F495C0FDA3ECA39F01A9014E1B5F0BFE
:102440008901D9018D919D01882371F08F3209F0A6
:1024500088C0CF01840F951F8C01DC012D91CD0127
:102460002032D1F32F32C1F3DA01AE0FBF1FAD011D
:102470004E1B5F0BAE17BF0709F48DC08E918E32D5
:10248000B1F38032A1F34F3F510511F00CF08ACF28
:102490005BA34AA3DE0197966D0180E28D93AEA8FF
:1024A000BFA8AA15BB05D1F7DF01CD018E1B9F0B7D
:1024B0002D912E32D1F32032C1F3772473940097FB
:1024C00009F0712C9A01215031095F01A40EB51E4B
:1024D0002F3F320709F062C08EA0512CB7E0BAAB93
:1024E000312C612CA8E04A2E841795070CF094C07B
:1024F000DF01A80FB91FAC90ADAAAA2DA03209F434
:1025000089C0AE3221F48217930709F083C09DA8D9
:10251000B92DB232A1F0BC3791F0BA52B63018F4EE
:10252000A92DAD3261F4BDA9BA53B63040F0BDA9B2
:10253000BB55B33020F0BDA9B152BE35C8F18217EA
:10254000930709F0A8C08AA98A3009F4AFC0C9016D
:10255000BAE0BAABA8E03A2EB0E14B2E47C0F90181
:1025600062CF8C3509F41ECF982F977F923209F4F1
:1025700019CF8A3309F416CF982F9F7B9C3309F427
:1025800011CF92EC980F923008F40CCF80528F3517
:1025900008F453CF07CF50E040E07ACFD5019E90AA
:1025A0005D01BEE29B1609F497CF2150310990CF0F
:1025B0008217930741F2BAA9B31508F470C0BDA9F8
:1025C000B156BA31D0F4ADA9A052ADAB54282224F3
:1025D0002394230C5601A30CB11CD501ADA8AC92D9
:1025E000A6E0BA2E322CB21408F0822C01967CCFD1
:1025F000712CBFE5BDABBFE59B2EBFEBB90DBA316A
:1026000030F76428E4CFC901AAE0AAABA8E03A2ECB
:10261000B0E14B2E712CEACF8EA28FA1803209F44B
:10262000C1CE772011F1852D862111F082E0582E40
:1026300059A2F8018081AE014F5D5F4F882339F1C7
:10264000C7010E947F10882309F4ACCE80E2F70115
:10265000DE01119601900D928A95E1F7C7010E9463
:102660002709BE016F5F7F4FDDCE81E089A3912CEA
:10267000F601E80DF91D8EE78083E8E2F0E0EC0F4B
:10268000FD1F8E0E9F1E81E3D4018C93D2CFC70114
:102690000E947F1088CEAAA9A31508F0A9CFBAA9D5
:1026A000BA3021F0281739070CF0ADCF8EA2712C6B
:1026B000B4CFCF93DF93CDB7DEB7A0970FB6F89422
:1026C000DEBF0FBECDBF19821A821B8268E571E0A2
:1026D000CE0101960E94AF11882361F09981907715
:1026E00091F090E2FE013196ACE7B6E001900D92D8
:1026F0009A95E1F7A0960FB6F894DEBF0FBECDBF56
:10270000DF91CF91089580E0F5CFEF92FF920F9384
:102710001F93CF93DF93CDB7DEB7AC970FB6F89486
:10272000DEBF0FBECDBF8C017B0119821A821B82D6
:10273000CE0101960E94AF118823E9F0F80184854B
:10274000882321F0C8010C960E942709CE0101962A
:102750000E94480CB701CE010D960E94AF11BE0138
:102760006F5F7F4FC8010E94240CF8019485907719
:1027700081E009F480E0AC960FB6F894DEBF0FBE9E
:10278000CDBFDF91CF911F910F91FF90EF900895F2
:102790008F929F92AF92BF92EF92FF920F931F93EF
:1027A000CF93DF93FC01EB018081811112C09881EE
:1027B000907779F0488959896A897B894F715527C3
:1027C000662777277F0110E000E0452B462B472B3B
:1027D00069F080E0DF91CF911F910F91FF90EF9012
:1027E000BF90AF909F908F90089510E0888899884F
:1027F000AA88BB8860E0CE010E942E10009749F3A2
:10280000FC012081222329F32E3279F3253E69F33E
:10281000338533FD1EC0112321F00E94D70480139D
:10282000D8CFB501A40185E0769567955795479572
:102830008A95D1F7212FBE01C701DF91CF911F915A
:102840000F91FF90EF90BF90AF909F908F900C945E
:102850007B0C3F3051F626FFC9CF122F1F71058523
:10286000C5CFAF92BF92CF92DF92EF92FF920F93BC
:102870001F93CF93DF93EC01009709F459C0182FF1
:10288000459708F014E15E0181E0A81AB10801E063
:102890006501F12CE12C85E0CC0CDD1CEE1CFF1C4D
:1028A0008A95D1F7B701A60185E094E00E94E90678
:1028B00081110CC080E0DF91CF911F910F91FF90AB
:1028C000EF90DF90CF90BF90AF90089560E085E0EB
:1028D00094E00E942E10009769F3FC0123852F30AD
:1028E00059F4808186FF1CC0B701A60185E094E001
:1028F0000E94E9068823F1F265E074E081E394E048
:102900000E94C8138823B1F2209135043091360417
:10291000C217D30781F281E394E00E942709CACF4E
:102920000F5FF1E0AF1AB108101708F0B1CFE4CF94
:1029300085E094E00E946A0CDFCFCF93DF93EC0137
:1029400080913104882321F081E394E00E942709DB
:10295000CE010E943114C82F882359F08091310490
:10296000807759F440E050E0BA0185E294E00E949B
:102970005E098C2FDF91CF910895C0E0FACF2F929E
:102980003F924F925F926F927F928F929F92AF92FF
:10299000BF92CF92DF92EF92FF920F931F93CF934C
:1029A000DF93CDB7DEB7A5970FB6F894DEBF0FBEA5
:1029B000CDBF7C015B013A0119821A821B82FC01A6
:1029C0008081882309F4B4C0838181111EC0C701AE
:1029D0000E946C088C01C801A5960FB6F894DEBF62
:1029E0000FBECDBFDF91CF911F910F91FF90EF9060
:1029F000DF90CF90BF90AF909F908F907F906F901F
:102A00005F904F903F902F90089580859185A2858B
:102A1000B385668177819E012F5F3F4F1901009733
:102A2000A105B10509F074C0C9010E94EF0C88230B
:102A300009F47EC088248394912C512C412C93015D
:102A4000215031093DA32CA3F7018381881508F497
:102A50006FC0448155814819590970E060E085E0F4
:102A6000440F551F661F771F8A95D1F7C1010E9439
:102A7000E906882309F45CC060E0C1010E942E10C1
:102A80006C01009709F454C0FC0183858F3009F074
:102A90004FC080818F7188124BC09501240D351D68
:102AA0003BA32AA3820119A269A1C6010E94B30413
:102AB0000097B1F0ECA1FDA10E171F0788F48F3726
:102AC000910510F08FE390E00F5F1F4FEAA1FBA18B
:102AD0008193FBA3EAA3F9A1FF5FF9A3FD3021F7DE
:102AE0000615170518F0830101501109F501E00FD3
:102AF000F11F108201151105D9F02DE0420E511C75
:102B00003FEF831A930AF601808186FF9DCF63CF42
:102B10002CE1F10111922A95E9F720E1298321E0C6
:102B20002B8378876F838D8F9E8FAF8FB8A382CFD3
:102B3000F501108210E000E04ECF0F931F93CF936A
:102B4000DF9300D0CDB7DEB788E593E00E94250182
:102B5000892B59F00E946109109257010F900F9034
:102B6000DF91CF911F910F9108958091570184308B
:102B700009F425C3B8F5823009F454C0833009F450
:102B800046C3E091F703F091F803EE53FF4F8081C5
:102B900080FFE4CFE091F503F091F603858983FD92
:102BA000DDCF8860858B80E180938100109280006A
:102BB00084E080932D0182E19AE790932C01809329
:102BC0002B01909387008093860084E1809381009D
:102BD00084EC99E090932F0180932E0181E0809303
:102BE0006F00BCCF853011F0873059F681E394E057
:102BF0000E94270910927A0110927B0110927C01A9
:102C0000109277011092760181E090E09093750127
:102C10008093740188EE93E090936F0180936E012E
:102C200083E005C080913104811104C088E0809365
:102C30005701A7CF85E294E00E94291A97FDBDC2F3
:102C40000091F5031091F603F801808310927A0148
:102C500010927B0110927C014781508561857285BD
:102C600043835483658376834091410450914204A9
:102C70006091430470914404415051096109710904
:102C800047835087618772878051833208F093C2EF
:102C9000E82FF0E0E25BF94E0C942233DF163D178B
:102CA0008C18BC187116DB18DB18DB18DB18DB1866
:102CB000DB18DB18DB18DB18DB18DB18C51802186B
:102CC0000018661822183E18DB18DB18DB18DB1812
:102CD000DB18DB18DB18DB18DB18DB180218DB1835
:102CE00011184AE050E068E571E081E394E00E9449
:102CF000CA0E0A9709F05FC260915801709159019C
:102D000090E080E00E94803220E030E040E650E435
:102D10000E94DF3120E030E040E05FE30E94733149
:102D20000E94513270936B0160936A0160915A0165
:102D300070915B0190E080E00E94803220E030E002
:102D400040E650E40E94DF3120E030E040E05FE305
:102D50000E9473310E94513270936D0160936C0137
:102D600090915C019F7080917D01807F892B809381
:102D70007D0180915D0190915E0190937701809338
:102D800076018091610190E0B0E0A0E0BA2FA92F18
:102D9000982F882720916001820F911DA11DB11DE0
:102DA000A92F982F882720915F01820F911DA11DC7
:102DB00080937A0190937B01A0937C0121C144E030
:102DC00050E068E571E081E394E00E94CA0E049748
:102DD00009F096C184EF90E090936B0180936A01B3
:102DE00089EE91E090936D0180936C0180917D015B
:102DF000807F886080937D01809158019091590176
:102E0000909377018093760180915A0190915B01B4
:102E1000A0E080937A0190937B01A0937C018BE6E4
:102E200092E090936F0180936E018FEB90E090930E
:102E300071018093700182ED90E090937301809313
:102E4000720185E294E00E94291A97FDB4C1809333
:102E5000790187FD0FC08FE79FE190937501809303
:102E6000740180917A0190917B01A0917C0101977E
:102E7000A1099ECF87E99CE0F0CF42E150E068E5F0
:102E800071E081E394E00E94CA0E429709F038C1D4
:102E900060915E0170915F0190E080E00E9480325D
:102EA00020E030E040E650E40E94DF3120E030E0F6
:102EB00040E05FE30E9473310E94513270936B01D6
:102EC00060936A01609160017091610190E080E01F
:102ED0000E94803220E030E040E650E40E94DF3182
:102EE00020E030E040E05FE30E9473310E94513205
:102EF00070936D0160936C01909164019F7080915B
:102F00007D01807F892B80937D0180916501909167
:102F1000660190937701809376018091690190E03A
:102F2000B0E0A0E0BA2FA92F982F88272091680140
:102F3000820F911DA11DB11DA92F982F88272091C7
:102F40006701820F911DA11D80937A0190937B01EF
:102F5000A0937C01609158017091590190E080E04C
:102F60000E94803220E030E040E650E40E94DF31F1
:102F700020E030E040E05FE30E9473310E94513274
:102F800070936F0160936E0160915A0170915B01C3
:102F900090E080E00E94803220E030E040E650E4A3
:102FA0000E94DF3120E030E040E05FE30E947331B7
:102FB0000E945132709371016093700160915C01C5
:102FC00070915D0190E080E00E94803220E030E06E
:102FD00040E650E40E94DF3120E030E040E05FE373
:102FE0000E9473310E945132709373016093720199
:102FF00080916201909163019093750180937401B7
:10300000F80136C085E294E00E94291AAC015527E8
:10301000052E000C660B770B81E394E00E945B0C9D
:10302000EFCF42E050E068E571E081E394E00E9478
:10303000CA0E97FDC0C0409158015091590170E0EF
:1030400060E0EACFB801615F7F4F42E050E081E38A
:1030500094E00E94CA0E8091410490914204A09194
:103060004304B0914404F80183879487A587B68709
:1030700081819281892BF9F483E025C0F801438591
:10308000548565857685411551056105710509F4FD
:1030900092C0878590899C0121503109308B278708
:1030A000892B59F081E394E00E94E906F8018181BF
:1030B0009281892B39F084E006C013861486158628
:1030C0001686F4CF82E0809357011AC042E050E0A8
:1030D00068E571E081E394E00E94CA0E97FD6BC041
:1030E00080915801909159018F3F980761F4F80140
:1030F000438154816581768181E394E00E945B0C79
:10310000809157013ECD181619060CF054C0019756
:10311000F80192838183F4CF44E050E068E571E0E8
:1031200081E394E00E94CA0E049751F780915A01FE
:1031300090915B01A0E080937A0190937B01A09332
:103140007C01609158017091590190E080E00E94EB
:10315000803220E030E040E650E40E94DF3120E0A1
:1031600030E040E05FE30E9473310E94513270937F
:103170006F0160936E0144CF85E294E00E94291AAA
:103180009927092E000CAA0B13CE42E050E0BE0195
:103190006F5F7F4F81E394E00E94CA0E10927A0124
:1031A00010927B0110927C0189819A819093770122
:1031B0008093760125CF85E086CF87E084CF00918C
:1031C000F5031091F603F80181819281892B09F4AE
:1031D00027CD80917A0190917B01A0917C01208183
:1031E000AC016A2F70E0233121F4440F551F661F94
:1031F000771F81E394E00E945B0C82E0809357018B
:10320000F80181819281019792838183BACC0091E8
:10321000F7031091F803F801EE53FF4F808180FD12
:10322000B0CCE091F503F091F60380818331C1F5D4
:1032300080917A0190917B01A0917C019C014A2FA1
:1032400021503109410920937A0130937B01409349
:103250007C01892B8A2B09F4E3C042E050E0BE01D7
:103260006F5F7F4F81E394E00E94CA0E69817A818B
:1032700090E080E00E94803220E030E040E650E4C0
:103280000E94DF3120E030E040E05FE30E947331D4
:103290000E945132AB0160E0C8010E94690971CC03
:1032A0008231D1F480917A0190917B01A0917C01CF
:1032B0009C014A2F21503109410920937A01309312
:1032C0007B0140937C01892B8A2B09F4A9C0409192
:1032D0006E0150916F01DFCF90917D01907FD9F009
:1032E0008091780140916C0150916D0187FD04C07F
:1032F00040916A0150916B0162E0C8010E94690926
:1033000080917801880F8093780180917D018051B0
:1033100080937D0136CC2091740130917501232B6F
:1033200091F040916E0150916F0160E0C8010E94E0
:1033300069098091740190917501019790937501CD
:10334000809374011ECC2091700130917101211580
:10335000310551F0A90160E0C8010E94690910928D
:103360007101109270010DCC2091720130917301A6
:103370002115310551F0A90160E0C8010E946909D9
:103380001092730110927201FCCB803159F48FEFCF
:103390008083809179018093780180917D018F7085
:1033A0008068B6CF80917A0190917B01A0917C01D9
:1033B000892B8A2B51F185E294E00E94291A97FD0E
:1033C00022C08093780120917A0130917B01409155
:1033D0007C0180917D018F7021303105410509F01C
:1033E00088E08295807F90917D019F70892B8093EA
:1033F0007D0121503109410920937A0130937B01ED
:1034000040937C01BECB85E012CC809176019091F7
:103410007701009729F0AC0161E0C8010E946909B9
:1034200082E005CCCF93DF931F92CDB7DEB741E0AA
:1034300050E0BE016F5F7F4F0E94CA0E019731F4CA
:10344000898190E00F90DF91CF9108958FEF9FEFEA
:10345000F9CF0C960C94121A8F929F92AF92BF9252
:10346000CF92DF92EF92FF92CF93DF93EC018C8C9F
:103470009D8CAE8CBF8CC88CD98CEA8CFB8C0C9646
:103480000E94121A8C8E9D8EAE8EBF8EC88ED98EE3
:10349000EA8EFB8EDF91CF91FF90EF90DF90CF907F
:1034A000BF90AF909F908F9008956F927F928F9270
:1034B0009F92AF92BF92CF92DF92EF92FF920F93C3
:1034C0001F93CF93DF937C015B016A014901FC01EB
:1034D00040815181628173818091410490914204C5
:1034E000A0914304B0914404481759076A077B0729
:1034F00021F085E294E00E945E09F6018081D0E02F
:10350000C0E0882339F1F4011081D0E0C0E0F60179
:1035100080818823F9F0002321F06DE1812F0E9442
:10352000DE0BF6018081815080832196AC16BD06AA
:1035300071F7DF91CF911F910F91FF90EF90DF9086
:10354000CF90BF90AF909F908F907F906F90089595
:103550003501E301CA15DB0560F78091310483FF73
:1035600078C08091490490914A04A0914B04B09195
:103570004C04409141045091420460914304709185
:103580004404841B950BA60BB70B8115F0E89F072D
:10359000A105B10520F08FEF9FE7A0E0B0E0892BF7
:1035A00041F281E394E00E94121AF70140815181B7
:1035B000628173814F5F5F4F6F4F7F4F40835183B5
:1035C000628373838D3E09F06DC081E394E00E94B5
:1035D000121A182FF70180819181A281B38101967F
:1035E000A11DB11D80839183A283B3831D3EA9F5E4
:1035F00081E394E00E94121AF601808381E394E053
:103600000E94121AF4018083F70180819181A281C6
:10361000B3810296A11DB11D80839183A283B383E0
:10362000F40110813E01F6018081882309F491CFD5
:10363000002321F06DE1812F0E94DE0BF6018081D5
:1036400081508083FFEF6F1A7F0AA614B70459F7E1
:103650007FCF80E090E0DC0198CF002321F06DE186
:103660008DEE0E94DE0B3E012FEF621A720A6A1481
:103670007B0458F4002321F06DE1812F0E94DE0BC2
:103680003E0182E0680E711C64CFF7018081918158
:10369000A281B3810197A109B10980839183A2839B
:1036A000B38357CF002319F06DE10E94DE0B3E017A
:1036B000FFEF6F1A7F0A4DCF8F929F92AF92BF920A
:1036C000CF92DF92EF92FF920F931F93CF93DF93EE
:1036D000CDB7DEB7A6970FB6F894DEBF0FBECDBF4D
:1036E000FC01DB018C918E3209F443C090913104CE
:1036F00090778CE009F0E2C18F01C0904904D0902E
:103700004A04E0904B04F0904C04FB01019000202F
:10371000E9F7BF016550710945E050E0CE0101961F
:103720000E944C31CE0101960E94603160E171E04F
:10373000CE0101960E944331892BC9F540E050E04B
:10374000BA0185E294E00E945E094BE150E0BE01BF
:103750006F5F7F4F81E394E00E94CA0EFE013196B5
:10376000CE014B9631912081321305C0E817F9073D
:10377000C9F780E0BAC0FBE1CF16F0ECDF06E10448
:10378000F10441F480910001823088F086E1D80193
:103790008C93C9C0D701C6019F7B4F97A240B1054A
:1037A00031F480910001833010F087E1F0CF6BE0BD
:1037B00071E0CE0101960E944331892B41F480E1F2
:1037C000C114BBE1DB06E104F10409F476C166E053
:1037D00071E0CE0101960E944331892B31F4C1146E
:1037E000D104F8E0EF06F10479F161E071E0CE0177
:1037F00001960E944331892B09F0C1C040E050E09E
:10380000BA0185E294E00E945E0946E250E0BE0102
:103810006F5F7F4F81E394E00E94CA0E8F81811118
:1038200084C08885811181C08F8D873109F444C09F
:103830008653823008F09DCF8BA1843008F46AC093
:1038400083E1D8018C933EC040EE5FE360E070E01E
:1038500085E294E00E945E0945E050E0BE016F5FA2
:103860007F4F81E394E00E94CA0E8981863741F43C
:103870008A81843310F080E38ACF8B818E32D9F72E
:103880004CEE5FE360E070E085E294E00E945E0948
:1038900043E050E0BE016F5F7F4F81E394E00E9400
:1038A000CA0E1C826DEF70E0CE0101960E9443317A
:1038B000892B09F45ECFDFCF8BA1833048F183E100
:1038C000F8018083F8018081823129F48EA187FF7D
:1038D00002C081E18083D8018C918231E9F481E0DA
:1038E00090910001923008F444CFA6960FB6F89458
:1038F000DEBF0FBECDBFDF91CF911F910F91FF9023
:10390000EF90DF90CF90BF90AF909F908F900895F1
:1039100082E1D6CF82E195CF833129F480910001F5
:10392000833008F426CF81E0E0CF82E1F801808384
:1039300080910001823008F41CCF8D8585FF71C015
:10394000B701A601445051096109710985E294E06B
:103950000E945E0944E050E0BE016F5F7F4F81E34B
:1039600094E00E94CA0E8981811109C08A818D3E2E
:1039700031F48B818D3E19F48C818823A1F268EF9C
:1039800070E0CE0101960E944331892B09F072C08C
:1039900040E050E0BA0185E294E00E945E0942E016
:1039A00050E0BE016F5F7F4F81E394E00E94CA0E3A
:1039B0008090410490904204A0904304B09044044D
:1039C000C0903D04D0903E04E0903F04F09040044D
:1039D00081E394E00E94121A809241049092420482
:1039E000A0924304B0924404C0923D04D0923E049D
:1039F000E0923F04F0924004892B09F0BACE1B827A
:103A000089819A81892B89F181E394E00E94121ABD
:103A10009B8189278B8389819A8101979A838983E6
:103A2000EFCFFEE1CF16F0ECDF06E104F10409F080
:103A3000A6CF40E050E0BA0185E294E00E945E0922
:103A40004EE150E0BE016F5F7F4F81E394E00E9442
:103A5000CA0EFE013196CE014E963191208132136D
:103A600062CF8E179F07C9F784CE8B81811181CEDB
:103A700080E28DCE63EF70E0CE0101960E9443316B
:103A8000892B09F076CE40E050E0BA0185E294E05F
:103A90000E945E0947E050E0BE016F5F7F4F81E307
:103AA00094E00E94CA0E6BEE70E0CE0101960E9477
:103AB0004331892B09F05DCE84E2F801808333CF56
:103AC0002F923F924F925F926F927F928F929F922E
:103AD000AF92BF92CF92DF92EF92FF920F931F931C
:103AE000CF93DF93CDB7DEB7CD58D1090FB6F89499
:103AF000DEBF0FBECDBF4C011A01E8EEF2E082E25C
:103B0000DF011D928A95E9F7662309F4EEC28091E0
:103B10003104882321F081E394E00E942709F10118
:103B2000408151817401FCE0EF0EF11CCA01019744
:103B30008E3F9F4F08F0A4C070E060E035E0440F76
:103B4000551F661F771F3A95D1F7C7010E94E906F6
:103B500064E170E080E090E00E94B5028091310461
:103B6000882321F081E394E00E942709D1014D913F
:103B70005C91CA0101978E3F9F4F08F009C270E027
:103B800060E015E0440F551F661F771F1A95D1F7A7
:103B9000C7010E94E906B70181E394E00E94C813BF
:103BA00010913104187081E394E00E9427091111EB
:103BB00010C210E000E0B6E7AB2EB2E0BB2EB701BA
:103BC00081E394E00E94C813882309F404C20D3FE6
:103BD000110508F000C280913104982F907709F404
:103BE0004AC081FD48C068E572E081E394E00E942C
:103BF0006C0868E572E087E592E00E945C1B882310
:103C0000D1F140E450E068E572E081E394E00E9485
:103C1000BF148091580290E00E943F338093580275
:103C2000A9E5CA2EA2E0DA2ED6018D916D0190E0B1
:103C30000E943733F60131978083AC14BD04A1F79D
:103C400080913504909136049093780280937702A6
:103C500010927602F7E5CF2EF2E0DF2E6DE1F6014D
:103C600081916F010E94DE0BF9E7CF16F2E0DF06CB
:103C7000A9F70F5F1F4F81E394E00E9427099FCFB0
:103C8000C4010E946F0CD101CD90DC90C114D1040D
:103C900009F05ECFFE01E359FF4F119211928EE1C0
:103CA000DF01282F1D922A95E9F7FE01E35BFF4F04
:103CB00011921192DF011D928A95E9F78FEF9FEF24
:103CC0009093F3028093F202712C612CB12CA12C01
:103CD000B1E0C357DF4FB883CD58D04001E010E0CA
:103CE000FE0131962F01B70181E394E00E94C813D1
:103CF000882371F0053EF8E01F0750F480913104ED
:103D0000982F907741F581E394E00E942709EBCF4B
:103D1000C4010E946F0CCE0101962C01B70181E312
:103D200094E00E94C813882329F0053EE8E01E07AE
:103D300008F47DC0B5016F5F7F4FC60101960E94F8
:103D40000E336930710508F0EEC06530710508F476
:103D50001CC181E0E9C081FDD6CF6AE073E081E358
:103D600094E00E946C086BE073E08AE093E00E94AC
:103D70005C1B882341F2C0903504D0903604C80102
:103D80006DEF70E00E940E33892B99F4C357DF4F1B
:103D90009881CD58D040E92FF0E0EE0FFF1FEE5094
:103DA000FD4FD182C0829F5FC357DF4F9883CD58AC
:103DB000D0400F5F1F4F4CE450E0B20181E394E02C
:103DC0000E94BF14D2010D900020E9F7CD018419A3
:103DD00095090B966DE070E00E940E33A60EB71E9B
:103DE0008FE1F201DE01A359BF4F01900D928A9538
:103DF000E1F7C457DF4F1882CC58D040BE01635B57
:103E00007F4FCE0183599F4F0E945D3397FF03C0C0
:103E1000BFEF6B1A7B0A80E2FE01E359FF4FDE0120
:103E2000A35BBF4F01900D928A95E1F76CCF809113
:103E3000310483FF73C081FD71C06AE073E081E3E8
:103E400094E00E946C086BE073E08AE093E00E94CB
:103E50005C1B882309F462C04CE450E0B20181E3AA
:103E600094E00E94BF14C0903504D0903604C8017D
:103E70006DEF70E00E940E33892B99F4C357DF4F2A
:103E80002881CD58D040E22FF0E0EE0FFF1FEE501A
:103E9000FD4FD182C0822F5FC357DF4F2883CD589B
:103EA000D0400F5F1F4F4CE450E0B20181E394E03B
:103EB0000E94BF14D2010D900020E9F7CD018419B2
:103EC00095090B966DE070E00E940E33A60EB71EAA
:103ED0008FE1F201DE01A359BF4F01900D928A9547
:103EE000E1F7C457DF4F1882CC58D040BE01635B66
:103EF0007F4FCE0183599F4F0E945D3397FF03C0D0
:103F0000BFEF6B1A7B0A80E2FE01E359FF4FDE012F
:103F1000A35BBF4F01900D928A95E1F781E394E096
:103F20000E942709FBCE82E080930403B3016F5FF8
:103F30007F4FC80101960E940E3382E069307105FF
:103F400040F46530710538F080910403811103C09D
:103F500081E080930403C357DF4FE881CD58D04000
:103F6000E093EA0201501109C80167E170E00E9484
:103F70000E336F5F6093EB02C8016DEF70E00E943B
:103F80000E338F5F8093EC02E3CD10920403CECF0B
:103F9000C4010E946F0CE9E5F2E080E2DF011D92AE
:103FA0008A95E9F78CE0809357028EE2809358025D
:103FB0008093590207E512E06DE1F80181918F01CC
:103FC0000E94DE0BF2E009371F07B1F701E010E0B5
:103FD000F2CD10E000E0D1014D915C91CA01019752
:103FE0008E3F9F4F08F07DC070E060E0E5E0440F39
:103FF000551F661F771FEA95D1F7C7010E94E90692
:1040000036E7C32E32E0D32E49E7A42E42E0B42E89
:10401000B70181E394E00E94C813882309F49DC08E
:104020000D3F110508F099C08091310483FF54C001
:1040300081FD52C068E572E081E394E00E946C0863
:1040400068E572E087E592E00E945C1B882309F432
:1040500043C040E450E068E572E081E394E00E94F0
:10406000BF148091580290E00E943F338093580221
:1040700029E5822E22E0922EF40181914F0190E0F9
:104080000E943733F40131978083C814D904A1F713
:10409000E8E5F2E001900020E9F7E955F240FF275A
:1040A000EC5AFD4F10821092760280913504909167
:1040B0003604909378028093770297E5892E92E0F8
:1040C000992E6DE1D4018D914D010E94DE0BA81453
:1040D000B904B9F70F5F1F4F81E394E00E942709ED
:1040E00097CFC4010E946F0C8BCF64E170E080E039
:1040F00090E00E94B502F10180819181892B41F409
:104100008CE08093E8028EE28093E9028093FD02C6
:1041100008EE12E06DE1D8018D918D010E94DE0B59
:10412000B3E00A301B07B1F7E8EEF2E082E2DF010C
:104130001D928A95E9F78FEF8093F2028093F30244
:1041400081E08093EA028093EB028093EC0264E1C9
:1041500070E080E090E00E94B50208EE12E08AE094
:10416000E82E83E0F82E6DE1F80181918F010E9425
:10417000DE0BE016F106B9F7C357DF4F0FB6F89420
:10418000DEBF0FBECDBFDF91CF911F910F91FF908A
:10419000EF90DF90CF90BF90AF909F908F907F90E7
:1041A0006F905F904F903F902F9008954F925F9245
:1041B0006F927F928F929F92AF92BF92CF92DF9237
:1041C000EF92FF920F931F93CF93DF93CDB7DEB79C
:1041D000AC970FB6F894DEBF0FBECDBF60E085E1AF
:1041E0000E945402579A5F9A21982998E091680397
:1041F000F091690312E01083E0916803F091690384
:104200001082E0916403F09165031082E0916603EF
:10421000F091670380E1808310927003E0916C035A
:10422000F0916D038EE08083E0916A03F0916B035F
:10423000808180618083E0916A03F0916B038081CB
:1042400088608083E0916A03F0916B0380818068CD
:104250008083E0916A03F0916B0380818F7D80837E
:104260008091C100877F8093C10062E082E00E945C
:10427000540262E083E00E94540261E083E10E9404
:10428000540261E083E10E94260261E088E00E941E
:10429000540260E088E00E94260282E00E94FD0154
:1042A000892B51F483E00E94FD01892B29F410939E
:1042B00053010E94C60B28C062E084E00E945402B1
:1042C00084E00E94FD01892BA1F781E080935301D6
:1042D00060E083E00E94540260E084E00E945402A7
:1042E00060E085E00E94540262E086E00E94540291
:1042F00062E088E00E94540262E082E10E9454027F
:1043000062E083E10E9454020E94E7026B01109276
:10431000AA061092A9061092AC068AE08093A8061D
:1043200061E00E94540261E08091A8060E9426028A
:1043300082E58093A0061092A1061FB7F8948091A1
:104340002A01811127C0E0E9F0E08491E4EAF0E07D
:104350009491E82FF0E0EE0FFF1FE859FF4FA59171
:10436000B491EC91E92321F461E08AE00E942602F5
:1043700061E08AE00E9454028CB580618CBD8CB5EE
:1043800080648CBD61E08DE00E94540261E08BE0AE
:104390000E94540280912A018F5F80932A011FBFDF
:1043A0001092A60681E08093A7068091AA0681114B
:1043B00004C08EE996E00E942C0361E08091A8067B
:1043C0000E9426021AE08FEF0E943C031150D9F799
:1043D00060E08091A8060E9426021AE020E030E00A
:1043E000A90160E08EE996E00E94A803082F8130C1
:1043F00009F487C0115009F076C081E08093A906C6
:104400008EE996E00E9461038EE996E090939D0606
:1044100080939C061091A906111175C190935204C6
:10442000809351041092560441E050E060E070E047
:104430004093590450935A0460935B0470935C0456
:104440009093730480937204109271048FEF9FEF26
:10445000DC018093780490937904A0937A04B0935C
:104460007B0420E040E050E0BA0181E794E00E9444
:10447000B405009709F447C1FC01E254FE4F2481C2
:10448000222309F440C120812F7709F03CC18A53CF
:104490009E4FFC01C080D180E280F380B701A6016D
:1044A00081E794E00E94B405FC01892B09F42BC13B
:1044B0008089823009F027C18385948581159240D7
:1044C00009F021C19585909353048FEF890F809354
:1044D000540481E0981709F47EC01F5F193009F475
:1044E00072C1880FF7CF8DEF0E943C0308E0A02E29
:1044F00002E0B02E0E94430321E0A21AB108D1F7D6
:104500006DCF2AEA31E040E050E068E08EE996E0C5
:104510000E94A80382FD0EC082E08093AC0614E0E6
:104520000E9443038093AB061150D1F78A3A21F0E1
:1045300086E064CF0093AC068091AC06812C912C70
:10454000A12CB0E4BB2E823019F0812C912C5401A7
:1045500020E030E0A90167E38EE996E00E94A8031D
:10456000A501940169E28EE996E00E94A8038823E0
:1045700049F00E94E7026C197D09613D774040F3E4
:1045800087E13CCF8091AC068230D1F420E030E06E
:10459000A9016AE38EE996E00E94A803882311F03E
:1045A00082E12CCF0E944303807C803C19F483E09D
:1045B0008093AC060E9443030E9443030E9443037E
:1045C0008EE996E00E94610380E58093A00681E079
:1045D0008093A10619CF1093550486899789B0E07E
:1045E000A0E080935D0490935E04A0935F04B09379
:1045F0006004892B8A2B8B2B61F484A195A1A6A141
:10460000B7A180935D0490935E04A0935F04B09380
:1046100060048685978526013701480E591E611C66
:10462000711C409265045092660460926704709217
:10463000680481899289909358048093570440912B
:104640005D0450915E0460915F04709160044A01C2
:104650005B01880C991CAA1CBB1C840C951CA61C15
:10466000B71C80926D0490926E04A0926F04B09279
:10467000700435E0880F991F3A95E1F781509E4FFD
:10468000892F99278695880E991EA11CB11C8092AE
:10469000610490926204A0926304B09264048389DE
:1046A0009489B0E0A0E00097A105B10521F480A1B4
:1046B00091A1A2A1B3A1C818D908EA08FB088C0DE2
:1046C0009D1DAE1DBF1D6C017D0104C0F694E794D5
:1046D000D794C7941A95D2F7D701C6010196A11DA8
:1046E000B11D8093690490936A04A0936B04B09306
:1046F0006C0485EFC8168FE0D806E104F10468F574
:104700008CE0809356040E94110CCE0101960E9409
:10471000480C65E271E0CE010D960E94AF11BE011A
:104720006F5F7F4F89EF93E00E94240CAC960FB629
:10473000F894DEBF0FBECDBFDF91CF911F910F91D7
:10474000FF90EF90DF90CF90BF90AF909F908F90B1
:104750007F906F905F904F90089580E125EFC21693
:104760002FEFD206E104F10468F084A595A5A6A573
:10477000B7A580936D0490936E04A0936F04B093DB
:10478000700480E28093560440937404509375043F
:1047900060937604709377048CE796E00E94270973
:1047A00061E574E08CE796E00E94EF0C882309F441
:1047B000AACF81E594E0909329018093280181E0BC
:1047C00080935401A0CF88E0809355049CCF1F9222
:1047D0000F920FB60F9211242F933F934F935F9335
:1047E0006F937F938F939F93AF93BF93EF93FF93B9
:1047F00088E593E00E944501FF91EF91BF91AF9151
:104800009F918F917F916F915F914F913F912F91E8
:104810000F900FBE0F901F9018951F920F920FB61A
:104820000F9211242F938F939F93EF93FF93E09117
:104830006803F09169038081E0916E03F0916F034A
:1048400082FD1BC09081809171038F5F8F732091D7
:104850007203821741F0E0917103F0E0E85AFC4FD7
:10486000958F80937103FF91EF919F918F912F917D
:104870000F900FBE0F901F9018958081F4CF1F925C
:104880000F920FB60F9211242F933F938F939F9304
:10489000AF93BF938091310190913201A091330188
:1048A000B09134013091300123E0230F2D3758F5BA
:1048B0000196A11DB11D2093300180933101909389
:1048C0003201A0933301B09334018091350190916E
:1048D0003601A0913701B09138010196A11DB11D9B
:1048E0008093350190933601A0933701B09338013E
:1048F000BF91AF919F918F913F912F910F900FBEDC
:104900000F901F90189526E8230F0296A11DB11D48
:10491000D2CF1F920F920FB60F9211242F933F9375
:104920004F935F936F937F938F939F93AF93BF93B7
:10493000EF93FF93E0912E01F0912F010995FF91E4
:10494000EF91BF91AF919F918F917F916F915F9107
:104950004F913F912F910F900FBE0F901F90189580
:10496000E8E5F3E01382128288EE93E0A0E0B0E085
:1049700084839583A683B78387E191E091838083C5
:1049800085EC90E09587848784EC90E09787868714
:1049900080EC90E0918B808B81EC90E0938B828B0C
:1049A00082EC90E0958B848B86EC90E0978B868BE5
:1049B000118E128E138E148E1092560410927C0655
:1049C00010927D0610927E0680E58093A0061092DC
:1049D000A10681E08093A70689E28093A906109240
:1049E000AC0685E294E00E94480C89EF93E00E94B7
:1049F000480C8EE791E09093F8038093F70381E4ED
:104A000092E09093F6038093F5030895CF93DF939C
:104A1000CDB7DEB7CC5AD1090FB6F894DEBF0FBEC2
:104A2000CDBF789484B5826084BD84B5816084BD37
:104A300085B5826085BD85B5816085BD80916E003C
:104A4000816080936E00109281008091810082606D
:104A500080938100809181008160809381008091AA
:104A600080008160809380008091B1008460809399
:104A7000B1008091B00081608093B00080917A0095
:104A8000846080937A0080917A00826080937A00BB
:104A900080917A00816080937A0080917A008068AA
:104AA00080937A001092C1000E94D62088E9282EB7
:104AB000312C2C0E3D1E27E0220E311C98E5892E4C
:104AC000912C8C0E9D1E39E1830E911C8091570113
:104AD00081110C94973010E088E593E00E94250145
:104AE000892B09F04CC080915301813041F599B177
:104AF00083B126B138B18170307F832B30E013E071
:104B0000359527951A95E1F726703327822B990F53
:104B10009870892B88B92BB189B190E005E0959503
:104B200087950A95E1F7827099272D7F822B8BB9A3
:104B30000E94B60011E08438934074F2CCCF26B1C5
:104B400089B190E0B3E095958795BA95E1F7322F5A
:104B5000307124FF12C08F7098B1907F892B88B973
:104B60002BB12D7F332339F089B190E0959587954E
:104B700082709927282B2BB9DBCF8E70EDCF1123B4
:104B800079F08091C100877F8093C10088B1807FD8
:104B900088B9599887B18F6087B9519A0E94110CD2
:104BA00088E593E00E940301C856DF4F8883C85907
:104BB000D040843108F079C0813108F0CAC38A300E
:104BC00009F40BC258F5833009F4AAC1A0F4882374
:104BD00011F40C949330813009F48BC180E090E0A3
:104BE000892B09F473CF0E943101882309F46ECF19
:104BF0000E9400006BCF883009F49FC1893071F7A3
:104C000062E088E591E00E94320B882339F38091BD
:104C10005801909159010E949D14DCC18D3009F416
:104C200020C2F8F48B3009F4E9C18C30B9F662E0A7
:104C300088E591E00E94320B882381F28091310453
:104C4000882321F081E394E00E9427098091580194
:104C5000909159010E9431148111F0C110925501B7
:104C6000BDCF8F3009F426C208F413C261E088E991
:104C700090E08C0F9D1F01960E94320B882309F44F
:104C8000ADCFC756DF4F1881C959D040609141045C
:104C90007091420480914304909144041111A1C584
:104CA00040E05BE10E94EE0F7CC2823209F499C0C1
:104CB00008F08BC0883108F054C0863108F074C207
:104CC000843109F08BCF61E088E990E08C0F9D1F63
:104CD00001960E94320B882309F480CFC756DF4F1C
:104CE000B880C959D040F1E0BF122DC010924A01DE
:104CF0001092490140E050E0BA0185E294E00E9440
:104D00005E094FE150E068E571E081E394E00E94C4
:104D1000CA0E80915E0190915F01892B09F484C5D0
:104D20008091640185FFE2C582E0809347018EE1B6
:104D300090E0A0E0B0E080933D0190933E01A0930D
:104D40003F01B093400180914701823009F4DAC5F8
:104D500008F0D3C5813009F4E1C5F0E1BF123ECFC0
:104D600020C28E3109F4FBC5803211F40C941D2F42
:104D7000883109F033CF61E088E990E08C0F9D1F06
:104D800001960E94320B882309F428CFC756DF4FC3
:104D90001881C959D040113009F01BC580914904D0
:104DA00090914A04A0914B04B0914C048B31904CEB
:104DB000A105B10509F01DC54BE150E070E060E0D0
:104DC00085E294E00E945E0904C5803309F48DC138
:104DD00008F082C0843229F008F4EBC4863209F06E
:104DE000FDCE91E0823209F090E09093560163E0AD
:104DF00088E591E00E94320B882309F4EFCE809180
:104E00005801909159010E949D1480935501882367
:104E100009F4E4CE80915601811108C04AE050E0C7
:104E200060E070E081E394E00E945B0C80915A01A5
:104E3000C855DF4F8883C85AD040E091F703F091FE
:104E4000F80383ECDF011D928A95E9F7EAE6F1E0C9
:104E500084E1DF011D928A95E9F7E091F503F09175
:104E6000F60386E1DF011D928A95E9F7C855DF4F09
:104E70008881C85AD04082FB992790F98695817025
:104E8000892795899B7F80FF9460958B219AE0917B
:104E9000F503F091F603858982FD02C00C948B30F6
:104EA00085B1826085B9C855DF4F8881C85AD04026
:104EB00082FD02C0579A5F98E091F503F091F603E6
:104EC00088EE93E0A0E0B0E0818B928BA38BB48B53
:104ED00082E08093570182CE8F3E11F40C948F3084
:104EE000833F19F08D3E09F079CE61E00E94710B8D
:104EF00075CE65E070E080E090E00E94B50203EEC0
:104F000010E0FBEEEF2EF0E0FF2EF80184916DE152
:104F10000E94DE0B0F5F1F4FE016F106B1F75ECE69
:104F200061E088E591E00E94320B882309F456CEB7
:104F3000809158018093000151CE0E94F302882392
:104F400009F44CCE1092D80119821A821B8268E5AE
:104F500071E0CE0101960E94AF118823A9F18091E2
:104F60003104882321F081E394E00E942709CE01D7
:104F700001960E94480C68E571E0CE010D960E94F2
:104F8000AF11BE016F5F7F4F85E294E00E94240C59
:104F900040E050E0BA0185E294E00E945E09809111
:104FA0003104807789F440E450E068E572E081E301
:104FB00094E00E94BF1481E08093D80168E572E01C
:104FC00089ED91E00E945C1B81E09091D8019130C5
:104FD00009F080E08093550101CE65E271E089EF30
:104FE00093E00E9485138CE796E00E94270961E513
:104FF00074E08CE796E00E94EF0CF0CD0E94F30283
:10500000882309F4EBCDCE0101960E94480C68E597
:1050100071E0CE0101960E948513182FCE010D96E6
:105020000E942709112309F4D9CD68E571E089EFC1
:1050300093E00E9485130E945913D0CD40E450E0C4
:1050400068E571E081E394E00E94BF1468E571E0D7
:1050500089EF93E00E948513809355018111EBCF76
:10506000BDCD40E051E068E571E085E094E00E944C
:10507000BF1408E511E0E8E5EE2EE2E0FE2E6DE15A
:10508000D8018D918D010E94DE0BE016F106B9F773
:10509000A5CD62E088E591E00E94320B882309F4F7
:1050A0009DCD48E551E06091540189EF93E00E9465
:1050B000601D94CD0E94F302882309F48FCDCE01A8
:1050C00001960E94480C68E571E0CE0101960E94AD
:1050D000851350E040E0682FCE0101960E94601DCC
:1050E000CE010D960E94270979CD61E088E990E014
:1050F0008C0F9D1F01960E94320B882309F46ECD00
:1051000080915501882309F469CD80915401882349
:1051100009F464CDC756DF4FD880C959D040CC249C
:10512000CA94CD0C4C2C512C712C612C65E070E094
:1051300080E090E00E94B5025FE0440C551C661CC4
:10514000771C5A95D1F760E4B62E10E000E078E5C0
:10515000E72E73E0F72E40E052E0C301B2010E9457
:10516000EE0FE8E5F1E08191080F111DEE16FF0644
:10517000D1F7BA94B2E05B0E611C711CB110EBCF99
:105180000D0D111D6DE18D2D0E94DE0B6DE1802F47
:105190000E94DE0B6DE1812F0E94DE0BEFE1CE124B
:1051A0001DCD81E394E09ECF61E088E990E08C0F13
:1051B0009D1F01960E94320B882309F40FCDC7561C
:1051C000DF4F2881C959D0402930C1F060F4213027
:1051D00008F09CC0C756DF4F8881C959D0408A303B
:1051E00009F0FCCCDECF40E052E06BE17EE380E0F2
:1051F00090E02A3079F70E94EE0FECCFC856DF4FCF
:105200001881C859D0404BE150E060E070E0CB011C
:105210000E94EE0F173109F06AC042E050E06BE1E6
:1052200070EC80E090E00E94EE0F41E050E06DE114
:1052300070EC80E090E00E94EE0F80915801877042
:1052400010924B0191E090934C0192E0811193E018
:1052500090934D0192E0813019F093E0811194E038
:1052600090934E0192E0833021F094E0823008F078
:1052700095E090934F0192E0843031F0843018F43F
:1052800095E0823009F496E09093500192E08630E8
:1052900031F0853018F496E0823009F497E090936D
:1052A0005101873079F1853079F1823069F187E0F9
:1052B0008093520184E00E940E0C88E0173121F0A7
:1052C00083E0163109F081E00E940E0C01E110E04C
:1052D00080E00E940E0C01501109D1F70FE010E0A0
:1052E0008FEF0E940E0C01501109D1F773CF80E0AF
:1052F0000E940E0C80E00E940E0C80E30E940E0CB7
:1053000080E09ECF82E0D4CF88E0D2CFE22FF0E0E1
:10531000E65BFE4F3081632F70E090E080E04EE06E
:10532000660F771F881F991F4A95D1F7333060F4B5
:10533000655E7F4F8F4F9F4F40E05EE3213009F461
:105340005ACF40E050E457CF615E7F4F8F4F9F4F61
:10535000F3CF61E088E990E08C0F9D1F01960E94D9
:10536000320B882309F43ACCC756DF4F1881C9594C
:10537000D040193009F472C008F05CC0113008F454
:1053800029CFC856DF4F8881C859D040833109F0F2
:105390003BC1212F2150330BF901EE53FF4F0491F4
:1053A00080914701833008F065C1823009F036C131
:1053B00060E070E4113071F48EE190E0A0E0B0E0C4
:1053C00080933D0190933E01A0933F01B093400133
:1053D00060E07EE301E029E431E04AE451E08DE35E
:1053E00091E00E94551A113009F0F4CE80913D01F0
:1053F00090913E01A0913F01B09140018093430103
:1054000090934401A0934501B093460180914A01D5
:10541000809342018091490180934101109348019A
:1054200000E029E431E04AE451E060E072E08DE31D
:1054300091E011C01A3009F0CDCE80914801882347
:1054400009F4D7C001E021E431E042E451E060E03A
:1054500072E083E491E00E94551ABCCE10924A019A
:10546000109249011092480140E050E0BA0185E2F3
:1054700094E00E945E0947E550E0BE016F5F7F4FF8
:1054800081E394E00E94CA0E4AEC50E0DE01A85A83
:10549000BF4FFA01849121E030E02C0F3D1F280F0F
:1054A000311DF90180818D934F5F5F4FA815B905BC
:1054B00081F78C8D811184E0AC968FAFAC973D85E0
:1054C000832F90E02C8530FB27F9AD962FAFAD9759
:1054D0002E8D2370E2962FAFE29795958795877072
:1054E000E3968FAFE39780E3E6968FAFE69784E08D
:1054F000E7968FAFE7979F818885292F282B09F49E
:1055000041C0E4969FAFE497E5968FAFE59783E0BF
:10551000E8968FAFE89782E035FF81E080934701FE
:1055200090914701A8E5B0E0AC0FBD1F9096FE0139
:1055300031969E012D5E3F4F80E0973108F086A1A5
:105540008D9331962E173F07B9F7E8E5F0E0EC0FA1
:10555000FD1FF19628E530E02C0F3D1F215C3F4FE9
:105560008FEF81932E173F07E1F7C956DF4F8883EE
:10557000C759D04060E470E0CE01885A9F4F0E9426
:10558000FA0B28CE8F8D8093470199A1E4969FAFA7
:10559000E4979AA1E5969FAFE597863329F1873383
:1055A000E9F0873139F48BA1833008F583E0E89680
:1055B0008FAFE897E8968FADE897883021F49CA1EB
:1055C000E6969FAFE6979EA197FFAACF833009F09A
:1055D000A7CF81E0E8968FAFE897A2CF68968FAD0E
:1055E0006897E7968FAFE7978BA18430F8F288E051
:1055F000DECF60914301709144018091450190910B
:10560000460140E052E0F7CD04E0123009F4C8CE84
:1056100008E0133009F0C4CE05E0C2CE1230E1F04C
:10562000133009F1113009F0D5CD40E05EE36EE1B1
:1056300070E080E090E00E94EE0F8EE19EE3A0E03B
:10564000B0E08093430190934401A0934501B0934F
:10565000460110924801BECD40E050E46EE170E496
:1056600080E090E0C8CD40E050E46EE170E880E07A
:1056700090E0C1CDC82ED12C30E2C30ED11C0D2C30
:10568000000CEE08FF08D701C6010396A11DB11D4D
:1056900080933D0190933E01A0933F01B093400160
:1056A0008091410490914204A0914304B09144043C
:1056B000C816D906EA06FB0631F0B701A60185E255
:1056C00094E00E945E0981E394E00E94121A5C015A
:1056D00081E394E00E94121AC655DF4F8883CA5AAC
:1056E000D040C755DF4F1882C95AD040C755DF4F49
:1056F00088819981C95AD040A80EB91E2601370168
:105700009FEFA916B90621F5A0E45A0E611C711C81
:1057100073016201B3E0CB0ED11CE11CF11C81E3EB
:1057200094E00E94121A0813AECF113009F080C520
:1057300060E07EE3AB20A09481F4C301B2016D5F11
:105740007F438109910940E05EE30E94EE0F15C09E
:105750004A0C5B1C611C711CDBCF10924A01109239
:10576000490101E029E431E04AE451E08DE391E0B0
:105770000E94551A113009F02DCD80913D01909174
:105780003E01A0913F01B09140018093430190936D
:105790004401A0934501B093460180914A01809352
:1057A0004201809149018093410181E08093480149
:1057B00011CD61E088E990E08C0F9D1F01960E9459
:1057C000320BC756DF4F1881C959D040882309F4DE
:1057D00005CA609141047091420480914304909104
:1057E000440440EB51E00E94EE0F103109F0F6C97D
:1057F000D8CC4DE150EC60E070E085E294E00E948E
:105800005E0981E394E00E94121A83FFD5CA877073
:1058100099274BE150E8079709F4D0CA4091490411
:1058200050914A045054CACA84E080934701C09002
:105830007601D12C20E2C20ED11C0D2C000CEE08FA
:10584000FF08D701C6010396A11DB11D80933D013C
:1058500090933E01A0933F01B09340018091410499
:1058600090914204A0914304B0914404C816D90613
:10587000EA06FB0631F0B701A60185E294E00E943A
:105880005E0981E394E00E94121A8C0181E394E0A6
:105890000E94121AC455DF4F8883CC5AD040C55598
:1058A000DF4F1882CB5AD040C555DF4F8881998190
:1058B000CB5AD040080F191F0F3F1007C9F4A0E4BE
:1058C000DA0EE11CF11CB3E0CB0ED11CE11CF11C83
:1058D00081E394E00E94121A883009F0B2CF0F3FA2
:1058E0001F4F81F483E0809347012DCA81E01DCAD8
:1058F000C00ED11EE11CF11CE6CF833079F084305C
:1059000009F02BCA01E029E431E04AE451E060EB00
:1059100071E08DE391E00E94551A1FCA60913D012C
:1059200070913E0180913F019091400140EB51E028
:105930000E94EE0F80913D0190913E01A0913F01A8
:10594000B091400180559E4FAF4FBF4F80933D01B6
:1059500090933E01A0933F01B0934001FEC962E0E5
:1059600088E592E00E94320B882309F437C98091C0
:105970005802909159020E949D14882309F42EC95F
:1059800069E572E081E394E00E946C0869E572E0E9
:1059900088E592E00E945C1B882309F402CC809188
:1059A0005802803209F470C160F58151833008F0EB
:1059B000F8CB46E050E060E070E085E294E00E94C1
:1059C0005E0981E394E00E94121A80935A0281E3F7
:1059D00094E00E94121A80935B0290915A029111F6
:1059E00003C0882309F492C06DE18FEF0E94DE0BA3
:1059F0006DE18FEF0E94DE0B6DE18FEF0E94DE0BF9
:105A0000D0CB803309F0CDCB8FEF8093640240EE92
:105A10005FE360E070E085E294E00E945E0948E0A8
:105A200050E06CE572E081E394E00E94CA0E809140
:105A30005C02863751F410915E021E3209F49EC05A
:105A400010915F021E3209F4C0C08FEF80935C0298
:105A500069E070E08CE592E00E94FA0B80916402AC
:105A600081508E3F08F09DCB65E070E080E090E0D3
:105A70000E94B50211E000E283E0F82E80916402FA
:105A8000811708F4FCC080915A02853040F04FE144
:105A900050E060E070E081E394E00E945B0C809154
:105AA0005A02843009F0C3C041E250E065E672E07A
:105AB00081E394E00E94CA0E10928602F09287025F
:105AC0001092890245E651E060E070E081E394E0E5
:105AD0000E945B0C64E270E085E692E00E94FA0BA3
