:100000000C948C000C94B4000C94B4000C94B400C8
:100010000C94B4000C94B4000C94B4000C94B40090
:100020000C94B4000C94B4000C94B4000C94B40080
:100030000C94B4000C94391F0C94B4000C94B400CC
:100040000C94EF1E0C94B4000C94BD1E0C94971EDF
:100050000C94B4000C94B4000C94B4000C94B40050
:100060000C94B4000C94B40000000000240027009D
:100070002A0000000000250028002B0000000000DE
:1000800023002600290004040404040404040202DA
:100090000202020203030303030301020408102007
:1000A0004080010204081020010204081020000012
:1000B0000008000201000003040700000000000027
:1000C0000000080503040607090A0A131411120F99
:1000D00010161504050D0E02031718191A1B0B0133
:1000E0000008094D554C5476312E335A58546170DE
:1000F0006521002E545A58002E544150004D4C4456
:10010000002E5A3830002E524F4D002E53435200CD
:100110002E534E410000601F11241FBECFEFD8E0C8
:10012000DEBFCDBF11E0A0E0B1E0ECEEF1E602C031
:1001300005900D92A832B107D9F726E0A8E2B1E008
:1001400001C01D92AF39B207E1F710E0CCE8D0E072
:1001500004C02197FE010E94B030CB38D107C9F707
:100160000E94C31F0C94F4300C94000087E4809329
:100170007C0080917A00806480937A0080917A007C
:1001800086FDFCCF80917800909179000895AF9220
:10019000BF92CF92DF92EF92FF920F931F93CF9374
:1001A000DF936C017B018B01040F151FEB015E01D6
:1001B000AE18BF08C017D10759F06991D601ED916B
:1001C000FC910190F081E02DC6010995892B79F70A
:1001D000C501DF91CF911F910F91FF90EF90DF90BC
:1001E000CF90BF90AF900895FC01538D448D252F83
:1001F00030E0842F90E0821B930B541710F0CF96C1
:10020000089501970895FC01918D828D981761F0F2
:10021000A28DAE0FBF2FB11D5D968C91928D9F5F09
:100220009F73928F90E008958FEF9FEF0895FC01E8
:10023000918D828D981731F0828DE80FF11D858D9B
:1002400090E008958FEF9FEF0895FC01918D228D2E
:10025000892F90E0805C9F4F821B91098F739927B3
:10026000089586E593E00E94250121E0892B09F499
:1002700020E0822F089580E090E0892B29F00E94F1
:10028000310181110C9400000895FC01A48DA80F88
:10029000B92FB11DA35ABF4F2C91848D90E00196C8
:1002A0008F739927848FA689B7892C93A089B189E8
:1002B0008C91837080648C93938D848D981306C089
:1002C0000288F389E02D80818F7D80830895EF92ED
:1002D000FF920F931F93CF93DF93EC0181E0888F00
:1002E0009B8D8C8D98131AC0E889F989808185FFD0
:1002F00015C09FB7F894EE89FF896083E889F98972
:1003000080818370806480839FBF81E090E0DF9173
:10031000CF911F910F91FF90EF900895F62E0B8DC6
:1003200010E00F5F1F4F0F731127E02E8C8D8E1181
:100330000CC00FB607FCFACFE889F989808185FFE8
:10034000F5CFCE010E944501F1CFEB8DEC0FFD2FD3
:10035000F11DE35AFF4FF0829FB7F8940B8FEA89A3
:10036000FB8980818062CFCFCF93DF93EC01888DB2
:100370008823B9F0AA89BB89E889F9898C9185FD20
:1003800003C0808186FD0DC00FB607FCF7CF8C91AE
:1003900085FFF2CF808185FFEDCFCE010E94450120
:1003A000E9CFDF91CF910895833081F028F4813037
:1003B00099F08230A9F008958730A9F08830C9F00B
:1003C0008430B1F4809180008F7D03C080918000E3
:1003D0008F7780938000089584B58F7784BD0895CA
:1003E00084B58F7DFBCF8091B0008F778093B00074
:1003F00008958091B0008F7DF9CFCF93DF93282FA0
:1004000030E0F901E255FF4F8491F901E656FF4FC4
:10041000D491F901EA57FF4FC491CC23A1F0811187
:100420000E94D401EC2FF0E0EE0FFF1FE458FF4FC5
:10043000A591B491EC91ED2381E090E009F480E086
:10044000DF91CF91089580E090E0FACF1F93CF9392
:10045000DF93282F30E0F901E255FF4F8491F90135
:10046000E656FF4FD491F901EA57FF4FC491CC23D0
:10047000A9F0162F81110E94D401EC2FF0E0EE0FAD
:10048000FF1FEE58FF4FA591B4918FB7F894EC91F0
:10049000111108C0D095DE23DC938FBFDF91CF917F
:1004A0001F910895DE2BF8CFCF93DF9390E0FC01EE
:1004B000E656FF4F24918A579F4FFC018491882371
:1004C000C9F090E0880F991FFC01E859FF4FA591F2
:1004D000B491FC01EE58FF4FC591D49161110DC04C
:1004E0009FB7F8948C91209582238C938881282340
:1004F00028839FBFDF91CF910895623051F49FB759
:10050000F8943C91822F809583238C93E8812E2B45
:10051000EFCF8FB7F894EC912E2B2C938FBFEACFAF
:100520003FB7F8948091330190913401A091350147
:10053000B091360126B5A89B05C02F3F19F0019652
:10054000A11DB11D3FBFBA2FA92F982F8827BC012D
:10055000CD01620F711D811D911D42E0660F771F55
:10056000881F991F4A95D1F708958F929F92AF9255
:10057000BF92CF92DF92EF92FF924B015C010E94FB
:1005800090026B017C010E9490026C197D098E091A
:100590009F09683E734081059105A8F321E0821A06
:1005A0009108A108B10888EEC80E83E0D81EE11CAE
:1005B000F11C81149104A104B10429F7FF90EF907C
:1005C000DF90CF90BF90AF909F908F9008952FB7FE
:1005D000F89460912F0170913001809131019091D8
:1005E00032012FBF0895CF93DF93EC01E981FA81A7
:1005F000908181819CBD8DBDE981FA8160E082811D
:100600000E94260281E08B83DF91CF9108958EBDF9
:100610000DB407FEFDCF08958FEF8EBD0DB407FE1C
:10062000FDCF8EB508950F931F93CF93DF93EC0109
:100630000E94E7028B010E940C038F3F69F00E9429
:10064000E702601B710BC617D707A8F780E0DF91A0
:10065000CF911F910F91089581E0F9CFCF93DF9350
:10066000FC012381222361F0EC010180F281E02D65
:1006700061E082810E9426028FEF0E9407031B82A5
:10068000DF91CF910895DF92EF92FF920F931F9326
:10069000CF93DF938C01C62FD22FF32EE42ED52ECD
:1006A000FC018381811103C0C8010E94F302CC23A5
:1006B00021F08CE291E00E9413038C2F80640E9451
:1006C00007038D2D0E9407038E2D0E9407038F2D97
:1006D0000E9407038D2F0E94070387E8C11101C004
:1006E00085E90E9407030E940C03CBE00E940C03E3
:1006F000F801848387FF02C0C150C1F7DF91CF9119
:100700001F910F91FF90EF90DF9008950F931F932B
:10071000CF93DF93EC0189018D81833039F089E03B
:10072000440F551F661F771F8A95D1F79A01AB01B9
:1007300068E1CE010E944303882319F082E3888395
:1007400039C08EEF0E940703F80180818EBD818140
:1007500032961E5F0DB407FEFDCF8EBDE017F10788
:1007600011F08191F7CF0DB407FEFDCF8FEF0E94FE
:1007700007038FEF0E9407030E940C038C838F7185
:10078000853099F480ED97E00E941303182F8AE5D5
:100790001123A9F220E030E0A9016DE0CE010E9412
:1007A0004303882361F089E2CACF87E58883CE01BD
:1007B0000E942E03CE010E942E0310E007C00E946B
:1007C0000C038111F0CFCE010E942E03812FDF9107
:1007D000CF911F910F910895EF92FF920F931F9366
:1007E000CF93DF93EC0179018D81833039F089E07B
:1007F000440F551F661F771F8A95D1F79A01AB01E9
:1008000061E1CE010E944303882339F080E38883AD
:10081000CE010E942E0380E037C00E94E7028B01C8
:100820000E940C038C838F3F69F40E94E702601BD7
:10083000710B693E7340A0F385E58883CE010E9469
:100840002E03E6CF8E3F11F080E5F7CF8FEF8EBD00
:10085000F701D701A150BE4F9FEF0DB407FEFDCFAA
:100860008EB59EBD8193AE17BF07B9F70DB407FED5
:10087000FDCF8EB58C931C820E940C030E940C034A
:10088000CE010E942E0381E0DF91CF911F910F9145
:10089000FF90EF900895EF92FF921F93CF93DF9315
:1008A000FC01208111E020FF14C0EC017C01F7E085
:1008B000EF0EF11C4B815C816D817E81E981FA81B3
:1008C0009701808191810E948603182F811108C0B1
:1008D00010E0812FDF91CF911F91FF90EF9008954D
:1008E000888181FD04C088818E7F8883F2CFE98171
:1008F000FA814B815C816D817E8184859585A68599
:10090000B785480F591F6A1F7B1F9701808191810E
:100910000E9486038111E7CFDBCFCF92DF92EF9267
:10092000FF921F93CF93DF93EC016A017B01122F9B
:100930008B819C81AD81BE818C159D05AE05BF0567
:10094000B1F0CE010E944B0481110AC090E080E01A
:10095000DF91CF911F91FF90EF90DF90CF9008959E
:1009600012FF0CC01882CB82DC82ED82FE821370F3
:100970008881182B1883CE010796EACFE981FA8186
:100980009E01295F3F4FB701A601808191810E949E
:10099000EC038111E7CFDACF8F929F92AF92BF9293
:1009A000CF92DF92EF92FF920F931F931092540415
:1009B00041E050E060E070E04093570450935804E9
:1009C0006093590470935A042FE434E03093710417
:1009D0002093700410926F044FEF5FEFBA014093C1
:1009E00072045093730460937404709375048823A5
:1009F00009F450C020E040E050E0BA018FE694E0F6
:100A00000E948D04009761F480E01F910F91FF9088
:100A1000EF90DF90CF90BF90AF909F908F90089510
:100A2000FC01E254FE4F20812F7771F78A539E4FCD
:100A3000FC01C080D180E280F380C114D104E104C4
:100A4000F10411F320E0B701A6018FE694E00E94C3
:100A50008D04FC01892BC1F2838594858115924018
:100A600099F68089823081F686859785892B61F297
:100A70002585209351048FEF820F8093520480E0EC
:100A800091E0291769F08F5F893041F488E0809305
:100A90005304BACFC12CD12C7601D4CF990FF1CF0A
:100AA000809353044689578970E060E041155105F1
:100AB00021F444A155A166A177A140935B04509312
:100AC0005C0460935D0470935E042685378546015F
:100AD0005701820E931EA11CB11C80926304909258
:100AE0006404A0926504B09266042189328930932F
:100AF000560420935504440F551F661F771F480D59
:100B0000591D6A1D7B1D40936B0450936C046093C8
:100B10006D0470936E0421893289A5E0220F331F82
:100B2000AA95E1F721503E4F232F33272695420FF8
:100B3000531F611D711D40935F04509360046093C7
:100B40006104709362040389148930E020E0011588
:100B5000110521F400A111A122A133A1C41AD50AC3
:100B6000E60AF70AC00ED11EE21EF31E04C0F69478
:100B7000E794D794C7948A95D2F7D701C601019616
:100B8000A11DB11D8093670490936804A09369042C
:100B9000B0936A0485EFC8168FE0D806E104F1042B
:100BA00020F48CE0809354042FCF80E125EFC2160F
:100BB0002FEFD206E104F10468F084A595A5A6A55F
:100BC000B7A580936B0490936C04A0936D04B093CD
:100BD0006E0480E28093540481E017CF8F929F923D
:100BE000AF92BF92CF92DF92EF92FF920F931F933B
:100BF000423051056105710560F480E01F910F914D
:100C0000FF90EF90DF90CF90BF90AF909F908F902C
:100C10000895FC01C08CD18CE28CF38CC416D506EF
:100C2000E606F70650F3480159016A017B01858108
:100C3000803241F584899589A689B78917E0769530
:100C40006795579547951A95D1F7480F591F6A1F11
:100C50007B1F23E0CF0180960E948D04009769F2EC
:100C6000E894C7F8DD24EE24FF24CC0CDD1CCC0C6A
:100C7000DD1C8C0D9D1DFC0180829182A282B382BD
:100C800081E0BCCF803109F0B8CF448955896689AD
:100C900077894D0D511D611D711D23E0CF01809697
:100CA0000E948D04009709F4A8CFDD24EE24FF24D0
:100CB000CC0CDD1CC80ED91EF60111830083E0CFD9
:100CC000CF92DF92EF92FF920F931F93CF93DF9318
:100CD000423051056105710550F48FEFDF91CF91DE
:100CE0001F910F91FF90EF90DF90CF900895FC013E
:100CF000C08CD18CE28CF38CC416D506E606F706C0
:100D000060F389016A017B01EC0185818032B9F5CC
:100D100084899589A689B789E7E07695679557957F
:100D20004795EA95D1F7480F591F6A1F7B1F22E0AC
:100D3000CE0180960E948D04009779F2E894C7F85E
:100D4000DD24EE24FF24CC0CDD1CCC0CDD1C8C0D32
:100D50009D1DFC0180819181A281B381BF70488D6E
:100D6000598D6A8D7B8D481759076A077B0738F1C3
:100D7000F80180839183A283B38381E0AFCF803178
:100D800009F0ABCF44895589668977894D0D511D8E
:100D9000611D711D22E0CF0180960E948D04009795
:100DA00009F49BCFDD24EE24FF24CC0CDD1CC80EFF
:100DB000D91EF60180819181B0E0A0E0D0CF80E023
:100DC0008DCF0F931F93CF93DF93DC01EB019C91A9
:100DD000911106C080E0DF91CF911F910F9108958E
:100DE000907629F08FE28883198281E0F4CF8D011B
:100DF00054964D915D916D917C91579716968D917A
:100E00009C9120E080960E948D04009719F3F801D0
:100E1000A481B581AF70BB2725E0AA0FBB1F2A951F
:100E2000E1F7A80FB91F1097A9F2AD0138E070E003
:100E300080E06EE2FA019191AF019032F1F08830DA
:100E400039F49E01270F311DF90160837F5F30E186
:100E50008A0101501109F80190812FEB290F2A31E5
:100E600030F41C962C911C97232309F0905E8E0180
:100E7000070F111DF80190837F5F8F5F8B30D1F6D4
:100E8000FE01E70FF11D1082B0CFFC019C01255F30
:100E90003F4F80E080FB879587F99191890F2E174E
:100EA0003F07C1F70895CF93DF93FC012081211103
:100EB00004C081E0DF91CF910895EC01828182FF2F
:100EC00039C044895589668977898681978121E06F
:100ED00080960E948D04009729F48981816089831E
:100EE00080E0E8CFEC81FD81EF70FF2725E0EE0F79
:100EF000FF1F2A95E1F7E80FF91F309771F3808102
:100F0000853E59F3888183FF08C0888D998DAA8D0D
:100F1000BB8D848F958FA68FB78F8C8D9D8D938F72
:100F2000828F8C8D9D8DAE8DBF8DB58BA48B8A816C
:100F30008B7F8A838E819F8180960E944B048823B9
:100F400061F2B7CF4F925F926F927F928F929F9292
:100F5000AF92BF92CF92DF92EF92FF920F931F93C7
:100F6000CF93DF93EC014A015B014C845D846E8476
:100F70007F84A881AA2309F486C0488959896A898F
:100F80007B89481559056A057B0569F08114910430
:100F9000A104B10451F41C861D861E861F86888A12
:100FA000998AAA8ABB8A81E073C0A3FF59C0088DC1
:100FB000198D2A8D3B8D081519052A053B0508F466
:100FC00062C0EE81FF81848190E009968A019B01D5
:100FD0000150110921093109082E04C036952795C1
:100FE000179507950A94D2F775016401B1E0CB1A01
:100FF000D108E108F10804C0F694E794D794C794A7
:101000008A95D2F7C016D106E206F30628F0452BE2
:10101000462B472B09F052C0A6FF4BC0848D958DFF
:10102000A68DB78D8C879D87AE87BF878E01045FA5
:101030001F4FC114D104E104F10409F4B0CF4C8571
:101040005D856E857F8598018E819F810E946006F7
:1010500091E0C91AD108E108F108181654F313C039
:10106000A5FFAFCFEE81FF818681978125E0880FB4
:10107000991F2A95E1F7B0E0A0E088159905AA0527
:10108000BB0508F08CCF4C865D866E867F8680E03F
:10109000DF91CF911F910F91FF90EF90DF90CF9054
:1010A000BF90AF909F908F907F906F905F904F9088
:1010B00008958C8D9D8DAE8DBF8DB4CFC01AD10A91
:1010C000E20AF30AB3CFAB01BC018FE294E00C94C7
:1010D000A207CF93DF93EC010E9453071882DF91A0
:1010E000CF9108953F924F925F926F927F928F922D
:1010F0009F92AF92BF92CF92DF92EF92FF920F93A7
:101100001F93CF93DF9300D000D0CDB7DEB74C0153
:10111000FC01828184608283A680B78044845584E8
:1011200066847784F501C084D184E284F384C41496
:10113000D504E604F70410F011E003C07301620166
:1011400010E0FFEFCF1ADF0AEF0AFF0AF501808DEA
:10115000918DA28DB38D8C159D05AE05BF0538F41C
:10116000111131C0C084D184E284F384E5CF4C14E2
:101170005D046E047F0439F19E012F5F3F4FB7017C
:10118000A601C5010E94600687FD1DC08823C9F223
:1011900089819A81AB81BC81892B8A2B8B2B89F623
:1011A000112329F0F501C086D186E286F3860FEF80
:1011B0001FEF2FEF3FE0B701A601C5010E94EE052A
:1011C000382E811118C0312C832D0F900F900F9065
:1011D0000F90DF91CF911F910F91FF90EF90DF90D3
:1011E000CF90BF90AF909F908F907F906F905F90C7
:1011F0004F903F900895411451046104710431F4FB
:10120000F401C486D586E686F786DECF970186018F
:10121000B301A201C5010E94EE058111F1CFD3CF28
:1012200010926F0080E180938100E091F303F091D0
:10123000F403858983FF02C057985F9A0895CF927F
:10124000DF92EF920F931F93CF93DF936A01E62E05
:101250005FB7F8948C0100541F4FE8013881FC01FE
:10126000EF53FF4F2081DC01AE53BF4F321303C059
:101270002C9120FD1CC0208130E0B901660F771F42
:10128000260F371F820F931FEC01C882D982EA8292
:1012900080818F5F80838F738083E80128818081C4
:1012A00091E0281390E08C9190FB80F98C935FBFC4
:1012B000DF91CF911F910F91EF90DF90CF90089524
:1012C0002FB7F894DC01A054BF4F4C91FC01EF53B1
:1012D000FF4F30813196431303C0808180FF08C0E7
:1012E0008C918F5F8C938F738C9380818E7F8083A2
:1012F0002FBF0895CF92DF92EF92FF921F93CF936B
:10130000DF93E091F303F091F403418952896389FB
:101310007489DB01CA01F3E0880F991FAA1FBB1F64
:10132000FA95D1F7009721E0A207B10540F421E03A
:1013300020932B0190932A01809329010EC00097DE
:10134000C8E0AC07B10508F092C082E080932B01A1
:101350007F7150932A014093290180912901909136
:101360002A01909387008093860080912B018061F1
:1013700080938100E091F303F091F4038589982F25
:10138000927082FFA9C085B18D7F992309F4A2C014
:1013900090E0892B85B92091F5033091F603D901AE
:1013A000A054BF4F9C91F901EF53FF4F80819813D8
:1013B00096C0C9018E539F4FEC01888180FF98C071
:1013C0004FB7F8949C918081981306C0F901EE53B1
:1013D000FF4F808180FFAEC08C9190E0FC01EE0F4A
:1013E000FF1FE80FF91FE20FF31F308121811281E7
:1013F0004FBFC901C92ED82E1770E090F303F090AB
:10140000F40311FF99C0F7018589982F917021E0AD
:10141000290F20FB80F9858B992351F08091F503EA
:101420009091F6030E946009E7018D898E7F8D8B74
:10143000E091F303F091F403C601B0E0A0E010FFE7
:10144000B5C09601A8EEB3E00E94B630618B728BF6
:10145000838B948B80E0958980FB91F9958BDF914C
:10146000CF911F91FF90EF90DF90CF90089500975C
:10147000D0E4AD07B10558F423E020932B01E6E05A
:10148000B695A79597958795EA95D1F753CF00978D
:10149000A105E1E0BE0740F424E020932B01892F51
:1014A0009A2FAB2FBB2746CF0097A105F4E0BF07CB
:1014B00058F425E020932B016AE0B695A7959795FF
:1014C00087956A95D1F736CF85E080932B018FEF12
:1014D0009FEF30CF92E05DCF85B18D7F5ACF9C9149
:1014E0008081981718F580819C91891B09F068CF3D
:1014F00080915501883009F0B2CFC091F303D091AB
:10150000F4038D89982F917021E0290F20FB80F939
:101510008D8B911155C040E452E46FE070E0498B2F
:101520005A8B6B8B7C8B8D7F8D8B99CF80819C911F
:10153000805CDBCF4FBF61CF8091F5039091F603C4
:1015400010FF31C0F7012589322F317041E0430F80
:1015500040FB20F9258B311126C02FB7F894FC01F0
:10156000E054FF4F4081DC01AF53BF4F3C91431328
:1015700004C011963C9130FF13C03081FC0143E060
:10158000349FE00DF11D11242FBF808191810197BF
:101590009183808310E08CEDC82E85E0D82E48CF53
:1015A000F0E0E0E0F1CF0E94600942CF818B928BA6
:1015B000A38BB48B85898695817091E089274BCF69
:1015C0000E9410098D898F7E8D8B1092550147CF17
:1015D000CF92DF92EF92FF920F931F93CF93DF93FF
:1015E000F82EC92FD62F0E94E7020F2D1C2FC0E026
:1015F0006B017C0128EEC20E23E0D21EE11CF11C1F
:10160000DC17C1F00E94E7026C157D058E059F0571
:1016100090F486E593E00E942501892B89F386E505
:1016200093E00E940301F80181938F01CF5F0E9434
:10163000E702DECFCD2F81E0DC1380E0DF91CF9198
:101640001F910F91FF90EF90DF90CF9008958F92B0
:101650009F92AF92BF92CF92DF92EF92FF929091C2
:10166000C10098609093C100662329F0682F86E539
:1016700093E00E9467010E94E702812C912C5401A3
:1016800083946B017C0120EAC20E2FE0D21EE11C84
:10169000F11C80E38816910488E0A806B104F1F0FB
:1016A0000E94E7026C157D058E059F05B8F486E55E
:1016B00093E00E942501892B61F386E593E00E9467
:1016C0000301682F86E593E00E9467010E94E7020C
:1016D0002FEF821A920AA20AB20AD3CF8091C100D8
:1016E000877F8093C100FF90EF90DF90CF90BF90F5
:1016F000AF909F908F90089562E084E00E94540222
:1017000062E085E00E94540262E086E00E9454029A
:1017100061E088E00E94260262E082E10E945402B9
:1017200061E083E10C94260228B1982F92959F7076
:101730009095207F922B98B95998EFE1F0E031977E
:10174000F1F798B180958F70907F892B88B9599A5D
:1017500024E0629FC001112405970197F1F70895D5
:101760000F931F93CF93DF93EC018C01060F171F8C
:101770006DE189910E94940BC017D107C9F7DF91E1
:10178000CF911F910F91089563E20C94940B0E94E6
:10179000B60084389340DCF38091C100877F80934A
:1017A000C10088B18F6088B987B18F6087B9599AB5
:1017B000519A08950C960C945307FC01848583FF7D
:1017C00017C084A195A1A6A1B7A1448D558D668DA2
:1017D000778D841B950BA60BB70B811520E892071C
:1017E000A105B10520F08FEF9FE7A0E0B0E00895DC
:1017F00080E090E0DC01F1CF0F931F93FC010089A2
:10180000118922893389400F511F621F731F1F9155
:101810000F910C94A20740E050E0BA010C94A2078B
:1018200080910304807721F083E094E00C940B0C0A
:10183000089590E080E00895CF92DF92EF92FF92BA
:101840000F931F93CF93DF93FC0180E2DF011D9282
:101850008A95E9F7EB01AE81BF81B783A6835583F3
:101860004483CC8CDD8CEE8CFF8CC086D186E286E6
:10187000F3864F705527ED01A79695E0440F551F4D
:101880009A95E1F7BE01640F751FEB018B8583FD0F
:1018900049C0CD01840F951FEC018AA9877180830F
:1018A000EB019B85987111F488608083238381E02C
:1018B000828393960D911D912D913C919697048B67
:1018C000158B268B378BA40FB51FDB964D915C9142
:1018D000DC9770E060E0BA0155274427ED01CF5B4B
:1018E000DF4F0881198130E020E0402B512B622B23
:1018F000732B448F558F668F778FAD5BBF4F8D9164
:101900009D910D90BC91A02D808F918FA28FB38F50
:1019100081E0DF91CF911F910F91FF90EF90DF90C9
:10192000CF900895108280E0F4CFFC018081811176
:101930000FC080E2DF01982F1D929A95E9F7778317
:101940006683DB0115969C91903129F0903211F05D
:1019500080E0089580E4808381E0828308952F925F
:101960003F924F925F926F927F928F929F92AF922F
:10197000BF92CF92DF92EF92FF920F931F93CF937C
:10198000DF93EC015B014A01888183FFC5C08A8136
:1019900081FFC2C083FDB7C0A40170E060E0888908
:1019A0009989AA89BB8980959095A095B09584174F
:1019B0009507A607B70708F4AFC064011E018CE0C5
:1019C000280E311C088919892A893B89C114D10440
:1019D00009F4E1C08E819F81B901A80129E07695C3
:1019E0006795579547952A95D1F7DC011396FC909A
:1019F000F4221170F1101BC04C855D856E857F85CA
:101A00000115110509F0F4C0411551056105710575
:101A100009F488C091010E94600687FD7DC0811194
:101A200006C0CE010E947208882309F475C0EE81B9
:101A3000FF814C855D856E857F8542505109610926
:101A40007109848104C0440F551F661F771F8A9552
:101A5000D2F780899189A289B389840F951FA61F27
:101A6000B71FAC01BD014F0D511D611D711D011549
:101A7000110529F4C114B2E0DB0608F06EC080E065
:101A800092E0801B910B76018C159D0508F47C017A
:101A90000115110571F4488859886A887B88888DFA
:101AA000998DAA8DBB8D25E0481659066A067B06DE
:101AB00008F421E0CF0180960E948D04009761F127
:101AC000A701B501800F911F0E94E2300E0D1F1D6E
:101AD0000115124039F48E819F8180960E944B043B
:101AE0008823D1F088899989AA89BB898E0D9F1D89
:101AF000A11DB11D888B998BAA8BBB8BAE0CBF1C13
:101B0000CE18DF085FCF488D598D6A8D7B8DCE0151
:101B10000E94A207811140CF8981816089838FEF64
:101B20009FEF4DC08C8D9D8DAE8DBF8D0097A10513
:101B3000B10571F4CE010E947208882369F38C8587
:101B40009D85AE85BF858C8F9D8FAE8FBF8F6FCFEC
:101B50008C879D87AE87BF876ACF83A194A1A5A1FB
:101B6000B6A1481759076A077B0741F410A28FEF07
:101B70009FEFDC0183A394A3A5A3B6A3EE81FF810D
:101B80009501808191810E948603882329F2E12CAE
:101B900082E0F82EA7CF888D998DAA8DBB8D8017F6
:101BA0009107A207B30738F48A81088F198F2A8F0B
:101BB0003B8F84608A838A8187FD14C0C401DF91D2
:101BC000CF911F910F91FF90EF90DF90CF90BF903A
:101BD000AF909F908F907F906F905F904F903F90CD
:101BE0002F900895CE010E9453078111E7CF94CF23
:101BF000FC014250510961097109848104C0440FFC
:101C0000551F661F771F8A95D2F780899189A2890F
:101C1000B389480F591F6A1F7B1F31CF0C960C9454
:101C2000AF0CCF93DF931F92CDB7DEB7698341E04E
:101C300050E0BE016F5F7F4F0C960E94AF0C0F907B
:101C4000DF91CF9108954F925F926F927F928F9222
:101C50009F92AF92BF92CF92DF92EF92FF920F933B
:101C60001F93CF93DF93EC015B018A018881882366
:101C700009F4C1C09A8190FFBEC083FF16C0888D51
:101C8000998DAA8DBB8D488959896A897B89841B66
:101C9000950BA60BB70BA80170E060E04817590739
:101CA0006A077B07A0F08C0112C085FF10C0EE818F
:101CB000FF818681978155E0880F991F5A95E1F73A
:101CC00028893989821B930B8017910760F378016B
:101CD0002E012CE0420E511C612C42E0742EE114C6
:101CE000F10409F4B5C088899989AA89BB894C0196
:101CF00021E092222881EE81FF81AC01BD0139E013
:101D000076956795579547953A95D1F725FF29C060
:101D1000848D958DA68DB78D480F591F6A1F7B1F27
:101D2000EE81FF818114910409F06BC0E11482E01F
:101D3000F80608F466C083A194A1A5A1B6A148172E
:101D400059076A077B0709F45CC09501808191817E
:101D50000E94EC03882309F44EC0C12C82E0D82EE7
:101D600066C0D380D4228114910481F4D1100EC0B6
:101D7000892B8A2B8B2B81F526FF29C0848D958D8D
:101D8000A68DB78D8C879D87AE87BF87EE81FF813B
:101D90004C855D856E857F854250510961097109C9
:101DA000848104C0440F551F661F771F8A95D2F7A0
:101DB00080899189A289B389840F951FA61FB71FB7
:101DC000AC01BD014D0D511D611D711DA9CF8C8D43
:101DD0009D8DAE8DBF8DD6CF4C855D856E857F8503
:101DE0009201CF010E94600687FD05C08111CECF10
:101DF0008881807769F58981826089838FEF9FEF81
:101E00002AC0C3018819990967018E159F0508F436
:101E10006C0120E0CF0180960E948D04009759F359
:101E2000BC01680D791DA601C5010E94E230AC0C11
:101E3000BD1C88899989AA89BB898C0D9D1DA11D0E
:101E4000B11D888B998BAA8BBB8BEC18FD0847CFF3
:101E5000C8018E199F09DF91CF911F910F91FF90BB
:101E6000EF90DF90CF90BF90AF909F908F907F903A
:101E70006F905F904F900895CF92DF92EF92FF9214
:101E80000F931F93CF93DF936A010E94630810E0C2
:101E900000E00C151D0518F5E601C01BD10BC1159E
:101EA00082E0D80710F0C0E0D2E0AE0166E571E054
:101EB0008FE294E00E94230E86E5E82E81E0F82E62
:101EC0006DE1F70181917F010E94940BC701865556
:101ED00091408C179D07A0F30C0F1D1FDACFDF91E7
:101EE000CF911F910F91FF90EF90DF90CF900895C9
:101EF000EF92FF920F931F93CF93DF931F92CDB773
:101F0000DEB77C01962FF701408951896289738978
:101F10008A019B0185E036952795179507958A9547
:101F2000D1F70F7011F091112BC041E050E0BE01CC
:101F30006F5F7F4FC7010E94230E813051F090E008
:101F400080E00F90DF91CF911F910F91FF90EF9064
:101F50000895F70180899189A289B3894F96A11DBF
:101F6000B11D808B918BA28BB38BF70186819781FA
:101F70008796F0E20F9F90011124820F931FE1CF0B
:101F8000405E5F4F6F4F7F4F408B518B628B738BE7
:101F9000ECCF2F923F924F925F926F927F928F92EF
:101FA0009F92AF92BF92CF92DF92EF92FF920F93E8
:101FB0001F93CF93DF9300D01F92CDB7DEB77C0184
:101FC0007B836A83FA016115710509F4E5C0DB01C1
:101FD0008C91807709F4E0C0D7018C918111DCC02D
:101FE000C180D2808081837088248394882349F0C3
:101FF000C6010C966DE070E00E949C3088248394AA
:10200000860E8F018A819B810E940B0C1982212CE4
:10201000312C912C5801B6E0AB0EB11CEA81FB814A
:10202000408851886288738861E0CF010E94780FF0
:10203000009709F4B1C0DC012C91253E09F4A6C03B
:10204000222309F4C0C0381470F12E3251F1FC0182
:1020500033853F3009F05DC0911027C026FFDECFE9
:102060002F71922EF585F983222EE22DE150FF0B80
:10207000AF01FDE0F49F9001F59F300D11242C1568
:102080003D0578F4FC01712C64E06715B0F08181A6
:102090009281C216D306D1F4892B19F4BFCF253E05
:1020A000A1F6912CBBCF312CD0CF2A942211F9CF9D
:1020B0002585B9812B17C9F2F4CF8AE0871518F06E
:1020C00084819581E6CF86819781E3CF8F3F91050B
:1020D00009F038F74FEB480F4A3108F4805EB90138
:1020E0006F5F7F4FD80113964D915C91240F351F80
:1020F000D9019C912FEB290F2A3108F4905E981397
:10210000D0CF73943296BDE07B1609F487CF9B0144
:10211000BBCF33FDC6CF992061F1E1E02E123CC068
:102120000E944507F981F81337C0B301A20185E089
:1021300076956795579547958A95D1F7292D6A81A8
:102140007B81C7010F900F900F90DF91CF911F916E
:102150000F91FF90EF90DF90CF90BF90AF909F9046
:102160008F907F906F905F904F903F902F900C9446
:102170001C0C4BE050E0B5010E94D530892B09F0D2
:102180004DCFD8018C9180FD49CFCFCF381408F0C6
:1021900088CF3394211183CF80E00F900F900F9060
:1021A000DF91CF911F910F91FF90EF90DF90CF9033
:1021B000BF90AF909F908F907F906F905F904F9067
:1021C0003F902F900895381420F3E6CF2F923F923E
:1021D0004F925F926F927F928F929F92AF92BF9237
:1021E000CF92DF92EF92FF920F931F93CF93DF93E3
:1021F000CDB7DEB7E7970FB6F894DEBF0FBECDBF01
:102200007C018A0119821A82DC018C918823D1F029
:1022100080E0E7960FB6F894DEBF0FBECDBFDF912A
:10222000CF911F910F91FF90EF90DF90CF90BF90D3
:10223000AF909F908F907F906F905F904F903F9066
:102240002F9008956115710519F3FB018081807746
:10225000F9F2DA018C91FA018F3209F4A2C0FE0181
:10226000F296FFABEEABF8019F012F5F3F4F8081ED
:10227000803209F4AEC0FDA3ECA39F01A9014E1B5F
:102280005F0B8901D9018D919D01882371F08F32F7
:1022900009F0A1C0CF01840F951F8C01DC012D91A5
:1022A000CD012032D1F32F32C1F3DA01AE0FBF1FBF
:1022B000AD014E1B5F0BEA17FB0709F4A6C08E9118
:1022C0008E32B1F38032A1F34F3F510511F00CF083
:1022D0009FCF5BA34AA3DE0197966D0180E28D93A9
:1022E000AEA8BFA8AA16BB06D1F7DF01CD018E1B91
:1022F0009F0B2D912E32D1F32032C1F377247394AA
:10230000009709F0712C9A01215031095F01A40E48
:10231000B51E2F3F320709F07BC08EA0512CB7E0CD
:10232000BAAB312C612CA8E04A2E841795070CF02B
:10233000AEC0DF01A80FB91FAC90ADAAAA2DA03284
:1023400009F4A3C0AE3221F48217930709F09DC0AF
:102350009DA8B92DB232A9F0BC3799F0BA52B63067
:1023600018F4A92DAD3269F4BDA9BA53B63048F0BE
:10237000BDA9BB55B33028F0BDA9B152BE3508F494
:1023800051C08217930709F0C1C08AA98A3009F4A5
:10239000C8C0C901BAE0BAABA8E03A2EB0E14B2EF2
:1023A00060C08F0181918F32E1F3DB0116966D9150
:1023B0007C91811104C0C7010E94950C2ACFCE01E7
:1023C00001960E94950CBE016F5F7F4F811147CF30
:1023D0001FCFF90149CF8C3509F41ACF982F977F79
:1023E000923209F415CF8A3309F412CF982F9F7BCC
:1023F0009C3309F40DCF92EC980F923008F408CF7B
:1024000080528F3508F43ACF03CF50E040E061CFDF
:10241000D5019E905D01BEE29B1609F47ECF21504E
:10242000310977CF8217930709F4AFCFBAA9B31553
:1024300008F470C0BDA9B156BA31D0F4ADA9A0520C
:10244000ADAB542822242394230C5601A30CB11CB9
:10245000D501ADA8AC92A6E0BA2E322CB21408F089
:10246000822C019662CF712CBFE5BDABBFE59B2EE0
:10247000BFEBB90DBA3130F76428E4CFC901AAE047
:10248000AAABA8E03A2EB0E14B2E712CEACF8EA277
:102490008FA1803209F4BCCE772011F1852D8621E1
:1024A00011F082E0582E59A2F8018081AE014F5DF3
:1024B0005F4F882339F1C7010E94C90F882309F4AF
:1024C000A7CE80E2F701DE01119601900D928A9568
:1024D000E1F7C7010E946908BE016F5F7F4FC3CE5D
:1024E00081E089A3912CF601E80DF91D8EE7808328
:1024F000E8E2F0E0EC0FFD1F8E0E9F1E81E3D40199
:102500008C93D2CFC7010E94C90F83CEAAA9A3156D
:1025100008F0A9CFBAA9BA3021F0281739070CF072
:10252000ADCF8EA2712CB4CF0F931F93CF93DF93B7
:10253000CDB7DEB7AC970FB6F894DEBF0FBECDBFF8
:102540008C0119821A82AC0166E776E0CE01019611
:102550000E94E610882309F44CC08091030488236C
:1025600021F083E094E00E9469081D861E861C828B
:102570001B8288EE93E0A0E0B0E08D839E83AF8362
:10258000B88787E191E09A838983A80166E776E0BE
:10259000CE010D960E94E61080E2FE013D96A3E07A
:1025A000B4E001900D928A95E1F78B819C81909324
:1025B000FA038093F9038D819E81AF81B885809362
:1025C000FB039093FC03A093FD03B093FE03898566
:1025D0009A85AB85BC858093FF0390930004A093FC
:1025E0000104B093020490910304907781E009F410
:1025F00080E0AC960FB6F894DEBF0FBECDBFDF9182
:10260000CF911F910F9108950F931F93CF93DF9355
:102610008C01009709F448C0AC014150510970E0A9
:1026200060E085E0440F551F661F771F8A95D1F73C
:1026300083E094E00E94A2078823E9F160E083E050
:1026400094E00E94780FFC01892BA9F183858F30DB
:1026500079F580818F71813059F5D585C02F05318D
:10266000110508F0C4E160E083E094E00E94780F77
:10267000009709F1FC012081253EE9F02223D9F0E1
:102680002E32C9F0CC2321F00E9445078D1313C0D0
:102690002C2FA80163E074E08FE294E0DF91CF91EA
:1026A0001F910F910C941C0C83E094E00E940B0C82
:1026B000C0E0D0E0D8CF80E0DF91CF911F910F91A3
:1026C0000895CF93DF93EC0180912F04882321F0AC
:1026D0008FE294E00E94690880912F04882329F0FA
:1026E000C0E08C2FDF91CF91089580910304807713
:1026F000B9F3CE010E940413C82F882389F3809177
:102700002F04807769F760E070E0CB010E946308D6
:10271000E8CFCF92DF92EF92FF920F931F93CF9368
:10272000DF9320912F04211115C0009799F0FC012F
:102730002081207779F040895189628973894F71AE
:102740005527662777278C01C0E0D0E0452B462B24
:10275000472B59F080E0DF91CF911F910F91FF90AF
:10276000EF90DF90CF900895C0E0F801C088D18845
:10277000E288F38860E0C8010E94780F009751F367
:10278000FC012081222331F32E3271F3253E61F3C7
:10279000338533FD1DC0CC2321F00E9445078D13E6
:1027A000D9CFB701A60185E07695679557954795EE
:1027B0008A95D1F72C2FB8018FE294E0DF91CF9169
:1027C0001F910F91FF90EF90DF90CF900C941C0C15
:1027D0003F3051F626FFC9CFC22FCF71D585C5CF67
:1027E0002F923F924F925F926F927F928F929F9221
:1027F000AF92BF92CF92DF92EF92FF920F931F930F
:10280000CF93DF93CDB7DEB7A2970FB6F894DEBFB4
:102810000FBECDBF8C017B015A0119821A82DC01E7
:102820008C91882309F4C5C013968C9181111EC028
:10283000C8010E94E106982E892DA2960FB6F89441
:10284000DEBF0FBECDBFDF91CF911F910F91FF90E3
:10285000EF90DF90CF90BF90AF909F908F907F9040
:102860006F905F904F903F902F900895F801808572
:102870009185A285B385668177819E012F5F3F4F49
:1028800039010097A105B10509F079C0C9010E947D
:10289000950C882309F48DC044244394512CD12CE9
:1028A000C12C17012A0C3B1CF1E02F1A3108D8016A
:1028B00013968C911397841508F47BC014964D9150
:1028C0005C914419550970E060E085E0440F551FA4
:1028D000661F771F8A95D1F7C3010E94A207982E21
:1028E000882309F466C060E0C3010E94780FFC01F0
:1028F000892B09F45EC083858F3009F05AC080812E
:102900008F71481256C0A7014C0D5D1DFAA3E9A3B3
:10291000960160E0A9A1BAA1653008F040C0119607
:102920008D919C910097A9F02A153B05E0F48F3713
:10293000910510F08FE390E02F5F3F4FDA018D9308
:10294000AD016F5F89A19AA102969AA389A36D3008
:1029500009F72A153B0538F4808186FF04C02E0D47
:102960003F1DD9011C92D1011C92BDE0CB0ED11CA0
:102970002FEF421A520A808186FF99CF5DCF2CE15A
:10298000F30111922A95E9F720E1298321E02B83B5
:1029900078876F838D8F9E8FAF8FB8A37DCF6B307D
:1029A00020F414968D919C91BDCF16968D919C919B
:1029B000B9CFD7011C92912C3FCF0F931F93CF9388
:1029C000DF9300D0CDB7DEB7E0915501E250E9309A
:1029D00008F0A1C2F0E0E151FB4E0C94B0301C15A0
:1029E0004B18231856198B1756198B17F8140A15FC
:1029F0000091F3031091F403F801858984FF06C068
:102A00000E941009F80185898F7E858B8BE0809369
:102A1000550181C280912F04882391F0E091F30346
:102A2000F091F40347815085618572858FE294E0CF
:102A30000E94A20782E0EBCF80912F04811102C097
:102A400088E0E5CF83E294E00E94891997FDF9C2FE
:102A50000091F3031091F403F80180831092780140
:102A60001092790110927A014781508561857285B3
:102A7000438354836583768340913F04509140049F
:102A800060914104709142044150510961097109FA
:102A900047835087618772878051833208F0CFC2A5
:102AA000E82FF0E0EA5AFA4E0C94B030E7154516DC
:102AB000CF17001879151F181F181F181F181F1877
:102AC0001F181F181F181F181F181F1809180A177A
:102AD00008176E172A1746171F181F181F181F18D8
:102AE0001F181F181F181F181F181F180A171F1844
:102AF00019174AE050E066E571E08FE294E00E9429
:102B0000230E0A9709F09BC26091560170915701FC
:102B100090E080E00E940E3020E030E040E650E49B
:102B20000E946D2F20E030E040E05FE30E94012F23
:102B30000E94DF2F709369016093680160915801D2
:102B40007091590190E080E00E940E3020E030E06A
:102B500040E650E40E946D2F20E030E040E05FE36B
:102B60000E94012F0E94DF2F70936B0160936A0116
:102B700090915A019F7080917B01807F892B809377
:102B80007B0180915B0190915C0190937501809332
:102B9000740180915F0190E0B0E0A0E0BA2FA92F0E
:102BA000982F882720915E01820F911DA11DB11DD4
:102BB000A92F982F882720915D01820F911DA11DBB
:102BC0008093780190937901A0937A0121C144E028
:102BD00050E066E571E08FE294E00E94230E0497D6
:102BE00009F097C184EF90E09093690180936801A8
:102BF00089EE91E090936B0180936A0180917B0153
:102C0000807F886080937B0180915601909157016D
:102C100090937501809374018091580190915901AE
:102C2000A0E08093780190937901A0937A018BE6DC
:102C300092E090936D0180936C018FEB90E0909304
:102C40006F0180936E0182ED90E09093710180930B
:102C5000700183E294E00E94891997FDF0C180938E
:102C6000770187FD0FC08FE79FE1909373018093F9
:102C700072018091780190917901A0917A01019778
:102C8000A1099ECF87E99CE0F0CF42E150E066E5E4
:102C900071E08FE294E00E94230E429709F039C15F
:102CA00060915C0170915D0190E080E00E940E30C7
:102CB00020E030E040E650E40E946D2F20E030E05C
:102CC00040E05FE30E94012F0E94DF2F70936901B3
:102CD0006093680160915E0170915F0190E080E017
:102CE0000E940E3020E030E040E650E40E946D2F5C
:102CF00020E030E040E05FE30E94012F0E94DF2FE0
:102D000070936B0160936A01909162019F70809152
:102D10007B01807F892B80937B018091630190915F
:102D2000640190937501809374018091670190E034
:102D3000B0E0A0E0BA2FA92F982F88272091660134
:102D4000820F911DA11DB11DA92F982F88272091B9
:102D50006501820F911DA11D8093780190937901E7
:102D6000A0937A01609156017091570190E080E044
:102D70000E940E3020E030E040E650E40E946D2FCB
:102D800020E030E040E05FE30E94012F0E94DF2F4F
:102D900070936D0160936C016091580170915901BD
:102DA00090E080E00E940E3020E030E040E650E409
:102DB0000E946D2F20E030E040E05FE30E94012F91
:102DC0000E94DF2F70936F0160936E0160915A0132
:102DD00070915B0190E080E00E940E3020E030E0D6
:102DE00040E650E40E946D2F20E030E040E05FE3D9
:102DF0000E94012F0E94DF2F709371016093700178
:102E000080916001909161019093730180937201B0
:102E1000F80136C083E294E00E948919AC0155277D
:102E2000052E000C660B770B8FE294E00E94FC0BE2
:102E3000EFCF42E050E066E571E08FE294E00E945F
:102E4000230E97FDFCC0409156015091570170E050
:102E500060E0EACFB801615F7F4F42E050E08FE26F
:102E600094E00E94230E80913F0490914004A09131
:102E70004104B0914204F80183879487A587B687FF
:102E800081819281892BF9F483E025C0F801438583
:102E9000548565857685411551056105710509F4EF
:102EA000CEC0878590899C0121503109308B2787BE
:102EB000892B59F08FE294E00E94A207F8018181EA
:102EC0009281892B39F084E006C01386148615861A
:102ED0001686F4CF82E0809355011BC042E050E09B
:102EE00066E571E08FE294E00E94230E97FDA7C093
:102EF00080915601909157018F3F980709F046C085
:102F0000F80143815481658176818FE294E00E94CB
:102F1000FC0B80915501E091F503F091F603EE531F
:102F2000FF4F808180FF2BC0E091F303F091F40309
:102F3000858984FD24C08061858B83FF02C0579AF8
:102F40005F9880E1809381001092800084E08093FC
:102F50002B0182E19AE790932A01809329019093B3
:102F600087008093860084E1809381008AE799E05E
:102F700090932D0180932C0181E080936F000F903E
:102F80000F90DF91CF911F910F9108951816190698
:102F90000CF055C00197F80192838183BACF44E0C9
:102FA00050E066E571E08FE294E00E94230E049702
:102FB00009F0AFCF8091580190915901A0E0809322
:102FC000780190937901A0937A01609156017091F4
:102FD000570190E080E00E940E3020E030E040E6B3
:102FE00050E40E946D2F20E030E040E05FE30E945B
:102FF000012F0E94DF2F70936D0160936C0108CF49
:1030000083E294E00E9489199927092E000CAA0BEB
:10301000D7CD42E050E0BE016F5F7F4F8FE294E07A
:103020000E94230E109278011092790110927A0179
:1030300089819A819093750180937401E9CE85E02E
:103040004ACF87E048CF0091F3031091F403F801D1
:1030500081819281892B09F443C1809178019091FB
:103060007901A0917A012081AC016A2F70E02331AF
:1030700021F4440F551F661F771F8FE294E00E94D2
:10308000FC0B82E080935501F801818192810197C8
:103090009283818340CF0091F5031091F603F801EC
:1030A000EE53FF4F808180FD36CFE091F303F09126
:1030B000F40380818331C1F5809178019091790189
:1030C000A0917A019C014A2F215031094109209396
:1030D00078013093790140937A01892B8A2B09F486
:1030E000A9CC42E050E0BE016F5F7F4F8FE294E0D9
:1030F0000E94230E69817A8190E080E00E940E3068
:1031000020E030E040E650E40E946D2F20E030E007
:1031100040E05FE30E94012F0E94DF2FAB0160E0DF
:10312000C8010E941F09F7CE8231D1F48091780145
:1031300090917901A0917A019C014A2F2150310987
:103140004109209378013093790140937A01892BCA
:103150008A2B09F46FCC40916C0150916D01DFCF47
:1031600090917B01907FD9F08091760140916A0126
:1031700050916B0187FD04C0409168015091690135
:1031800062E0C8010E941F0980917601880F809338
:10319000760180917B01805180937B01BCCE209190
:1031A000720130917301232B91F040916C01509189
:1031B0006D0160E0C8010E941F0980917201909129
:1031C000730101979093730180937201A4CE2091B3
:1031D0006E0130916F012115310551F0A90160E0B8
:1031E000C8010E941F0910926F0110926E0193CEC8
:1031F00020917001309171012115310551F0A90123
:1032000060E0C8010E941F091092710110927001C4
:1032100082CE803159F48FEF808380917701809343
:10322000760180917B018F708068B6CF80917801A4
:1032300090917901A0917A01892B8A2B51F183E237
:1032400094E00E94891997FD22C080937601209115
:1032500078013091790140917A0180917B018F70E2
:1032600021303105410509F088E08295807F9091F9
:103270007B019F70892B80937B012150310941098B
:10328000209378013093790140937A0144CE85E010
:10329000BECB8091740190917501009709F4CACB5F
:1032A000AC0161E0C8010E941F09C4CB8FE294E029
:1032B0000E946908109278011092790110927A01A7
:1032C000109275011092740181E090E09093730167
:1032D0008093720188EE93E090936D0180936C016E
:1032E00083E095CBCF93DF931F92CDB7DEB741E05C
:1032F00050E0BE016F5F7F4F0E94230E019731F4B3
:10330000898190E00F90DF91CF9108958FEF9FEF2B
:10331000F9CF0C960C9472198F929F92AF92BF9234
:10332000CF92DF92EF92FF92CF93DF93EC018888E8
:103330009988AA88BB88CC84DD84EE84FF840E94AF
:10334000721997FD08C0888A998AAA8ABB8ACC8696
:10335000DD86EE86FF86DF91CF91FF90EF90DF90C4
:10336000CF90BF90AF909F908F9008950C960C9443
:103370008C194F925F926F927F928F929F92AF9231
:10338000BF92CF92DF92EF92FF920F931F93CF9352
:10339000DF937C015B016A014901FC01608171815D
:1033A0008281938140903F0450904004609041049A
:1033B00070904204641575058605970511F00E940A
:1033C0006308F6018081D0E0C0E0882349F1F40170
:1033D0001081D0E0C0E0F6018081882309F100234C
:1033E00021F06DE1812F0E94940BF60180818150C4
:1033F00080832196AC16BD0671F7DF91CF911F91A6
:103400000F91FF90EF90DF90CF90BF90AF909F9083
:103410008F907F906F905F904F9008953501E301FA
:10342000CA15DB0550F783E294E00E94DD0B892B7F
:1034300021F38FE294E00E947219F70140815181DB
:10344000628173814F5F5F4F6F4F7F4F4083518326
:10345000628373838D3E09F069C08FE294E00E941D
:103460007219182FF70180819181A281B381019691
:10347000A11DB11D80839183A283B3831D3E89F575
:103480008FE294E00E947219F60180838FE294E04B
:103490000E947219F4018083F70180819181A281D9
:1034A000B3810296A11DB11D80839183A283B38352
:1034B000F40110813E01F6018081882309F4AFCF29
:1034C000002321F06DE1812F0E94940BF601808191
:1034D00081508083FFEF6F1A7F0AA614B70459F753
:1034E0009DCF002321F06DE18DEE0E94940B3E01F3
:1034F0008FEF681A780A6A147B0458F4002321F0CD
:103500006DE1812F0E94940B3E01E2E06E0E711C72
:1035100086CFF70180819181A281B3810197A109B2
:10352000B10980839183A283B38379CF002319F0FB
:103530006DE10E94940B3E01FFEF6F1A7F0A6FCF7F
:10354000CF92DF92EF92FF920F931F93CF93DF936F
:10355000CDB7DEB7A6970FB6F894DEBF0FBECDBFCE
:10356000FC01DB018C918E3209F441C090912F0453
:1035700090778CE009F0ADC18F01C0904704D090E6
:103580004804E0904904F0904A04FB0101900020B7
:10359000E9F7BF016550710945E050E0CE010196A1
:1035A0000E94DA2ECE0101960E94EE2E60E171E0BB
:1035B000CE0101960E94D12E892BB9F560E070E012
:1035C000CB010E9463084BE150E0BE016F5F7F4F6B
:1035D0008FE294E00E94230EFE013196CE014B96BD
:1035E00031912081321305C0E817F907C9F780E04F
:1035F000B4C0FBE1CF16F0ECDF06E104F10441F4C6
:1036000080910001823088F086E1D8018C93BFC0A0
:10361000D701C6019F7B4F97A240B10531F480913D
:103620000001833010F087E1F0CF6BE071E0CE0154
:1036300001960E94D12E892B41F480E1C114BBE197
:10364000DB06E104F10409F443C166E071E0CE0158
:1036500001960E94D12E892B31F4C114D104F8E0D7
:10366000EF06F10469F161E071E0CE0101960E947C
:10367000D12E892B09F0B5C060E070E0CB010E942B
:10368000630846E250E0BE016F5F7F4F8FE294E037
:103690000E94230E8F8181117CC08885811179C0A1
:1036A0008F8D873109F440C08653823008F09FCF58
:1036B0008BA1843008F462C083E1D8018C933AC0B6
:1036C00060EE7FE380E090E00E94630845E050E018
:1036D000BE016F5F7F4F8FE294E00E94230E8981CD
:1036E000863741F48A81843310F080E38ECF8B815A
:1036F0008E32D9F76CEE7FE380E090E00E946308A1
:1037000043E050E0BE016F5F7F4F8FE294E00E9484
:10371000230E1C826DEF70E0CE0101960E94D12E27
:10372000892B09F464CFE1CF8BA1833028F183E1A9
:10373000F8018083F8018081823129F48EA187FF0E
:1037400002C081E18083D8018C918231C9F481E08B
:1037500090910001923008F44ACFA6960FB6F894E3
:10376000DEBF0FBECDBFDF91CF911F910F91FF90B4
:10377000EF90DF90CF90089582E1DACF82E19DCF84
:10378000833129F480910001833008F430CF81E047
:10379000E4CF82E1F801808380910001823008F457
:1037A00026CF8D8585FF4DC0C701B60164507109D4
:1037B000810991090E94630844E050E0BE016F5FF7
:1037C0007F4F8FE294E00E94230E8981811109C00E
:1037D0008A818D3E31F48B818D3E19F48C81882352
:1037E000B1F268EF70E0CE0101960E94D12E892BD4
:1037F00009F04DC060E070E0CB010E94630842E038
:1038000050E0BE016F5F7F4F8FE294E00E94230E75
:103810008FE294E00E948C19892B09F0E8CE1B827C
:1038200089819A81892B71F18FE294E00E9472194B
:103830009B8189278B8389819A8101979A838983C8
:10384000EFCFFEE1CF16F0ECDF06E104F10449F61C
:1038500060E070E0CB010E9463084EE150E0BE01E1
:103860006F5F7F4F8FE294E00E94230EFE0131963E
:10387000CE014E9631912081321389CF8E179F074A
:10388000C9F7B5CE8B818111B2CE80E2BECE63EF97
:1038900070E0CE0101960E94D12E892B09F0A7CEAF
:1038A00060E070E0CB010E94630847E050E0BE0199
:1038B0006F5F7F4F8FE294E00E94230E6BEE70E00B
:1038C000CE0101960E94D12E892B09F090CE84E280
:1038D000F80180835CCF8F929F92AF92BF92CF927C
:1038E000DF92EF92FF920F931F93CF93DF93CDB7A9
:1038F000DEB7AC970FB6F894DEBF0FBECDBF60E069
:1039000085E10E945402579A5F9A21982998E09184
:103910006603F091670312E01083E0916603F09173
:1039200067031082E0916203F09163031082E091DB
:103930006403F091650380E1808310926E03E0914F
:103940006A03F0916B038EE08083E0916803F0914D
:103950006903808180618083E0916803F09169034D
:10396000808188608083E0916803F09169038081A1
:1039700080688083E0916803F091690380818F7D86
:1039800080838091C100877F8093C10062E082E0E4
:103990000E94540262E083E00E94540261E083E1ED
:1039A0000E94540261E083E10E94260261E088E007
:1039B0000E94540260E088E00E94260282E00E9499
:1039C000FD01892B51F483E00E94FD01892B29F42C
:1039D000109351010E947C0B28C062E084E00E9499
:1039E000540284E00E94FD01892BA1F781E08093BD
:1039F000510160E083E00E94540260E084E00E9494
:103A0000540260E085E00E94540262E086E00E9479
:103A1000540262E088E00E94540262E082E10E9467
:103A2000540262E083E10E945402109299061092BF
:103A3000960610929B068CE996E0909398068093E8
:103A400097060E94E7026B01009197061091980675
:103A50008AE0F801828361E00E94540261E0F8018B
:103A600082810E9426021FB7F8948091280181115B
:103A700027C0E0E9F0E08491E4EAF0E09491E82FD7
:103A8000F0E0EE0FFF1FE859FF4FA591B491EC91C4
:103A9000E92321F461E08AE00E94260261E08AE0E5
:103AA0000E9454028CB580618CBD8CB580648CBD45
:103AB00061E08DE00E94540261E08BE00E945402BC
:103AC000809128018F5F809328011FBFE0919706A6
:103AD000F091980682E58083118280919906811188
:103AE00004C086E996E00E94F302E0919706F09107
:103AF000980661E082810E9426021AE08FEF0E9400
:103B000007031150D9F7E0919706F091980660E00D
:103B100082810E9426021AE020E030E0A90160E0E4
:103B200086E996E00E944303082F813009F46CC0B7
:103B3000115009F05BC080E28093960686E996E01A
:103B40000E942E030E94C70B1D861E861C821B82AC
:103B500088EE93E0A0E0B0E08D839E83AF83B887CA
:103B600087E191E09A83898345E251E066E776E058
:103B7000CE010D960E94E61080E2FE013D96A3E084
:103B8000B4E001900D928A95E1F78B819C8190932E
:103B9000FA038093F9038D819E81AF81B88580936C
:103BA000FB039093FC03A093FD03B093FE03898570
:103BB0009A85AB85BC858093FF0390930004A09306
:103BC0000104B0930204AC960FB6F894DEBF0FBEAA
:103BD000CDBFDF91CF911F910F91FF90EF90DF90BC
:103BE000CF90BF90AF909F908F9008958DEF0E94DF
:103BF000070398E0A92E92E0B92E0E940C03F1E091
:103C0000AF1AB108D1F788CF2AEA31E040E050E09E
:103C100068E086E996E00E94430314E0853041F5B0
:103C200000939B0680919B06812C912C540182303D
:103C300029F4812C912CA12C80E4B82E20E030E0D6
:103C4000A90167E386E996E00E944303A501940178
:103C500069E286E996E00E9443038823B9F00E9456
:103C6000E7026C197D09613D774040F383E464CF3E
:103C70000E940C0380939A061150D1F78A3A21F4DE
:103C800082E080939B06CECF85E256CF80919B0643
:103C90008230D1F420E030E0A9016AE386E996E0C1
:103CA0000E944303882311F087E346CF0E940C0350
:103CB000807C803C19F483E080939B060E940C0377
:103CC0000E940C030E940C0386E996E00E942E03DA
:103CD000E0919706F091980680E5808381E08183EA
:103CE00086E996E09093500480934F0486E796E02F
:103CF0000E94690881E00E94CC04882391F06FE45F
:103D000074E086E796E00E94950C882309F41ACFA8
:103D100080917606807709F415CF81E08093520177
:103D200011CF80E00E94CC048111E9CF0BCF1F920C
:103D30000F920FB60F9211242F933F934F935F93DF
:103D40006F937F938F939F93AF93BF93EF93FF9363
:103D500086E593E00E944501FF91EF91BF91AF91FD
:103D60009F918F917F916F915F914F913F912F9193
:103D70000F900FBE0F901F9018951F920F920FB6C5
:103D80000F9211242F938F939F93EF93FF93E091C2
:103D90006603F09167038081E0916C03F0916D03FD
:103DA00082FD1BC0908180916F038F5F8F73209184
:103DB0007003821741F0E0916F03F0E0EA5AFC4F84
:103DC000958F80936F03FF91EF919F918F912F912A
:103DD0000F900FBE0F901F9018958081F4CF1F9207
:103DE0000F920FB60F9211242F933F938F939F93AF
:103DF000AF93BF9380912F0190913001A091310139
:103E0000B091320130912E0123E0230F2D3758F568
:103E10000196A11DB11D20932E0180932F01909337
:103E20003001A0933101B093320180913301909120
:103E30003401A0913501B09136010196A11DB11D4B
:103E40008093330190933401A0933501B0933601F0
:103E5000BF91AF919F918F913F912F910F900FBE86
:103E60000F901F90189526E8230F0296A11DB11DF3
:103E7000D2CF1F920F920FB60F9211242F933F9320
:103E80004F935F936F937F938F939F93AF93BF9362
:103E9000EF93FF93E0912C01F0912D010995FF9193
:103EA000EF91BF91AF919F918F917F916F915F91B2
:103EB0004F913F912F910F900FBE0F901F9018952B
:103EC000E6E5F3E01382128288EE93E0A0E0B0E032
:103ED00084839583A683B78325E031E031832083F3
:103EE00025EC30E03587248724EC30E037872687BF
:103EF00020EC30E0318B208B21EC30E0338B228BB7
:103F000022EC30E0358B248B26EC30E0378B268B8F
:103F1000118E128E138E148E109254041092760607
:103F20001092770624E62093960610929B0620E5D1
:103F300020939C0610929D06E3E2F4E01486158619
:103F40001382128284839583A683B78327E131E0AD
:103F500031832083E7EFF3E0148615861382128203
:103F600084839583A683B783318320838CE791E094
:103F70009093F6038093F5038FE392E09093F4031C
:103F80008093F3030895CF93DF93CDB7DEB7C25D7F
:103F9000D1090FB6F894DEBF0FBECDBF789484B5BB
:103FA000826084BD84B5816084BD85B5826085BD35
:103FB00085B5816085BD80916E00816080936E00C3
:103FC00010928100809181008260809381008091B5
:103FD0008100816080938100809180008160809366
:103FE00080008091B10084608093B1008091B00026
:103FF00081608093B00080917A00846080937A0021
:1040000080917A00826080937A0080917A0081604A
:1040100080937A0080917A00806880937A00109271
:10402000C1000E946B1C28EB30E02C0F3D1F295F64
:104030003F4FC353DF4F39832883CD5CD04088E5A1
:1040400090E08C0F9D1F4996C153DF4F9983888361
:10405000CF5CD040A8E9B0E0AC0FBD1F1296CF52A4
:10406000DF4FB983A883C15DD040F8EB6F2E712C70
:104070006C0E7D1EBFEF6B1A7B0A8091550181117A
:104080000C94EF2D10E086E593E00E942501892B2A
:1040900009F04CC080915101813041F599B183B153
:1040A00026B138B18170307F832B30E073E03595D5
:1040B00027957A95E1F726703327822B990F987010
:1040C000892B88B92BB189B190E0E5E0959587956A
:1040D000EA95E1F7827099272D7F822B8BB90E9498
:1040E000B60011E08438934074F2CCCF26B189B188
:1040F00090E063E0959587956A95E1F7322F3071EE
:1041000024FF12C08F7098B1907F892B88B92BB192
:104110002D7F332339F089B190E095958795827092
:104120009927282B2BB9DBCF8E70EDCF112379F097
:104130008091C100877F8093C10088B1807F88B95A
:10414000599887B18F6087B9519A0E94C70B86E54D
:1041500093E00E940301C854DF4F8883C85BD040BE
:10416000883108F058C1863108F062C58C3009F4F6
:1041700081C260F5833009F45FC2A0F4882311F492
:104180000C94EB2D813009F43FC280E090E0892B44
:1041900009F473CF0E943101882309F466CF0E948D
:1041A000000063CF893009F454C28A3071F785E288
:1041B00091E00E94941286E796E00E9469086FE4FD
:1041C00074E086E796E00E94950CDFCF803111F411
:1041D0000C94172908F0D1C08D3009F4A3C28E3099
:1041E000A1F662E086E591E00E94E80A882369F280
:1041F00080915201E6EEF2E092E2DF011D929A9583
:10420000E9F7882309F4C8C480912F04882321F09A
:104210008FE294E00E946908409156015091570145
:10422000CA0101978E3F9F4F08F094C270E060E092
:1042300025E0440F551F661F771F2A95D1F783E0AD
:1042400094E00E94A20764E170E080E090E00E94A8
:10425000B50280912F04882321F08FE294E00E9420
:1042600069084091560150915701CA0101978E3F4C
:104270009F4F08F0E4C370E060E0E5E0440F551F95
:10428000661F771FEA95D1F783E094E00E94A207AA
:1042900083E094E00E94891310912F0418708FE23C
:1042A00094E00E9469081111EDC310E000E034E7CA
:1042B000C32E32E0D32E47E7A42E42E0B42E83E093
:1042C00094E00E948913882309F4DEC30D3F110591
:1042D00008F0DAC380912F04982F907709F448C032
:1042E00081FD46C066E572E08FE294E00E94E1063F
:1042F00066E572E085E592E00E94A01A8823C1F18C
:104300004FE150E066E572E08FE294E00E94F01326
:104310008091560290E00E94CD308093560227E5AE
:10432000E22E22E0F22ED7018D917D0190E00E94D5
:10433000C530F70131978083CE14DF04A1F7809157
:104340003304909134049093760280937502109216
:10435000740295E5E92E92E0F92E6DE1F701819165
:104360007F010E94940BAE14BF04B9F70F5F1F4F7B
:104370008FE294E00E946908A2CF843108F429C535
:10438000843109F002CF61E0C3010E94E80A88236A
:1043900009F4FBCEC754DF4FB880C95BD04031E091
:1043A000B3122BC0109248011092470160E070E0F8
:1043B000CB010E9463084FE150E066E571E08FE2B7
:1043C00094E00E94230E80915C0190915D01892B05
:1043D00009F485C78091620185FFE1C782E080937F
:1043E00045018EE190E0A0E0B0E080933B01909326
:1043F0003C01A0933D01B0933E0180914501823084
:1044000009F4D9C708F0D2C7813009F4E0C730E118
:10441000B312BBCEE9C0843211F40C946D2D08F0B8
:1044200082C0803211F40C94002C08F059C08831FD
:1044300009F419C78E3109F0A8CE62E086E592E052
:104440000E94E80A882309F4A0CE80915602909138
:1044500057020E946113882309F497CE67E572E042
:104460008FE294E00E94E10667E572E086E592E063
:104470000E94A01A882309F4B7C0809156028032A6
:1044800011F40C94432B08F0C4C78151833008F019
:10449000ABC066E070E080E090E00E9463088FE2CD
:1044A00094E00E947219809358028FE294E00E9477
:1044B00072198093590290915802911104C0882377
:1044C00011F40C948C2A6DE18FEF0E94940B6DE136
:1044D0008FEF0E94940B6DE18FEF0E94940B84C0CC
:1044E000823211F40C946D2D833209F04ECE61E0CE
:1044F000C3010E94E80AC754DF4F1881C95BD0404E
:10450000882309F442CE60913F0470914004809169
:1045100041049091420440EB51E00E943C0F103165
:1045200009F033CE61C08D3E09F46AC008F061C065
:10453000863211F40C946D2D803309F026CE61E0A3
:10454000C3010E94E80A882309F41FCE8091530119
:10455000882309F41ACE80915201882309F415CEDC
:10456000C754DF4FB880C95BD040AA24AA94AB0CD3
:10457000CA2CD12CF12CE12C65E070E080E090E0B9
:104580000E94B5025FE0CC0CDD1CEE1CFF1C5A95AE
:10459000D1F760E4962E10E000E040E052E0C70161
:1045A000B6010E943C0FE6E5F1E08191080F111D74
:1045B00023E0E635F207C9F79A9432E0D30EE11C06
:1045C000F11C9110EACF0B0D111D6DE18B2D0E9496
:1045D000940B6DE1802F0E94940B6DE1812F0E945E
:1045E000940B8FE1A812D1CD8FE294E00E9469086C
:1045F000CCCD8F3E11F40C94E72D833F09F0C5CD4F
:1046000061E00E94270BC1CD65E070E080E090E0A2
:104610000E94B50243EEE42E40E0F42E0BEE10E0D3
:10462000F70184916DE10E94940BFFEFEF1AFF0AEE
:104630000E151F05A9F7A9CD61E086E591E00E945E
:10464000E80A882309F4A1CD8091560180930001E6
:104650009CCD62E086E591E00E94E80A882309F497
:1046600094CD80915601909157010E9461138093DF
:1046700053018BCD62E086E591E00E94E80A882331
:1046800009F483CD80912F04882321F08FE294E0F8
:104690000E94690880912F04882319F01092530119
:1046A00074CD809103048077C9F380915601909175
:1046B00057010E940413882389F340E450E066E523
:1046C00071E08FE294E00E94F01386E591E00E9491
:1046D000941280935301882309F457CD19821A82CA
:1046E000809156018F3229F480915701882309F473
:1046F00062CD46E551E066E776E0CE0101960E9484
:10470000E610882309F441CD8981807709F43DCDF5
:1047100080E2FE013196A6E7B6E001900D928A95FF
:10472000E1F733CD40E051E066E571E083E094E0ED
:104730000E94F01336E5E32E31E0F32E06E512E099
:104740006DE1D7018D917D010E94940B0E151F051F
:10475000B9F71BCD0E94100CC0905601D0905701A4
:10476000C114D10409F06FCDC856DF4F19821882E9
:10477000C859D0408EE1CF52DF4FE881F981C15D49
:10478000D040282F11922A95E9F7FE01E85AFF4FF1
:1047900011921192DF011D928A95E9F78FEF9FEF39
:1047A0009093F1028093F002F12CE12CB12CA12C1A
:1047B0005524539401E010E0FE0131964F019DE035
:1047C000292E312C83E094E00E948913882371F014
:1047D000053EF8E01F0750F480912F04982F907742
:1047E00051F58FE294E00E946908ECCF0E94100C12
:1047F0009E012F5F3F4F49018DE0282E312C83E031
:1048000094E00E948913882329F0053EB8E01B0735
:1048100008F473C0B5016F5F7F4FC60101960E9417
:104820009C306930710508F0DAC06530710508F414
:1048300003C181E0D5C081FDD4CF68E073E08FE291
:1048400094E00E94E10669E073E088E093E00E9452
:10485000A01A882331F2C0903304D0903404C801E8
:104860006DEF70E00E949C30892B49F4E52DF0E05B
:10487000EE0FFF1FE051FD4FD182C08253940F5FB6
:104880001F4F4CE450E0B4018FE294E00E94F0131B
:10489000D4010D900020E9F7CD01881999090B96F4
:1048A000B1010E949C30A60EB71E8FE1F401DE011B
:1048B000A856BF4F01900D928A95E1F7C954DF4F7A
:1048C0001882C75BD040BE01685A7F4FCE01885620
:1048D0009F4F0E94EB3097012F5F3F4F97FD97014D
:1048E00080E2FE01E856FF4FDE01A85ABF4F01905B
:1048F0000D928A95E1F7790174CF80912F0483FF9F
:1049000069C081FD67C068E073E08FE294E00E94B7
:10491000E10669E073E088E093E00E94A01A882332
:1049200009F458C04CE450E0B4018FE294E00E94D6
:10493000F013C0903304D0903404C8016DEF70E0E0
:104940000E949C30892B49F4E52DF0E0EE0FFF1F0B
:10495000E051FD4FD182C08253940F5F1F4F4CE452
:1049600050E0B4018FE294E00E94F013F401019052
:104970000020E9F7CF01881999090B96B1010E942F
:104980009C30A60EB71E8FE1F401DE01A856BF4F82
:1049900001900D928A95E1F7C954DF4F1882C75BE9
:1049A000D040BE01685A7F4FCE0188569F4F0E946B
:1049B000EB3097012F5F3F4F97FD970180E2FE019B
:1049C000E856FF4FDE01A85ABF4F01900D928A951D
:1049D000E1F779018FE294E00E94690810CF82E04C
:1049E00080930203B7016F5F7F4FC80101960E9459
:1049F0009C3082E06930710540F46530710538F013
:104A000080910203811103C081E0809302035092E0
:104A1000E80201501109C80167E170E00E949C3072
:104A20006F5F6093E902C8016DEF70E00E949C30F7
:104A30008F5F8093EA0207CC10920203D3CF0E94CB
:104A4000100CE7E5F2E080E2DF011D928A95E9F7BC
:104A50008CE0809355028EE2809356028093570239
:104A600055E5E52E52E0F52E07E712E06DE1F7017E
:104A700081917F010E94940B0E151F05B9F701E08B
:104A800010E015CC10E000E0409156015091570124
:104A9000CA0101978E3F9F4F08F07BC070E060E035
:104AA00085E0440F551F661F771F8A95D1F783E075
:104AB00094E00E94A207B7E7CB2EB2E0DB2E83E0A2
:104AC00094E00E948913882309F4A2C00D3F1105C8
:104AD00008F09EC080912F0483FF56C081FD54C012
:104AE00066E572E08FE294E00E94E10666E572E01E
:104AF00085E592E00E94A01A882309F445C04FE1A1
:104B000050E066E572E08FE294E00E94F01380913D
:104B1000560290E00E94CD3080935602A7E5EA2E1F
:104B2000A2E0FA2ED7018D917D0190E00E94C53060
:104B3000F70131978083B4E7EB16B2E0FB0691F7FB
:104B4000E6E5F2E001900020E9F7E755F240FF27A3
:104B5000EE5AFD4F108210927402809133049091AE
:104B600034049093760280937502F5E5EF2EF2E01F
:104B7000FF2E6DE1F70181917F010E94940BCE140D
:104B8000DF04B9F70F5F1F4F8FE294E00E946908BE
:104B900096CF0E94100C8FCF64E170E080E090E02F
:104BA0000E94B5028091560190915701892B41F4E2
:104BB0008CE08093E6028EE28093E7028093FB0212
:104BC000E6EEEE2EE2E0FE2E08E013E06DE1D70106
:104BD0008D917D010E94940B0E151F05B9F7E6EE2D
:104BE000F2E082E2DF011D928A95E9F78FEF809370
:104BF000F0028093F10281E08093E8028093E90261
:104C00008093EA0264E170E080E090E00E94B502E7
:104C100076EEE72E72E0F72E08E013E06DE1F70183
:104C200081917F010E94940B0E151F05B9F7ADCA43
:104C300061E0C3010E94E80A882309F4A6CAC754A8
:104C4000DF4F2881C95BD0402930C1F060F42130AA
:104C500008F09CC0C754DF4F8881C95BD0408A30C0
:104C600009F093CAC1CC40E052E06BE17EE380E002
:104C700090E02A3079F70E943C0FECCFC854DF4F08
:104C80001881C85BD0404BE150E060E070E0CB01A0
:104C90000E943C0F173109F06AC042E050E06BE11E
:104CA00070EC80E090E00E943C0F41E050E06DE14C
:104CB00070EC80E090E00E943C0F8091560187707C
:104CC0001092490191E090934A0192E0811193E0A2
:104CD00090934B0192E0813019F093E0811194E0C0
:104CE00090934C0192E0833021F094E0823008F000
:104CF00095E090934D0192E0843031F0843018F4C7
:104D000095E0823009F496E090934E0192E086306F
:104D100031F0853018F496E0823009F497E09093F2
:104D20004F01873079F1853079F1823069F187E080
:104D30008093500184E00E94C40B88E0173121F079
:104D400083E0163109F081E00E94C40B01E110E01C
:104D500080E00E94C40B01501109D1F70FE010E070
:104D60008FEF0E94C40B01501109D1F773CF80E07F
:104D70000E94C40B80E00E94C40B80E30E94C40B1D
:104D800080E09ECF82E0D4CF88E0D2CFE22FF0E067
:104D9000E85BFE4F3081632F70E090E080E04EE0F2
:104DA000660F771F881F991F4A95D1F7333060F43B
:104DB000655E7F4F8F4F9F4F40E05EE3213009F4E7
:104DC0005ACF40E050E457CF615E7F4F8F4F9F4FE7
:104DD000F3CF61E0C3010E94E80A882309F4D5C932
:104DE000C754DF4F1881C95BD040193009F472C035
:104DF00008F05CC0113008F42DCFC854DF4F888113
:104E0000C85BD040833109F03FC1812F8150990B9D
:104E1000FC01EE53FF4F049180914501833008F06F
:104E200069C1823009F03AC160E070E4113071F478
:104E30008EE190E0A0E0B0E080933B0190933C01D4
:104E4000A0933D01B0933E0160E07EE301E027E4E2
:104E500031E048E451E08BE391E00E94B919113050
:104E600009F0F8CE80913B0190913C01A0913D0169
:104E7000B0913E018093410190934201A093430180
:104E8000B093440180914801809340018091470193
:104E900080933F011093460100E027E431E048E4AD
:104EA00051E060E072E08BE391E011C01A3009F04C
:104EB000D1CE80914601882309F4DBC001E02FE3C5
:104EC00031E040E451E060E072E081E491E00E9472
:104ED000B919C0CE109248011092470110924601B4
:104EE00060E070E0CB010E94630847E550E0BE013E
:104EF0006F5F7F4F8FE294E00E94230E4AEC50E0F8
:104F0000DE01A85ABF4FFA01849121E030E02C0F56
:104F10003D1F280F311DF90180818D934F5F5F4F39
:104F2000C153DF4F28813981CF5CD0402A173B071E
:104F300051F78C8D811184E0AC968FAFAC973D8595
:104F4000832F90E02C8530FB27F9AD962FAFAD97DE
:104F50002E8D2370E2962FAFE297959587958770F7
:104F6000E3968FAFE39780E3E6968FAFE69784E012
:104F7000E7968FAFE7979F818885292F282B09F423
:104F800041C0E4969FAFE497E5968FAFE59783E045
:104F9000E8968FAFE89782E035FF81E08093450186
:104FA00090914501A8E5B0E0AC0FBD1F9096FE01C1
:104FB00031969E012D5E3F4F80E0973108F086A12B
:104FC0008D933196E217F307B9F7E8E5F0E0EC0FBF
:104FD000FD1FF19628E530E02C0F3D1F215C3F4F6F
:104FE0008FEF81932E173F07E1F7C956DF4F888374
:104FF000C759D04060E470E0CE01885A9F4F0E94AC
:10500000B00B28CE8F8D8093450199A1E4969FAF78
:10501000E4979AA1E5969FAFE597863329F1873308
:10502000E9F0873139F48BA1833008F583E0E89605
:105030008FAFE897E8968FADE897883021F49CA170
:10504000E6969FAFE6979EA197FFAACF833009F01F
:10505000A7CF81E0E8968FAFE897A2CF68968FAD93
:105060006897E7968FAFE7978BA18430F8F288E0D6
:10507000DECF609141017091420180914301909196
:10508000440140E052E0F7CD04E0123009F4C4CE10
:1050900008E0133009F0C0CE05E0BECE1230E1F0DA
:1050A000133009F1113009F0D5CD40E05EE36EE137
:1050B00070E080E090E00E943C0F8EE19EE3A0E073
:1050C000B0E08093410190934201A0934301B093DB
:1050D000440110924601BECD40E050E46EE170E420
:1050E00080E090E0C8CD40E050E46EE170E880E000
:1050F00090E0C1CDC82ED12C90E2C90ED11C0D2C50
:10510000000CEE08FF08D701C6010396A11DB11DD2
:1051100080933B0190933C01A0933D01B0933E01ED
:1051200080913F0490914004A0914104B0914204C9
:10513000C816D906EA06FB0621F0C701B6010E948F
:1051400063088FE294E00E9472195C018FE294E0A0
:105150000E947219C653DF4F8883CA5CD040C75380
:10516000DF4F1882C95CD040C753DF4FA881B98197
:10517000C95CD040AA0EBB1E16012701BFEFAB16BB
:10518000BB0621F5E0E43E0E411C511C7201610199
:10519000F3E0CF0ED11CE11CF11C8FE294E00E94E1
:1051A00072190813B0CF113009F0D0C560E07EE36A
:1051B000AB20A09481F4C201B1016D5F7F438109EE
:1051C000910940E05EE30E943C0F15C02A0C3B1C95
:1051D000411C511CDBCF109248011092470101E0A5
:1051E00027E431E048E451E08BE391E00E94B919F3
:1051F000113009F02FCD80913B0190913C01A0919D
:105200003D01B0913E018093410190934201A093F2
:105210004301B09344018091480180934001809103
:10522000470180933F0181E08093460113CD61E007
:10523000C3010E94E80A882311F40C94C520C754C6
:10524000DF4F1881C95BD04060913F0470914004EA
:10525000809141049091420411115DC940E05BE1ED
:105260000E943C0FC1C961E0C3010E94E80A882383
:1052700011F40C94C520C754DF4F1881C95BD0408E
:10528000113009F040C98091470490914804A091E1
:105290004904B0914A048B31904CA105B10539F411
:1052A0006BE170E090E080E00E9463082CC96DE142
:1052B00070EC80E090E00E9463088FE294E00E942E
:1052C000721983FFEDCF877099276BE170E807971C
:1052D00049F360914704709148047054E3CF84E02F
:1052E00080934501C0907401D12C80E2C80ED11C7E
:1052F0000D2C000CEE08FF08D701C6010396A11D76
:10530000B11D80933B0190933C01A0933D01B0936C
:105310003E0180913F0490914004A0914104B091DE
:105320004204C816D906EA06FB0621F0C701B601F9
:105330000E9463088FE294E00E9472198C018FE250
:1053400094E00E947219C453DF4F8883CC5CD04034
:10535000C553DF4F1882CB5CD040C553DF4FA881C7
:10536000B981CB5CD0400A0F1B1F0F3F1007C9F457
:10537000E0E4DE0EE11CF11CF3E0CF0ED11CE11CD9
:10538000F11C8FE294E00E947219883009F0B4CFCA
:105390000F3F1F4F81F483E0809345012EC881E0C9
:1053A0001EC8C00ED11EE11CF11CE6CF833079F07F
:1053B000843009F02CC801E027E431E048E451E0F2
:1053C00060EB71E08BE391E00E94B91920C8609115
:1053D0003B0170913C0180913D0190913E0140EB79
:1053E00051E00E943C0F80913B0190913C01A091C3
:1053F0003D01B0913E0180559E4FAF4FBF4F80930E
:105400003B0190933C01A0933D01B0933E010C946D
:105410000722803309F0E8C88FEF8093620260EEC4
:105420007FE380E090E00E94630848E050E06AE596
:1054300072E08FE294E00E94230E80915A02863738
:1054400051F410915C021E3209F499C010915D0272
:105450001E3209F4B9C08FEF80935A0269E070E000
:105460008AE592E00E94B00B8091620281508E3FEB
:1054700008F0BAC865E070E080E090E00E94B502F4
:1054800011E000E283E0F82E80916202811708F4B7
:10549000F4C080915802853040F04FE150E060E068
:1054A00070E08FE294E00E94FC0B809158028430FF
:1054B00009F0BBC041E250E063E672E08FE294E0A5
:1054C0000E94230E10928402F092850210928702AD
:1054D00045E651E060E070E08FE294E00E94FC0B52
:1054E00064E270E083E692E00E94B00B8091580283
:1054F000853009F0BDC08091590244E450E060E07D
:1055000070E0882321F04FE350E060E070E08FE22C
:1055100094E00E94FC0BAFC06EE170E080E090E090
:105520000E9463088FE294E00E94721980935802EF
:1055300062E270E080E090E00E9463088FE294E015
:105540000E9472198093590265E270E080E090E059
:105550000E9463088FE294E00E94721980935A02BD
:105560006DE1809158020E94940B6DE18091590287
:105570000E94940B6DE180915A020C946D2210925E
:105580005C028BE592E00E94B32E809358028DE579
:1055900092E00E94B32E8093590210935C02809196
:1055A0005802853051F108F5843009F057CF64E88E
:1055B0007CE180E090E00E9463088FE294E00E942A
:1055C0007219809362024ACF10925D028BE592E0DD
:1055D0000E94B32E809358028EE592E00E94B32E73
:1055E0008093590210935D02DACF8F3F08F036CFD7
:1055F00060E07EE080E090E0DECF80915902811192
:105600000FC060E07AE080E090E00E9463088FE2E3
:1056100094E00E947219809362028F3F09F01ECFBE
:1056200060E07CE080E090E0C6CF83E294E00E94FE
:10563000891942E050E063E672E08FE294E00E9454
:10564000230E009365024EE150E066E672E08FE2C1
:1056500094E00E94230E83E294E00E94891943E0C3
:1056600050E064E872E08FE294E00E94230E38CFAD
:10567000843009F048CF1F5F07CF88B18F6088B9A9
:10568000599A0C94F42264E070E080E090E00E946B
:1056900063084AE050E068E572E08FE294E00E941F
:1056A000230E109262021092630210926402109212
:1056B0006502C0906202D0906302E0906402F090B4
:1056C00065028091470490914804A0914904B091EB
:1056D0004A04C816D906EA06FB0608F08FC083E222
:1056E00094E00E94DD0B892B09F488C0C701B60144
:1056F0000E94630842E050E06AE672E08FE294E0C4
:105700000E94230E80916A0290916B02439709F0E8
:1057100049C08FE294E00E9472198093680281115F
:1057200041C08FE294E00E94721980936802833036
:1057300041F44CE050E060E070E08FE294E00E94C1
:10574000FC0B42E050E060E772E08FE294E00E94E0
:10575000230E80917002909171028115904411F591
:1057600046E050E060E070E08FE294E00E94FC0BC5
:1057700081E080935702E8E5F2E022E632E090E231
:1057800081918052803618F0DF0111979C932E177B
:105790003F07B1F76BE070E087E592E00E94B00B45
:1057A0000C94C52080916A0290916B0282309B41DB
:1057B000E1F08091620290916302A0916402B09145
:1057C00065020296A11DB11D20916A0230916B0203
:1057D000820F931FA11DB11D8093620290936302FB
:1057E000A0936402B093650264CF8FE294E00E94BC
:1057F0007219809368028F3FE1F6BACF80E0B9CF8B
:1058000065E0C3010E94E80A882311F40C94C520C6
:1058100065E070E080E090E00E94B50280913F0476
:1058200090914004A0914104B09142040396A11DBF
:10583000B11D8093370190933801A0933901B09343
:105840003A01409147045091480460914904709195
:105850004A04481759076A077B0788F460E070E03C
:10586000CB010E94630883E090E0A0E0B0E0809369
:10587000370190933801A0933901B0933A0142E087
:1058800050E0C353DF4F68817981CD5CD0408FE217
:1058900094E00E94230EC154DF4F88819981CF5B31
:1058A000D0400297C154DF4F99838883CF5BD040AB
:1058B0008FE294E00E947219C254DF4F8883CE5B5E
:1058C000D040C754DF4F9881C95BD040891759F148
:1058D0008FEFCF53DF4F8883C15CD040CE53DF4F73
:1058E00019821882C25CD040CC53DF4F19821882D3
:1058F000C45CD04065E070E088EB90E08C0F9D1FA9
:1059000009960E94B00BC154DF4F48815981CF5B8B
:10591000D0404F5F5F4F70E060E08FE294E00E9404
:10592000FC0B0C94C520CA53DF4F19821882C65C49
:10593000D040C654DF4F28813981CA5BD040C15462
:10594000DF4F88819981CF5BD0402817390709F054
:105950009FC0CF53DF4F1882C15CD040CE53DF4F82
:1059600039832883C25CD040C454DF4F28813981F9
:10597000CC5BD040CC53DF4F39832883C45CD0400C
:10598000211590E4390770F54091370150913801A5
:105990006091390170913A01CE53DF4F888199812E
:1059A000C25CD040820F931F9054CE53DF4F998337
:1059B0008883C25CD04080E090E4DC01A21BB30B82
:1059C0004A0F5B1F611D711D4093370150933801D1
:1059D0006093390170933A01CC53DF4F99838883E8
:1059E000C45CD040CE53DF4F28813981C25CD040A7
:1059F000CC53DF4F88819981C45CD0404427552720
:105A0000421B530B4817590788F4280F391FCA53F4
:105A1000DF4F39832883C65CD040919581959109E9
:105A2000CE53DF4F99838883C25CD04065E070E03D
:105A300088EB90E08C0F9D1F09960E94B00B8BE8BD
:105A400091E00197F1F7CE53DF4F48815981C25C55
:105A5000D040609137017091380180913901909167
:105A60003A010E943C0FCA53DF4F48815981C65CFE
:105A7000D0404115510531F070E060E08FE294E0D4
:105A80000E94FC0B83E294E00E9489190C94C520CB
:105A900028173907A8F441E0CF53DF4F4883C15C92
:105AA000D040CE53DF4F39832883C25CD040821B65
:105AB000930BCA53DF4F99838883C65CD04054CF81
:105AC00022E0CF53DF4F2883C15CD040CE53DF4F5D
:105AD00099838883C25CD04047CF91E0823209F03D
