:100000000C9462000C948A000C948A000C948A0070
:100010000C948A000C948A000C948A000C948A0038
:100020000C948A000C948A000C948A000C948A0028
:100030000C948A000C948A000C948A000C948A0018
:100040000C94E71B0C948A000C94B51B0C948F1B2A
:100050000C948A000C948A000C948A000C948A00F8
:100060000C948A000C948A000000000024002700F1
:100070002A0000000000250028002B0000000000DE
:1000800023002600290004040404040404040202DA
:100090000202020203030303030301020408102007
:1000A0004080010204081020010204081020000012
:1000B0000008000201000003040700000000000027
:1000C0000000311C11241FBECFEFD8E0DEBFCDBF32
:1000D00011E0A0E0B1E0EAE0F1E502C005900D9288
:1000E000AE36B107D9F726E0AEE6B1E001C01D9209
:1000F000AA3DB207E1F710E0C2E6D0E004C02197C4
:10010000FE010E944E28C136D107C9F70E94881C03
:100110000C9483280C940000AF92BF92CF92DF9290
:10012000EF92FF920F931F93CF93DF936C017B01AC
:100130008B01040F151FEB015E01AE18BF08C0173D
:10014000D10759F06991D601ED91FC910190F081B0
:10015000E02DC6010995892B79F7C501DF91CF9173
:100160001F910F91FF90EF90DF90CF90BF90AF90D5
:100170000895FC01538D448D252F30E0842F90E0AD
:10018000821B930B541710F0CF9608950197089592
:10019000FC01918D828D981761F0A28DAE0FBF2F5B
:1001A000B11D5D968C91928D9F5F9F73928F90E0B1
:1001B00008958FEF9FEF0895FC01918D828D981720
:1001C00031F0828DE80FF11D858D90E008958FEF5D
:1001D0009FEF0895FC01918D228D892F90E0805C26
:1001E0009F4F821B91098F739927089585E993E0AA
:1001F0000E94EA0021E0892B09F420E0822F089573
:1002000080E090E0892B29F00E94F60081110C9487
:1002100000000895FC01A48DA80FB92FB11DA35AA9
:10022000BF4F2C91848D90E001968F739927848F16
:10023000A689B7892C93A089B1898C918370806439
:100240008C93938D848D981306C00288F389E02DDA
:1002500080818F7D80830895EF92FF920F931F938B
:10026000CF93DF93EC0181E0888F9B8D8C8D981369
:100270001AC0E889F989808185FF15C09FB7F89475
:10028000EE89FF896083E889F989808183708064C1
:1002900080839FBF81E090E0DF91CF911F910F910C
:1002A000FF90EF900895F62E0B8D10E00F5F1F4F1B
:1002B0000F731127E02E8C8D8E110CC00FB607FC2A
:1002C000FACFE889F989808185FFF5CFCE010E94B8
:1002D0000A01F1CFEB8DEC0FFD2FF11DE35AFF4F1B
:1002E000F0829FB7F8940B8FEA89FB898081806246
:1002F000CFCFCF93DF93EC01888D8823B9F0AA8903
:10030000BB89E889F9898C9185FD03C0808186FDD0
:100310000DC00FB607FCF7CF8C9185FFF2CF80811F
:1003200085FFEDCFCE010E940A01E9CFDF91CF9189
:100330000895833081F028F4813099F08230A9F05B
:1003400008958730A9F08830C9F08430B1F48091E5
:1003500080008F7D03C0809180008F778093800024
:10036000089584B58F7784BD089584B58F7DFBCFC4
:100370008091B0008F778093B00008958091B00095
:100380008F7DF9CFCF93DF93282F30E0F901E2552D
:10039000FF4F8491F901E656FF4FD491F901EA57D6
:1003A000FF4FC491CC23A1F081110E949901EC2F41
:1003B000F0E0EE0FFF1FE458FF4FA591B491EC91D0
:1003C000ED2381E090E009F480E0DF91CF91089582
:1003D00080E090E0FACF1F93CF93DF93282F30E097
:1003E000F901E255FF4F8491F901E656FF4FD49190
:1003F000F901EA57FF4FC491CC23A9F0162F8111C0
:100400000E949901EC2FF0E0EE0FFF1FEE58FF4F16
:10041000A591B4918FB7F894EC91111108C0D095C3
:10042000DE23DC938FBFDF91CF911F910895DE2BE8
:10043000F8CFCF93DF9390E0FC01E656FF4F249175
:100440008A579F4FFC0184918823C9F090E0880F60
:10045000991FFC01E859FF4FA591B491FC01EE589A
:10046000FF4FC591D49161110DC09FB7F8948C9145
:10047000209582238C938881282328839FBFDF9136
:10048000CF910895623051F49FB7F8943C91822F38
:10049000809583238C93E8812E2BEFCF8FB7F89430
:1004A000EC912E2B2C938FBFEACF3FB7F89480911D
:1004B000740190917501A0917601B091770126B5F4
:1004C000A89B05C02F3F19F00196A11DB11D3FBF8C
:1004D000BA2FA92F982F8827BC01CD01620F711D5B
:1004E000811D911D42E0660F771F881F991F4A9555
:1004F000D1F708958F929F92AF92BF92CF92DF92E1
:10050000EF92FF924B015C010E9455026B017C014E
:100510000E9455026C197D098E099F09683E73403F
:1005200081059105A8F321E0821A9108A108B1087C
:1005300088EEC80E83E0D81EE11CF11C81149104E2
:10054000A104B10429F7FF90EF90DF90CF90BF9006
:10055000AF909F908F9008952FB7F894609170019D
:100560007091710180917201909173012FBF089574
:10057000CF92DF92EF92FF92CF93DF930E94AC0273
:10058000D0E0C1E06B017C0128EEC20E23E0D21E58
:10059000E11CF11CCC23D9F00E94AC026C157D0546
:1005A0008E059F05A0F485E993E00E94EA00892B5F
:1005B00089F385E993E00E94C800C82FED2FF0E091
:1005C000EB56FE4F8083DF5F0E94AC02DBCF81E001
:1005D000C11180E0DF91CF91FF90EF90DF90CF903D
:1005E0000895CF93DF93EC01E981FA8190818181B5
:1005F0009CBD8DBDE981FA8160E082810E94EB01A2
:1006000081E08B83DF91CF9108958EBD0DB407FEFD
:10061000FDCF08958FEF8EBD0DB407FEFDCF8EB5D3
:1006200008950F931F93CF93DF93EC010E94AC02C8
:100630008B010E940A038F3F69F00E94AC02601B8D
:10064000710BC617D707A8F780E0DF91CF911F91F4
:100650000F91089581E0F9CFCF93DF93FC012381BF
:10066000222361F0EC010180F281E02D61E08281C2
:100670000E94EB018FEF0E9405031B82DF91CF9157
:100680000895DF92EF92FF920F931F93CF93DF9322
:100690008C01C62FD22FF32EE42ED52EFC018381A0
:1006A000811103C0C8010E94F102CC2321F08CE229
:1006B00091E00E9411038C2F80640E9405038D2D10
:1006C0000E9405038E2D0E9405038F2D0E940503B5
:1006D0008D2F0E94050387E8C11101C085E90E94A2
:1006E00005030E940A03CBE00E940A03F8018483F9
:1006F00087FF02C0C150C1F7DF91CF911F910F91C9
:10070000FF90EF90DF9008950F931F93CF93DF93A7
:10071000EC0189018D81833039F089E0440F551F48
:10072000661F771F8A95D1F79A01AB0168E1CE0168
:100730000E944103882319F082E3888339C08EEF39
:100740000E940503F80180818EBD818132961E5F73
:100750000DB407FEFDCF8EBDE017F10711F08191BA
:10076000F7CF0DB407FEFDCF8FEF0E9405038FEF8B
:100770000E9405030E940A038C838F71853099F4CF
:1007800080ED97E00E941103182F8AE51123A9F24A
:1007900020E030E0A9016DE0CE010E9441038823F2
:1007A00061F089E2CACF87E58883CE010E942C03DD
:1007B000CE010E942C0310E007C00E940A038111A1
:1007C000F0CFCE010E942C03812FDF91CF911F919A
:1007D0000F910895EF92FF920F931F93CF93DF93A2
:1007E000EC0179018D81833039F089E0440F551F88
:1007F000661F771F8A95D1F79A01AB0161E1CE019F
:100800000E944103882339F080E38883CE010E944F
:100810002C0380E037C00E94AC028B010E940A03C7
:100820008C838F3F69F40E94AC02601B710B693EA0
:100830007340A0F385E58883CE010E942C03E6CFA8
:100840008E3F11F080E5F7CF8FEF8EBDF701D70116
:10085000A150BE4F9FEF0DB407FEFDCF8EB59EBDDC
:100860008193AE17BF07B9F70DB407FEFDCF8EB564
:100870008C931C820E940A030E940A03CE010E94EC
:100880002C0381E0DF91CF911F910F91FF90EF90AA
:100890000895EF92FF921F93CF93DF93FC01208185
:1008A00011E020FF14C0EC017C01F7E0EF0EF11C19
:1008B0004B815C816D817E81E981FA819701808124
:1008C00091810E948403182F811108C010E0812FAC
:1008D000DF91CF911F91FF90EF900895888181FD66
:1008E00004C088818E7F8883F2CFE981FA814B81B1
:1008F0005C816D817E8184859585A685B785480F4D
:10090000591F6A1F7B1F9701808191810E94840378
:100910008111E7CFDBCFCF92DF92EF92FF921F934F
:10092000CF93DF93EC016A017B01122F8B819C81B5
:10093000AD81BE818C159D05AE05BF05B1F0CE0120
:100940000E94490481110AC090E080E0DF91CF91BC
:100950001F91FF90EF90DF90CF90089512FF0CC091
:100960001882CB82DC82ED82FE8213708881182B84
:100970001883CE010796EACFE981FA819E01295FAB
:100980003F4FB701A601808191810E94EA03811146
:10099000E7CFDACF8F929F92AF92BF92CF92DF9242
:1009A000EF92FF920F931F9310928F0441E050E05B
:1009B00060E070E040939204509393046093940439
:1009C000709395042AE834E03093AC042093AB0490
:1009D0001092AA044FEF5FEFBA014093AD04509319
:1009E000AE046093AF047093B004882309F450C040
:1009F00020E040E050E0BA018AEA94E00E948B04D3
:100A0000009761F480E01F910F91FF90EF90DF90CD
:100A1000CF90BF90AF909F908F900895FC01E254CB
:100A2000FE4F20812F7771F78A539E4FFC01C080C3
:100A3000D180E280F380C114D104E104F10411F308
:100A400020E0B701A6018AEA94E00E948B04FC0131
:100A5000892BC1F2838594858115924099F680890E
:100A6000823081F686859785892B61F225852093D2
:100A70008C048FEF820F80938D0480E091E0291722
:100A800069F08F5F893041F488E080938E04BACF9B
:100A9000C12CD12C7601D4CF990FF1CF80938E0445
:100AA0004689578970E060E04115510521F444A161
:100AB00055A166A177A14093960450939704609343
:100AC0009804709399042685378546015701820E54
:100AD000931EA11CB11C80929E0490929F04A09230
:100AE000A004B092A104218932893093910420930B
:100AF0009004440F551F661F771F480D591D6A1D2E
:100B00007B1D4093A6045093A7046093A8047093A0
:100B1000A90421893289A5E0220F331FAA95E1F7A4
:100B200021503E4F232F33272695420F531F611D1F
:100B3000711D40939A0450939B0460939C0470939E
:100B40009D040389148930E020E00115110521F48A
:100B500000A111A122A133A1C41AD50AE60AF70AFD
:100B6000C00ED11EE21EF31E04C0F694E794D79483
:100B7000C7948A95D2F7D701C6010196A11DB11D70
:100B80008093A2049093A304A093A404B093A5041B
:100B900085EFC8168FE0D806E104F10420F48CE05C
:100BA00080938F042FCF80E125EFC2162FEFD2065E
:100BB000E104F10468F084A595A5A6A5B7A58093E6
:100BC000A6049093A704A093A804B093A90480E27C
:100BD00080938F0481E017CF8F929F92AF92BF9244
:100BE000CF92DF92EF92FF920F931F934230510505
:100BF0006105710560F480E01F910F91FF90EF9007
:100C0000DF90CF90BF90AF909F908F900895FC01A0
:100C1000C08CD18CE28CF38CC416D506E606F706A0
:100C200050F3480159016A017B018581803241F509
:100C300084899589A689B78917E076956795579530
:100C400047951A95D1F7480F591F6A1F7B1F23E05C
:100C5000CF0180960E948B04009769F2E894C7F850
:100C6000DD24EE24FF24CC0CDD1CCC0CDD1C8C0D13
:100C70009D1DFC0180829182A282B38281E0BCCF63
:100C8000803109F0B8CF44895589668977894D0D3F
:100C9000511D611D711D23E0CF0180960E948B04C0
:100CA000009709F4A8CFDD24EE24FF24CC0CDD1C32
:100CB000C80ED91EF60111830083E0CFCF92DF92D8
:100CC000EF92FF920F931F93CF93DF934230510522
:100CD0006105710550F48FEFDF91CF911F910F9156
:100CE000FF90EF90DF90CF900895FC01C08CD18CE5
:100CF000E28CF38CC416D506E606F70660F389018C
:100D00006A017B01EC0185818032B9F5848995897E
:100D1000A689B789E7E07695679557954795EA954F
:100D2000D1F7480F591F6A1F7B1F22E0CE01809622
:100D30000E948B04009779F2E894C7F8DD24EE2432
:100D4000FF24CC0CDD1CCC0CDD1C8C0D9D1DFC018E
:100D500080819181A281B381BF70488D598D6A8D48
:100D60007B8D481759076A077B0738F1F8018083A4
:100D70009183A283B38381E0AFCF803109F0ABCF01
:100D800044895589668977894D0D511D611D711DF5
:100D900022E0CF0180960E948B04009709F49BCF3C
:100DA000DD24EE24FF24CC0CDD1CC80ED91EF60178
:100DB00080819181B0E0A0E0D0CF80E08DCF0F9313
:100DC0001F93CF93DF93DC01EB019C91911106C03F
:100DD00080E0DF91CF911F910F910895907629F0D7
:100DE0008FE28883198281E0F4CF8D0154964D9172
:100DF0005D916D917C91579716968D919C9120E015
:100E000080960E948B04009719F3F801A481B581A4
:100E1000AF70BB2725E0AA0FBB1F2A95E1F7A80FEB
:100E2000B91F1097A9F2AD0138E070E080E06EE2E2
:100E3000FA019191AF019032F1F0883039F49E01BE
:100E4000270F311DF90160837F5F30E18A01015076
:100E50001109F80190812FEB290F2A3130F41C96EB
:100E60002C911C97232309F0905E8E01070F111D12
:100E7000F80190837F5F8F5F8B30D1F6FE01E70F23
:100E8000F11D1082B0CFFC019C01255F3F4F80E037
:100E900080FB879587F99191890F2E173F07C1F73E
:100EA0000895CF93DF93FC012081211104C081E0DC
:100EB000DF91CF910895EC01828182FF39C044898E
:100EC0005589668977898681978121E080960E947D
:100ED0008B04009729F489818160898380E0E8CFC1
:100EE000EC81FD81EF70FF2725E0EE0FFF1F2A95B3
:100EF000E1F7E80FF91F309771F38081853E59F3D0
:100F0000888183FF08C0888D998DAA8DBB8D848FC1
:100F1000958FA68FB78F8C8D9D8D938F828F8C8DA3
:100F20009D8DAE8DBF8DB58BA48B8A818B7F8A837F
:100F30008E819F8180960E944904882361F2B7CFF9
:100F40004F925F926F927F928F929F92AF92BF92D9
:100F5000CF92DF92EF92FF920F931F93CF93DF9385
:100F6000EC014A015B014C845D846E847F84A8811E
:100F7000AA2309F486C0488959896A897B8948155A
:100F800059056A057B0569F081149104A104B10437
:100F900051F41C861D861E861F86888A998AAA8A15
:100FA000BB8A81E073C0A3FF59C0088D198D2A8DBB
:100FB0003B8D081519052A053B0508F462C0EE8132
:100FC000FF81848190E009968A019B0101501109FB
:100FD00021093109082E04C03695279517950795E4
:100FE0000A94D2F775016401B1E0CB1AD108E10887
:100FF000F10804C0F694E794D794C7948A95D2F781
:10100000C016D106E206F30628F0452B462B472BE7
:1010100009F052C0A6FF4BC0848D958DA68DB78D6B
:101020008C879D87AE87BF878E01045F1F4FC114D9
:10103000D104E104F10409F4B0CF4C855D856E85DF
:101040007F8598018E819F810E945E0691E0C91A7A
:10105000D108E108F108181654F313C0A5FFAFCF6B
:10106000EE81FF818681978125E0880F991F2A955F
:10107000E1F7B0E0A0E088159905AA05BB0508F0E6
:101080008CCF4C865D866E867F8680E0DF91CF9127
:101090001F910F91FF90EF90DF90CF90BF90AF9096
:1010A0009F908F907F906F905F904F9008958C8D60
:1010B0009D8DAE8DBF8DB4CFC01AD10AE20AF30A5E
:1010C000B3CFAB01BC018AE694E00C94A007CF93A8
:1010D000DF93EC010E9451071882DF91CF910895B0
:1010E0003F924F925F926F927F928F929F92AF92B8
:1010F000BF92CF92DF92EF92FF920F931F93CF9305
:10110000DF9300D000D0CDB7DEB74C01FC01828167
:1011100084608283A680B780448455846684778403
:10112000F501C084D184E284F384C414D504E604B8
:10113000F70410F011E003C07301620110E0FFEF4B
:10114000CF1ADF0AEF0AFF0AF501808D918DA28D7B
:10115000B38D8C159D05AE05BF0538F4111131C056
:10116000C084D184E284F384E5CF4C145D046E0422
:101170007F0439F19E012F5F3F4FB701A601C501E2
:101180000E945E0687FD1DC08823C9F289819A816D
:10119000AB81BC81892B8A2B8B2B89F6112329F0FB
:1011A000F501C086D186E286F3860FEF1FEF2FEFA1
:1011B0003FE0B701A601C5010E94EC05382E811160
:1011C00018C0312C832D0F900F900F900F90DF914E
:1011D000CF911F910F91FF90EF90DF90CF90BF9034
:1011E000AF909F908F907F906F905F904F903F90C7
:1011F0000895411451046104710431F4F401C4866A
:10120000D586E686F786DECF97018601B301A20177
:10121000C5010E94EC058111F1CFD3CFCF92DF92AF
:10122000EF92FF920F931F93CF93DF93F82EC92F66
:10123000D62F0E94AC020F2D1C2FC0E06B017C0149
:1012400028EEC20E23E0D21EE11CF11CDC17C1F017
:101250000E94AC026C157D058E059F0590F485E912
:1012600093E00E94EA00892B89F385E993E00E94CC
:10127000C800F80181938F01CF5F0E94AC02DECFDE
:10128000CD2F81E0DC1380E0DF91CF911F910F9192
:10129000FF90EF90DF90CF9008958F929F92AF9242
:1012A000BF92CF92DF92EF92FF929091C10098602F
:1012B0009093C100662329F0682F85E993E00E948E
:1012C0002C010E94AC02812C912C540183946B015F
:1012D0007C0120EAC20E2FE0D21EE11CF11C80E34B
:1012E0008816910488E0A806B104F1F00E94AC02CF
:1012F0006C157D058E059F05B8F485E993E00E9485
:10130000EA00892B61F385E993E00E94C800682F09
:1013100085E993E00E942C010E94AC022FEF821A13
:10132000920AA20AB20AD3CF8091C100877F80932C
:10133000C100FF90EF90DF90CF90BF90AF909F9053
:101340008F90089562E084E00E94190262E085E0D7
:101350000E94190262E086E00E94190261E088E0C2
:101360000E94EB0162E082E10E94190261E083E1E8
:101370000C94EB0128B1982F92959F709095207F47
:10138000922B98B95998EFE1F0E03197F1F798B1C5
:1013900080958F70907F892B88B9599A24E0629F3D
:1013A000C001112405970197F1F708950F931F933A
:1013B000CF93DF93EC018C01060F171F6DE189912C
:1013C0000E94BA09C017D107C9F7DF91CF911F91C9
:1013D0000F91089563E20C94BA09199BFECF809196
:1013E000C100877F8093C10088B18F6088B987B1C1
:1013F0008F6087B9599A519A0895CF93DF93EB0183
:1014000020E2FB013C96DC011C9601900D922A958E
:10141000E1F72A813B81FC01338322834C815D818A
:101420006E817F81448355836683778348855985A0
:101430006A857B854087518762877387DF91CF916B
:1014400008950C960C945107FC01848583FF17C006
:1014500084A195A1A6A1B7A1448D558D668D778DE8
:10146000841B950BA60BB70B811520E89207A105ED
:10147000B10520F08FEF9FE7A0E0B0E0089580E095
:1014800090E0DC01F1CF0F931F93FC0100891189DB
:1014900022893389400F511F621F731F1F910F91C3
:1014A0000C94A00740E050E0BA010C94A007FC01A6
:1014B0009485907721F0CF010C960C94520A0895F0
:1014C00090E080E00895CF92DF92EF92FF920F9329
:1014D0001F93CF93DF93FC0180E2DF011D928A9579
:1014E000E9F7EB01AE81BF81B783A68355834483BF
:1014F000CC8CDD8CEE8CFF8CC086D186E286F386A8
:101500004F705527ED01A79695E0440F551F9A950A
:10151000E1F7BE01640F751FEB018B8583FD49C0A8
:10152000CD01840F951FEC018AA987718083EB019F
:101530009B85987111F488608083238381E0828386
:1015400093960D911D912D913C919697048B158B3F
:10155000268B378BA40FB51FDB964D915C91DC97E2
:1015600070E060E0BA0155274427ED01CF5BDF4F03
:101570000881198130E020E0402B512B622B732B26
:10158000448F558F668F778FAD5BBF4F8D919D9147
:101590000D90BC91A02D808F918FA28FB38F81E091
:1015A000DF91CF911F910F91FF90EF90DF90CF903F
:1015B0000895108280E0F4CFFC01808181110FC07A
:1015C00080E2DF01982F1D929A95E9F77783668371
:1015D000DB0115969C91903129F0903211F080E05A
:1015E000089580E4808381E08283089581EB96E012
:1015F0000E9467086AE874E081EB96E00E94DC0ACA
:10160000882331F09091B106907781E009F480E071
:1016100008952F923F924F925F926F927F928F9296
:101620009F92AF92BF92CF92DF92EF92FF920F9371
:101630001F93CF93DF93EC015B014A01888183FF05
:10164000C5C08A8181FFC2C083FDB7C0A40170E01C
:1016500060E088899989AA89BB8980959095A09531
:10166000B09584179507A607B70708F4AFC06401C3
:101670001E018CE0280E311C088919892A893B89B2
:10168000C114D10409F4E1C08E819F81B901A80180
:1016900029E076956795579547952A95D1F7DC010E
:1016A0001396FC90F4221170F1101BC04C855D85DF
:1016B0006E857F850115110509F0F4C041155105AE
:1016C0006105710509F488C091010E945E0687FDDD
:1016D0007DC0811106C0CE010E947008882309F4E4
:1016E00075C0EE81FF814C855D856E857F8542509A
:1016F000510961097109848104C0440F551F661F97
:10170000771F8A95D2F780899189A289B389840F3E
:10171000951FA61FB71FAC01BD014F0D511D611DC7
:10172000711D0115110529F4C114B2E0DB0608F0A2
:101730006EC080E092E0801B910B76018C159D05B8
:1017400008F47C010115110571F4488859886A88EC
:101750007B88888D998DAA8DBB8D25E0481659060A
:101760006A067B0608F421E0CF0180960E948B0474
:10177000009761F1A701B501800F911F0E947128A8
:101780000E0D1F1D0115124039F48E819F81809628
:101790000E9449048823D1F088899989AA89BB8944
:1017A0008E0D9F1DA11DB11D888B998BAA8BBB8BA4
:1017B000AE0CBF1CCE18DF085FCF488D598D6A8DE7
:1017C0007B8DCE010E94A007811140CF898181606D
:1017D00089838FEF9FEF4DC08C8D9D8DAE8DBF8D1A
:1017E0000097A105B10571F4CE010E94700888230D
:1017F00069F38C859D85AE85BF858C8F9D8FAE8F5F
:10180000BF8F6FCF8C879D87AE87BF876ACF83A13D
:1018100094A1A5A1B6A1481759076A077B0741F40F
:1018200010A28FEF9FEFDC0183A394A3A5A3B6A31F
:10183000EE81FF819501808191810E94840388233C
:1018400029F2E12C82E0F82EA7CF888D998DAA8D00
:10185000BB8D80179107A207B30738F48A81088FE0
:10186000198F2A8F3B8F84608A838A8187FD14C0F9
:10187000C401DF91CF911F910F91FF90EF90DF9006
:10188000CF90BF90AF909F908F907F906F905F9020
:101890004F903F902F900895CE010E9451078111E3
:1018A000E7CF94CFFC01425051096109710984814D
:1018B00004C0440F551F661F771F8A95D2F7808991
:1018C0009189A289B389480F591F6A1F7B1F31CFA5
:1018D0000C960C94090BCF93DF931F92CDB7DEB714
:1018E000698341E050E0BE016F5F7F4F0C960E941C
:1018F000090B0F90DF91CF9108954F925F926F92F5
:101900007F928F929F92AF92BF92CF92DF92EF928F
:10191000FF920F931F93CF93DF93EC015B018A013A
:101920008881882309F4C1C09A8190FFBEC083FFDB
:1019300016C0888D998DAA8DBB8D488959896A8971
:101940007B89841B950BA60BB70BA80170E060E0A8
:10195000481759076A077B07A0F08C0112C085FF62
:1019600010C0EE81FF818681978155E0880F991F15
:101970005A95E1F728893989821B930B80179107C3
:1019800060F378012E012CE0420E511C612C42E0E4
:10199000742EE114F10409F4B5C088899989AA89E3
:1019A000BB894C0121E092222881EE81FF81AC01AC
:1019B000BD0139E076956795579547953A95D1F7EA
:1019C00025FF29C0848D958DA68DB78D480F591F91
:1019D0006A1F7B1FEE81FF818114910409F06BC0A7
:1019E000E11482E0F80608F466C083A194A1A5A1E1
:1019F000B6A1481759076A077B0709F45CC095012F
:101A0000808191810E94EA03882309F44EC0C12C91
:101A100082E0D82E66C0D380D4228114910481F450
:101A2000D1100EC0892B8A2B8B2B81F526FF29C064
:101A3000848D958DA68DB78D8C879D87AE87BF874A
:101A4000EE81FF814C855D856E857F854250510911
:101A500061097109848104C0440F551F661F771FF7
:101A60008A95D2F780899189A289B389840F951FBD
:101A7000A61FB71FAC01BD014D0D511D611D711D8C
:101A8000A9CF8C8D9D8DAE8DBF8DD6CF4C855D85BC
:101A90006E857F859201CF010E945E0687FD05C09D
:101AA0008111CECF8881807769F5898182608983B1
:101AB0008FEF9FEF2AC0C3018819990967018E151E
:101AC0009F0508F46C0120E0CF0180960E948B04F2
:101AD000009759F3BC01680D791DA601C5010E944C
:101AE0007128AC0CBD1C88899989AA89BB898C0D89
:101AF0009D1DA11DB11D888B998BAA8BBB8BEC18EA
:101B0000FD0847CFC8018E199F09DF91CF911F9122
:101B10000F91FF90EF90DF90CF90BF90AF909F908C
:101B20008F907F906F905F904F900895CF92DF924B
:101B3000EF92FF920F931F93CF93DF936A010E945E
:101B4000610810E000E00C151D0518F5E601C01B4A
:101B5000D10BC11582E0D80710F0C0E0D2E0AE0191
:101B600065E971E08AE694E00E947D0C85E9E82E43
:101B700081E0F82E6DE1F70181917F010E94BA09A1
:101B8000C701855991408C179D07A0F30C0F1D1FAD
:101B9000DACFDF91CF911F910F91FF90EF90DF90FF
:101BA000CF900895EF92FF920F931F93CF93DF93FF
:101BB0001F92CDB7DEB77C01962FF701408951897E
:101BC000628973898A019B0185E03695279517956F
:101BD00007958A95D1F70F7011F091112BC041E054
:101BE00050E0BE016F5F7F4FC7010E947D0C8130C6
:101BF00051F090E080E00F90DF91CF911F910F9115
:101C0000FF90EF900895F70180899189A289B389A7
:101C10004F96A11DB11D808B918BA28BB38BF701C9
:101C2000868197818796F0E20F9F90011124820FA1
:101C3000931FE1CF405E5F4F6F4F7F4F408B518BC3
:101C4000628B738BECCF2F923F924F925F926F9289
:101C50007F928F929F92AF92BF92CF92DF92EF923C
:101C6000FF920F931F93CF93DF9300D01F92CDB7B6
:101C7000DEB77C017B836A83FA01DB018C9180777C
:101C800009F4E0C0D7018C918111DCC0C180D28001
:101C90008081837088248394882349F0C6010C9640
:101CA0006DE070E00E943A2888248394860E8F01AC
:101CB0008A819B810E94520A1982212C312C912CFD
:101CC0005801B6E0AB0EB11CEA81FB814088518817
:101CD0006288738861E0CF010E94D20D009709F4F9
:101CE000B1C0DC012C91253E09F4A6C0222309F4E1
:101CF000C0C0381470F12E3251F1FC0133853F30F1
:101D000009F05DC0911027C026FFDECF2F71922E03
:101D1000F585F983222EE22DE150FF0BAF01FDE0A6
:101D2000F49F9001F59F300D11242C153D0578F49A
:101D3000FC01712C64E06715B0F081819281C216BC
:101D4000D306D1F4892B19F4BFCF253EA1F6912CEF
:101D5000BBCF312CD0CF2A942211F9CF2585B98160
:101D60002B17C9F2F4CF8AE0871518F0848195818A
:101D7000E6CF86819781E3CF8F3F910509F038F751
:101D80004FEB480F4A3108F4805EB9016F5F7F4F17
:101D9000D80113964D915C91240F351FD9019C9168
:101DA0002FEB290F2A3108F4905E9813D0CF73944B
:101DB0003296BDE07B1609F487CF9B01BBCF33FD84
:101DC000C6CF992061F1E1E02E123CC00E9443078A
:101DD000F981F81337C0B301A20185E076956795C4
:101DE000579547958A95D1F7292D6A817B81C7013F
:101DF0000F900F900F90DF91CF911F910F91FF9057
:101E0000EF90DF90CF90BF90AF909F908F907F909A
:101E10006F905F904F903F902F900C94630A4BE02F
:101E200050E0B5010E946428892B09F04DCFD801FC
:101E30008C9180FD49CFCFCF381408F088CF3394F0
:101E4000211183CF80E00F900F900F90DF91CF9101
:101E50001F910F91FF90EF90DF90CF90BF90AF90C8
:101E60009F908F907F906F905F904F903F902F90BA
:101E70000895381420F3E6CF2F923F924F925F924D
:101E80006F927F928F929F92AF92BF92CF92DF928A
:101E9000EF92FF920F931F93CF93DF93CDB7DEB7EF
:101EA000E7970FB6F894DEBF0FBECDBF7C018A0165
:101EB00019821A82DC018C918823D1F080E0E796A8
:101EC0000FB6F894DEBF0FBECDBFDF91CF911F914B
:101ED0000F91FF90EF90DF90CF90BF90AF909F90C9
:101EE0008F907F906F905F904F903F902F900895CC
:101EF000FB018081807711F3DA018C91FA018F3236
:101F000009F4A2C0FE01F296FFABEEABF8019F010F
:101F10002F5F3F4F8081803209F4AEC0FDA3ECA358
:101F20009F01A9014E1B5F0B8901D9018D919D0174
:101F3000882371F08F3209F0A1C0CF01840F951F63
:101F40008C01DC012D91CD012032D1F32F32C1F370
:101F5000DA01AE0FBF1FAD014E1B5F0BEA17FB0787
:101F600009F4A6C08E918E32B1F38032A1F34F3FB7
:101F7000510511F00CF0A2CF5BA34AA3DE019796A6
:101F80006D0180E28D93AEA8BFA8AA16BB06D1F75B
:101F9000DF01CD018E1B9F0B2D912E32D1F320320C
:101FA000C1F377247394009709F0712C9A012150A2
:101FB00031095F01A40EB51E2F3F320709F07BC027
:101FC0008EA0512CB7E0BAAB312C612CA8E04A2E80
:101FD000841795070CF0AEC0DF01A80FB91FAC90B5
:101FE000ADAAAA2DA03209F4A3C0AE3221F4821703
:101FF000930709F09DC09DA8B92DB232A9F0BC3756
:1020000099F0BA52B63018F4A92DAD3269F4BDA9D1
:10201000BA53B63048F0BDA9BB55B33028F0BDA9BE
:10202000B152BE3508F451C08217930709F0C1C000
:102030008AA98A3009F4C8C0C901BAE0BAABA8E0DD
:102040003A2EB0E14B2E60C08F0181918F32E1F3C7
:10205000DB0116966D917C91811104C0C7010E942D
:10206000DC0A2DCFCE0101960E94DC0ABE016F5F13
:102070007F4F811147CF22CFF90149CF8C3509F429
:102080001DCF982F977F923209F418CF8A3309F425
:1020900015CF982F9F7B9C3309F410CF92EC980FAB
:1020A000923008F40BCF80528F3508F43ACF06CF28
:1020B00050E040E061CFD5019E905D01BEE29B16ED
:1020C00009F47ECF2150310977CF8217930709F4A5
:1020D000AFCFBAA9B31508F470C0BDA9B156BA31D3
:1020E000D0F4ADA9A052ADAB542822242394230CE4
:1020F0005601A30CB11CD501ADA8AC92A6E0BA2E36
:10210000322CB21408F0822C019662CF712CBFE5FC
:10211000BDABBFE59B2EBFEBB90DBA3130F76428DC
:10212000E4CFC901AAE0AAABA8E03A2EB0E14B2E59
:10213000712CEACF8EA28FA1803209F4BFCE772016
:1021400011F1852D862111F082E0582E59A2F80157
:102150008081AE014F5D5F4F882339F1C7010E9436
:10216000230E882309F4AACE80E2F701DE0111963E
:1021700001900D928A95E1F7C7010E946708BE01A0
:102180006F5F7F4FC3CE81E089A3912CF601E80DEC
:10219000F91D8EE78083E8E2F0E0EC0FFD1F8E0E64
:1021A0009F1E81E3D4018C93D2CFC7010E94230EDE
:1021B00086CEAAA9A31508F0A9CFBAA9BA3021F0F2
:1021C000281739070CF0ADCF8EA2712CB4CFCF9366
:1021D000DF93CDB7DEB7A0970FB6F894DEBF0FBE82
:1021E000CDBF19821A82809195018F3279F4809146
:1021F000960181110BC00E94F60AA0960FB6F894C2
:10220000DEBF0FBECDBFDF91CF91089545E951E00C
:1022100061EB76E0CE0101960E943C0F882369F3C2
:102220009981907751F090E2FE013196A1EBB6E0F2
:1022300001900D929A95E1F7E0CF80E0DECFEF922A
:10224000FF920F931F93CF93DF93CDB7DEB7AC9779
:102250000FB6F894DEBF0FBECDBF8C017B01198293
:102260001A82AB0161EB76E0CE0101960E943C0F31
:10227000882359F1F8018485882321F0C8010C9640
:102280000E9467081D861E861C821B8288EE93E0D2
:10229000A0E0B0E08D839E83AF83B88780E491E0B7
:1022A0009A838983A70161EB76E0CE010D960E94A7
:1022B0003C0FBE016F5F7F4FC8010E94FD09F8010E
:1022C0009485907781E009F480E0AC960FB6F8949D
:1022D000DEBF0FBECDBFDF91CF911F910F91FF9059
:1022E000EF9008950F931F93CF93DF938C01009786
:1022F00009F448C0AC014150510970E060E085E04C
:10230000440F551F661F771F8A95D1F78EE394E01F
:102310000E94A0078823E9F160E08EE394E00E9428
:10232000D20DFC01892BA9F183858F3079F580814D
:102330008F71813059F5D585C02F0531110508F011
:10234000C4E160E08EE394E00E94D20D009709F1B1
:10235000FC012081253EE9F02223D9F02E32C9F07C
:10236000CC2321F00E9443078D1313C02C2FA8010A
:102370006EE374E08AE694E0DF91CF911F910F91B4
:102380000C94630A8EE394E00E94520AC0E0D0E00D
:10239000D8CF80E0DF91CF911F910F910895CF9317
:1023A000DF93EC0180916A04882321F08AE694E0AF
:1023B0000E94670880916A04882329F0C0E08C2F6E
:1023C000DF91CF91089580913E048077B9F3CE01DB
:1023D0000E947211C82F882389F380916A04807744
:1023E00069F760E070E0CB010E946108E8CFCF920E
:1023F000DF92EF92FF920F931F93CF93DF93EC0145
:1024000080916A04811111C08881807771F0888978
:102410009989AA89BB898F719927AA27BB2710E0C0
:1024200000E0892B8A2B8B2B59F080E0DF91CF9134
:102430001F910F91FF90EF90DF90CF90089510E0E3
:10244000C888D988EA88FB8860E0CE010E94D20D56
:10245000009759F3FC012081222339F32E3279F3BE
:10246000253E69F3338533FD1DC0112321F00E9401
:1024700043078013DACFB701A60185E0769567950B
:10248000579547958A95D1F7212FBE018AE694E0AA
:10249000DF91CF911F910F91FF90EF90DF90CF9040
:1024A0000C94630A3F3059F626FFCACF122F1F71D2
:1024B0000585C6CF2F923F924F925F926F927F9287
:1024C0008F929F92AF92BF92CF92DF92EF92FF9244
:1024D0000F931F93CF93DF93CDB7DEB7A2970FB6BD
:1024E000F894DEBF0FBECDBF8C017B015A0119826B
:1024F0001A82DC018C91882309F4C5C013968C9153
:1025000081111EC0C8010E94DF06982E892DA29657
:102510000FB6F894DEBF0FBECDBFDF91CF911F91F4
:102520000F91FF90EF90DF90CF90BF90AF909F9072
:102530008F907F906F905F904F903F902F90089575
:10254000F80180859185A285B385668177819E019A
:102550002F5F3F4F39010097A105B10509F079C000
:10256000C9010E94DC0A882309F48DC044244394E5
:10257000512CD12CC12C17012A0C3B1CF1E02F1A35
:102580003108D80113968C911397841508F47BC0F9
:1025900014964D915C914419550970E060E085E016
:1025A000440F551F661F771F8A95D1F7C3010E94FC
:1025B000A007982E882309F466C060E0C3010E943A
:1025C000D20DFC01892B09F45EC083858F3009F0A0
:1025D0005AC080818F71481256C0A7014C0D5D1DF5
:1025E000FAA3E9A3960160E0A9A1BAA1653008F0B9
:1025F00040C011968D919C910097A9F02A153B053A
:10260000E0F48F37910510F08FE390E02F5F3F4F9C
:10261000DA018D93AD016F5F89A19AA102969AA309
:1026200089A36D3009F72A153B0538F4808186FFB0
:1026300004C02E0D3F1DD9011C92D1011C92BDE09A
:10264000CB0ED11C2FEF421A520A808186FF99CF00
:102650005DCF2CE1F30111922A95E9F720E129835E
:1026600021E02B8378876F838D8F9E8FAF8FB8A3E8
:102670007DCF6B3020F414968D919C91BDCF169632
:102680008D919C91B9CFD7011C92912C3FCFCF93C4
:10269000DF931F92CDB7DEB741E050E0BE016F5F20
:1026A0007F4F0E947D0C019731F4898190E00F905B
:1026B000DF91CF9108958FEF9FEFF9CF0C960C9497
:1026C00047138F929F92AF92BF92CF92DF92EF9279
:1026D000FF92CF93DF93EC0188889988AA88BB8802
:1026E000CC84DD84EE84FF840E94471397FD08C0EC
:1026F000888A998AAA8ABB8ACC86DD86EE86FF867E
:10270000DF91CF91FF90EF90DF90CF90BF90AF908F
:102710009F908F9008950C960C9461134F925F9246
:102720006F927F928F929F92AF92BF92CF92DF92E1
:10273000EF92FF920F931F93CF93DF937C015B0186
:102740006A014901FC01608171818281938140901D
:102750007A0450907B0460907C0470907D04641532
:1027600075058605970511F00E946108F6018081C4
:10277000D0E0C0E0882349F1F4011081D0E0C0E04E
:10278000F6018081882309F1002321F06DE1812F7A
:102790000E94BA09F6018081815080832196AC168F
:1027A000BD0671F7DF91CF911F910F91FF90EF90D0
:1027B000DF90CF90BF90AF909F908F907F906F9061
:1027C0005F904F9008953501E301CA15DB0550F77E
:1027D0008EE594E00E94240A892B21F38AE694E096
:1027E0000E944713F70140815181628173814F5FDD
:1027F0005F4F6F4F7F4F40835183628373838D3E62
:1028000009F069C08AE694E00E944713182FF70187
:1028100080819181A281B3810196A11DB11D808328
:102820009183A283B3831D3E89F58AE694E00E94DA
:102830004713F60180838AE694E00E944713F4016F
:102840008083F70180819181A281B3810296A11DCD
:10285000B11D80839183A283B383F40110813E0173
:10286000F6018081882309F4AFCF002321F06DE1C8
:10287000812F0E94BA09F601808181508083FFEF89
:102880006F1A7F0AA614B70459F79DCF002321F0D1
:102890006DE18DEE0E94BA093E018FEF681A780A49
:1028A0006A147B0458F4002321F06DE1812F0E940B
:1028B000BA093E01E2E06E0E711C86CFF7018081FD
:1028C0009181A281B3810197A109B109808391838C
:1028D000A283B38379CF002319F06DE10E94BA0976
:1028E0003E01FFEF6F1A7F0A6FCFCF92DF92EF9218
:1028F000FF920F931F93CF93DF93CDB7DEB7A697C9
:102900000FB6F894DEBF0FBECDBFFC01DB018C918A
:102910008E3209F441C090916A0490778CE009F0FE
:1029200069C08F01C0908204D0908304E090840439
:10293000F0908504FB0101900020E9F7BF0165508C
:10294000710945E050E0CE0101960E941428CE01A5
:1029500001960E9428286EE471E0CE0101960E9443
:102960007A28892BB9F560E070E0CB010E946108FC
:102970004BE150E0BE016F5F7F4F8AE694E00E941A
:102980007D0CFE013196CE014B96319120813213A0
:1029900005C0E817F907C9F780E0B5C0FBE1CF161D
:1029A000F0ECDF06E104F10441F480910001823093
:1029B00088F086E1D8018C931EC0D701C6019F7BA9
:1029C0004F97A240B10531F480910001833010F09F
:1029D00087E1F0CF63E571E0CE0101960E947A288D
:1029E000892B59F4C114BBE1DB06E104F10429F49D
:1029F00080E1F801808381E086C068E571E0CE0166
:102A000001960E947A28892BD1F5C114D104F8E0EF
:102A1000EF06F104A1F560EE7FE380E090E00E9414
:102A2000610845E050E0BE016F5F7F4F8AE694E0A9
:102A30000E947D0C8981863741F48A81843310F0AD
:102A400080E3B8CF8B818E32D9F76CEE7FE380E0E4
:102A500090E00E94610843E050E0BE016F5F7F4F4D
:102A60008AE694E00E947D0C1C826DE571E0CE0147
:102A700001960E947A28892B09F48ECFE1CF61E676
:102A800071E0CE0101960E947A28892B09F080C05E
:102A900060E070E0CB010E94610846E250E0BE01B8
:102AA0006F5F7F4F8AE694E00E947D0C8F818111D9
:102AB00046C08885811143C08F8D873159F0865378
:102AC000823008F069CF8BA1843070F183E1D801A6
:102AD0008C9306C08BA1833028F183E1F8018083B9
:102AE000F8018081823129F48EA187FF02C081E143
:102AF0008083D8018C918231C9F481E090910001EA
:102B0000923008F449CFA6960FB6F894DEBF0FBEF8
:102B1000CDBFDF91CF911F910F91FF90EF90DF908C
:102B2000CF90089582E1DACF82E1D1CF833109F0ED
:102B300062CF80910001833008F42ECF5CCF82E118
:102B4000F801808380910001823008F425CF8D85C3
:102B500085FF4EC0C701B601645071098109910912
:102B60000E94610844E050E0BE016F5F7F4F8AE63B
:102B700094E00E947D0C898181110AC08A818D3E7A
:102B800039F48B818D3E21F48C81882309F433CF75
:102B900066E671E0CE0101960E947A28892B09F041
:102BA000FBCE60E070E0CB010E94610842E050E0A3
:102BB000BE016F5F7F4F8AE694E00E947D0C8AE63B
:102BC00094E00E946113892B09F0E6CE1B82898173
:102BD0009A81892B71F18AE694E00E9447139B81C8
:102BE00089278B8389819A8101979A838983EFCF83
:102BF000FEE1CF16F0ECDF06E104F10449F660E0F7
:102C000070E0CB010E9461084EE150E0BE016F5FB1
:102C10007F4F8AE694E00E947D0CFE013196CE0142
:102C20004E96319120813213E6CEE817F907C9F7A5
:102C3000B3CE8B818111B0CE80E2BCCE2F923F9279
:102C40004F925F926F927F928F929F92AF92BF92BC
:102C5000CF92DF92EF92FF920F931F93CF93DF9368
:102C6000CDB7DEB7CD58D1090FB6F894DEBF0FBE91
:102C7000CDBF4C011A01E5E2F3E082E2DF011D92D3
:102C80008A95E9F7662309F4E4C280916A048823EF
:102C900021F08AE694E00E946708F10140815181A9
:102CA0007401FCE0EF0EF11CCA0101978E3F9F4FAB
:102CB00008F0A0C070E060E035E0440F551F661FCB
:102CC000771F3A95D1F7C7010E94A00764E170E031
:102CD00080E090E00E947A0280916A04882321F0CB
:102CE0008AE694E00E946708D1014D915C91CA0187
:102CF00001978E3F9F4F08F001C270E060E015E041
:102D0000440F551F661F771F1A95D1F7C7010E9400
:102D1000A007C7010E94F71110916A0418708AE693
:102D200094E00E94670811110AC210E000E0B3EBC2
:102D3000AB2EB2E0BB2EC7010E94F711882309F425
:102D400000C20D3F110508F0FCC180916A04982F64
:102D5000907709F44AC081FD48C065E972E08AE6CF
:102D600094E00E94DF0665E972E084E992E00E9447
:102D700075148823D1F140E450E065E972E08AE6F9
:102D800094E00E945A128091950290E00E945C2883
:102D900080939502A6E9CA2EA2E0DA2ED6018D9183
:102DA0006D0190E00E945428F60131978083AC14A5
:102DB000BD04A1F780916E0490916F049093B502C9
:102DC0008093B4021092B302F4E9CF2EF2E0DF2E2A
:102DD0006DE1F60181916F010E94BA09F6EBCF1601
:102DE000F2E0DF06A9F70F5F1F4F8AE694E00E942A
:102DF0006708A1CFC4010E94570AD101CD90DC9091
:102E0000C114D10409F062CFFE01E359FF4F1192C2
:102E100011928EE1DF01282F1D922A95E9F7FE011C
:102E2000E35BFF4F11921192DF011D928A95E9F742
:102E30008FEF9FEF9093300380932F03712C612CC1
:102E4000B12CA12CB1E0C357DF4FB883CD58D0408F
:102E500001E010E0FE0131962F01C7010E94F71139
:102E6000882371F0053EF8E01F0750F480916A0452
:102E7000982F907731F58AE694E00E946708EDCFAD
:102E8000C4010E94570ACE0101962C01C7010E947D
:102E9000F711882329F0053EE8E01E0708F47DC0FD
:102EA000B5016F5F7F4FC60101960E943A286930D5
:102EB000710508F0EEC06530710508F41CC181E0B1
:102EC000E9C081FDD8CF67E473E08AE694E00E9410
:102ED000DF0668E473E087E493E00E9475148823BA
:102EE00051F2C0906E04D0906F04C8016DEF70E095
:102EF0000E943A28892B99F4C357DF4F9881CD5807
:102F0000D040E92FF0E0EE0FFF1FE15DFC4FD182D2
:102F1000C0829F5FC357DF4F9883CD58D0400F5F6B
:102F20001F4F4CE450E0B2018AE694E00E945A122E
:102F3000D2010D900020E9F7CD01841995090B9677
:102F40006DE070E00E943A28A60EB71E8FE1F201F4
:102F5000DE01A359BF4F01900D928A95E1F7C45746
:102F6000DF4F1882CC58D040BE01635B7F4FCE014B
:102F700083599F4F0E947A2897FF03C0BFEF6B1AB7
:102F80007B0A80E2FE01E359FF4FDE01A35BBF4FE6
:102F900001900D928A95E1F76ECF80916A0483FFCC
:102FA00073C081FD71C067E473E08AE694E00E941B
:102FB000DF0668E473E087E493E00E9475148823D9
:102FC00009F462C04CE450E0B2018AE694E00E9449
:102FD0005A12C0906E04D0906F04C8016DEF70E07B
:102FE0000E943A28892B99F4C357DF4F2881CD5886
:102FF000D040E22FF0E0EE0FFF1FE15DFC4FD182E9
:10300000C0822F5FC357DF4F2883CD58D0400F5F5A
:103010001F4F4CE450E0B2018AE694E00E945A123D
:10302000D2010D900020E9F7CD01841995090B9686
:103030006DE070E00E943A28A60EB71E8FE1F20103
:10304000DE01A359BF4F01900D928A95E1F7C45755
:10305000DF4F1882CC58D040BE01635B7F4FCE015A
:1030600083599F4F0E947A2897FF03C0BFEF6B1AC6
:103070007B0A80E2FE01E359FF4FDE01A35BBF4FF5
:1030800001900D928A95E1F78AE694E00E94670824
:10309000FDCE82E080934103B3016F5F7F4FC80193
:1030A00001960E943A2882E06930710540F465304B
:1030B000710538F080914103811103C081E0809354
:1030C0004103C357DF4FE881CD58D040E093270339
:1030D00001501109C80167E170E00E943A286F5F52
:1030E00060932803C8016DEF70E00E943A288F5F5B
:1030F00080932903EBCD10924103CECFC4010E94EF
:10310000570AE6E9F2E080E2DF011D928A95E9F7CD
:103110008CE0809394028EE28093950280939602D5
:1031200004E912E06DE1F80181918F010E94BA0972
:10313000F2E0063B1F07B1F701E010E0F8CD10E028
:1031400000E0D1014D915C91CA0101978E3F9F4FE4
:1031500008F07BC070E060E0E5E0440F551F661F9B
:10316000771FEA95D1F7C7010E94A00733EBC32E62
:1031700032E0D32E46EBA42E42E0B42EC7010E94CB
:10318000F711882309F49DC00D3F110508F099C07F
:1031900080916A0483FF54C081FD52C065E972E0EA
:1031A0008AE694E00E94DF0665E972E084E992E035
:1031B0000E947514882309F443C040E450E065E997
:1031C00072E08AE694E00E945A128091950290E0A3
:1031D0000E945C288093950226E9822E22E0922E9E
:1031E000F40181914F0190E00E945428F40131973D
:1031F0008083C814D904A1F7E5E9F2E0019000202A
:10320000E9F7E659F240FF27EF56FD4F1082109282
:10321000B30280916E0490916F049093B5028093F5
:10322000B40294E9892E92E0992E6DE1D4018D913A
:103230004D010E94BA09A814B904B9F70F5F1F4FD6
:103240008AE694E00E94670899CFC4010E94570A59
:103250008DCF64E170E080E090E00E947A02F1019D
:1032600080819181892B41F48CE0809325038EE24B
:103270008093260380933A0305E213E06DE1D801C1
:103280008D918D010E94BA09B3E007341B07B1F795
:10329000E5E2F3E082E2DF011D928A95E9F78FEF24
:1032A00080932F038093300381E0809327038093E2
:1032B00028038093290364E170E080E090E00E949D
:1032C0007A0205E213E087E4E82E83E0F82E6DE150
:1032D000F80181918F010E94BA09E016F106B9F751
:1032E000C357DF4F0FB6F894DEBF0FBECDBFDF91DF
:1032F000CF911F910F91FF90EF90DF90CF90BF90F3
:10330000AF909F908F907F906F905F904F903F9085
:103310002F9008958F929F92AF92BF92CF92DF929B
:10332000EF92FF920F931F93CF93DF93CDB7DEB74A
:10333000AC970FB6F894DEBF0FBECDBF2198299889
:10334000E091A503F091A60312E01083E091A5039C
:10335000F091A6031082E091A103F091A2031082E4
:10336000E091A303F091A40380E180831092AD0368
:10337000E091A903F091AA038EE08083E091A70376
:10338000F091A803808180618083E091A703F09190
:10339000A803808188608083E091A703F091A8034F
:1033A000808180688083E091A703F091A8038081E9
:1033B0008F7D80838091C100877F8093C10062E010
:1033C00082E00E94190262E083E00E94190261E03B
:1033D00083E10E94190261E083E10E94EB0161E058
:1033E00088E00E94190260E088E00E94EB0182E020
:1033F0000E94C201892B51F483E00E94C201892BF3
:1034000029F4109378010E94A20928C062E084E0A8
:103410000E94190284E00E94C201892BA1F781E079
:103420008093780160E083E00E94190260E084E00C
:103430000E94190260E085E00E94190262E086E0C5
:103440000E94190262E088E00E94190262E082E1B3
:103450000E94190262E083E10E9419021092D406D0
:103460001092D1061092D60687ED96E09093D3067F
:103470008093D2060E94AC026B010091D20610919B
:10348000D3068AE0F801828361E00E94190261E0BC
:10349000F80182810E94EB011FB7F89480916E01C0
:1034A000811127C0E0E9F0E08491E4EAF0E0949132
:1034B000E82FF0E0EE0FFF1FE859FF4FA591B49100
:1034C000EC91E92321F461E08AE00E94EB0161E0E4
:1034D0008AE00E9419028CB580618CBD8CB5806435
:1034E0008CBD61E08DE00E94190261E08BE00E94DA
:1034F000190280916E018F5F80936E011FBFE09172
:10350000D206F091D30682E5808311828091D406A1
:10351000811104C081ED96E00E94F102E091D20693
:10352000F091D30661E082810E94EB011AE08FEFF7
:103530000E9405031150D9F7E091D206F091D3060D
:1035400060E082810E94EB011AE020E030E0A901F6
:1035500060E081ED96E00E944103082F813009F47C
:103560004BC01150D9F580E28093D10681ED96E0F1
:103570000E942C030E94ED091D861E861C821B8260
:1035800088EE93E0A0E0B0E08D839E83AF83B887A0
:1035900080E491E09A8389834BE651E061EB76E029
:1035A000CE010D960E943C0FBE016F5F7F4F82E3FC
:1035B00094E00E94FD09AC960FB6F894DEBF0FBEF2
:1035C000CDBFDF91CF911F910F91FF90EF90DF90D2
:1035D000CF90BF90AF909F908F9008958DEF0E94F5
:1035E000050398E0A92E92E0B92E0E940A03F1E0AB
:1035F000AF1AB108D1F7A9CF2AEA31E040E050E094
:1036000068E081ED96E00E94410314E0853041F5C9
:103610000093D6068091D606812C912C54018230DD
:1036200029F4812C912CA12C80E4B82E20E030E0EC
:10363000A90167E381ED96E00E944103A501940191
:1036400069E281ED96E00E9441038823B9F00E946F
:10365000AC026C197D09613D774040F383E484CF6F
:103660000E940A038093D5061150D1F78A3A21F4BB
:1036700082E08093D606CECF85E276CF8091D606C3
:103680008230D1F420E030E0A9016AE381ED96E0D8
:103690000E944103882311F087E366CF0E940A034A
:1036A000807C803C19F483E08093D6060E940A0354
:1036B0000E940A030E940A0381ED96E00E942C03F7
:1036C000E091D206F091D30680E5808381E081838A
:1036D00081ED96E090938B0480938A0481EB96E0D1
:1036E0000E94670881E00E94CA04882391F06AE87A
:1036F00074E081EB96E00E94DC0A882309F43ACF5B
:103700008091B106807709F435CF81E080939301F1
:1037100031CF80E00E94CA048111E9CF2BCF1F92E4
:103720000F920FB60F9211242F933F934F935F93F5
:103730006F937F938F939F93AF93BF93EF93FF9379
:1037400085E993E00E940A01FF91EF91BF91AF914B
:103750009F918F917F916F915F914F913F912F91A9
:103760000F900FBE0F901F9018951F920F920FB6DB
:103770000F9211242F938F939F93EF93FF93E091D8
:10378000A503F091A6038081E091AB03F091AC0317
:1037900082FD1BC090818091AE038F5F8F7320915B
:1037A000AF03821741F0E091AE03F0E0EB56FC4F1F
:1037B000958F8093AE03FF91EF919F918F912F9101
:1037C0000F900FBE0F901F9018958081F4CF1F921D
:1037D0000F920FB60F9211242F933F938F939F93C5
:1037E000AF93BF938091700190917101A09172018C
:1037F000B091730130916F0123E0230F2D3758F5FD
:103800000196A11DB11D20936F01809370019093CB
:103810007101A0937201B093730180917401909132
:103820007501A0917601B09177010196A11DB11D9E
:103830008093740190937501A0937601B093770102
:10384000BF91AF919F918F913F912F910F900FBE9C
:103850000F901F90189526E8230F0296A11DB11D09
:10386000D2CFE5E9F3E01382128288EE93E0A0E084
:10387000B0E084839583A683B7832EE231E0318361
:10388000208325EC30E03587248724EC30E037872F
:10389000268720EC30E0318B208B21EC30E0338B1D
:1038A000228B22EC30E0358B248B26EC30E0378BFA
:1038B000268B118E128E138E148E10928F041092FE
:1038C000B1061092B20624E62093D1061092D606D5
:1038D00020E52093D7061092D806EEE5F4E0148692
:1038E00015861382128284839583A683B78320E48E
:1038F00031E031832083E2E3F4E0148615861382FD
:10390000128284839583A683B783318320830895AD
:10391000CF93DF93CDB7DEB7C45CD1090FB6F8946F
:10392000DEBF0FBECDBF789484B5826084BD84B500
:10393000816084BD85B5826085BD85B5816085BDAA
:1039400080916E00816080936E0010928100809162
:1039500081008260809381008091810081608093EA
:103960008100809180008160809380008091B1000F
:1039700084608093B1008091B00081608093B0003A
:1039800080917A00846080937A0080917A008260CE
:1039900080937A0080917A00816080937A00809190
:1039A0007A00806880937A001092C1000E948A1980
:1039B00069EB262E312C2C0E3D1E27E0220E311CE9
:1039C00078E5872E912C8C0E9D1E4FE3840E911C62
:1039D00085E993E00E94EA00892B09F046C08091B6
:1039E0007801813011F599B183B126B138B1817078
:1039F000307F832B30E043E0359527954A95E1F7FA
:103A000026703327822B990F9870892B88B92BB198
:103A100089B190E055E0959587955A95E1F78270C8
:103A200099272D7F822B8BB9D3CF26B189B190E016
:103A300003E0959587950A95E1F7322F307124FFC1
:103A400012C08F7098B1907F892B88B92BB12D7FD0
:103A5000332339F089B190E0959587958270992745
:103A6000282B2BB9B5CF8E70EDCF19990FC080914F
:103A7000C100877F8093C10088B1807F88B9599841
:103A800087B18F6087B9519A0E94ED0985E993E06B
:103A90000E94C800C754DF4F8883C95BD04084317F
:103AA00008F085C0813108F0A5C38A3009F424C22A
:103AB00058F5833009F4B5C1A0F4882311F40C94AF
:103AC000E527813009F497C180E090E0892B09F463
:103AD0007FCF0E94F600882309F47ACF0E9400006D
:103AE00077CF883009F4AAC1893071F762E085E99F
:103AF00091E00E940E09882339F3809195019091FD
:103B000096010E94CF11F5C18D3009F44BC2E0F44B
:103B10008B3009F4FAC18C30B9F662E085E991E0A6
:103B20000E940E09882381F280916A04882321F083
:103B30008AE694E00E94670880916A04882309F469
:103B400010C210929401C0CF8F3009F454C208F40F
:103B500041C261E089EB90E08C0F9D1F01960E94AD
:103B60000E09882309F4B0CFC654DF4FD880CA5B52
:103B7000D040DD2009F4CAC540EB51E065E971E0B1
:103B80008AE694E00E947D0C05E911E025E4E22E2E
:103B900023E0F22E6DE1F80181918F010E94BA09B4
:103BA000E016F106B9F7F0E1DF128ECF16C18032D0
:103BB00011F40C94752608F0ACC0883108F052C09E
:103BC000863108F03FC2843109F07ECF61E089EB95
:103BD00090E08C0F9D1F01960E940E09882309F426
:103BE00073CFC654DF4FB880CA5BD040E1E0BE124D
:103BF0002BC010928E0110928D0160E070E0CB011D
:103C00000E9461084FE150E065E971E08AE694E0C6
:103C10000E947D0C80919B0190919C01892B09F45D
:103C2000D6C58091A10185FF32C682E080938C01C8
:103C30008EE190E0A0E0B0E080938801909389014C
:103C4000A0938A01B0938B0180918C01823009F49A
:103C50002AC608F023C6813009F431C6B0E1BB1290
:103C600033CFBBC0883109F45CC58E3109F02CCF4D
:103C700062E085E992E00E940E09882309F424CFCE
:103C800080919502909196020E94CF11882309F4A9
:103C90001BCF66E972E08AE694E00E94DF0666E9DF
:103CA00072E085E992E00E947514882309F495C0BA
:103CB00080919502803209F45BC708F021C68151DA
:103CC000833008F08AC066E070E080E090E00E94F7
:103CD00061088AE694E00E944713809397028AE67F
:103CE00094E00E944713809398029091970291115B
:103CF00003C0882309F487C66DE18FEF0E94BA09DB
:103D00006DE18FEF0E94BA096DE18FEF0E94BA0951
:103D100064C08D3E09F46BC008F062C0833209F4C0
:103D2000A6C4803309F0D0CE61E089EB90E08C0F1F
:103D30009D1F01960E940E09882309F4C5CE80912B
:103D40009401882309F4C0CE80919301882309F45B
:103D5000BBCEC654DF4FB880CA5BD040AA24AA9419
:103D6000AB0CCA2CD12CF12CE12C65E070E080E08A
:103D700090E00E947A02EFE0CC0CDD1CEE1CFF1CF0
:103D8000EA95D1F7F0E47F2E10E000E040E052E049
:103D9000C701B6010E94960DE5E9F1E08191080F97
:103DA000111D93E0E539F907C9F77A94A2E0DA0E1C
:103DB000E11CF11C7110EACF0B0D111D6DE18B2D73
:103DC0000E94BA096DE1802F0E94BA096DE1812F2E
:103DD0000E94BA09BFE1AB1277CE8AE694E02FC108
:103DE0008F3E11F40C94E127833F09F06DCE61E022
:103DF0000E944D0969CE65E070E080E090E00E948D
:103E00007A0202E211E0BAE2EB2EB1E0FB2E6DE1A4
:103E1000D8018D918D010E94BA09E016F106B9F71B
:103E200053CE61E085E991E00E940E09882309F4F0
:103E30004BCE809195018093000146CE0E94B8023E
:103E4000882309F441CE1092150219821A8245E99D
:103E500051E061EB76E0CE0101960E943C0F882391
:103E600009F441C080916A04882321F08AE694E035
:103E70000E9467081D861E861C821B8288EE93E0C6
:103E8000A0E0B0E08D839E83AF83B88780E491E0AB
:103E90009A83898345E951E061EB76E0CE010D9686
:103EA0000E943C0FBE016F5F7F4F8EE594E00E9441
:103EB000FD0960E070E0CB010E94610880916A0416
:103EC000807789F440E450E065E972E08AE694E0A6
:103ED0000E945A1281E08093150265E972E086E142
:103EE00092E00E94751481E090911502913009F0E2
:103EF00080E080939401E8CD6BE671E082E394E08A
:103F00000E941F110E94F60ADFCD0E94B80288238A
:103F100009F4DACD1D861E861C821B8288EE93E092
:103F2000A0E0B0E08D839E83AF83B88780E491E00A
:103F30009A83898365E971E0CE0101960E941F1181
:103F4000182FCE010D960E946708112309F4BCCDED
:103F500065E971E082E394E00E941F110E94E7107E
:103F6000B3CD80913E04807709F4EBCD809195012B
:103F7000909196010E947211882309F4E2CD40E4E9
:103F800050E065E971E08AE694E00E945A1265E922
:103F900071E082E394E00E941F11809394018111EB
:103FA000DDCF92CD40E051E065E971E08EE394E031
:103FB0000E945A1205E911E0A5E9EA2EA2E0FA2EC4
:103FC0006DE1D8018D918D010E94BA09E016F106CC
:103FD000B9F77ACD62E085E991E00E940E09882365
:103FE00009F472CD45E951E06091930182E394E0D8
:103FF0000E941E1669CD0E94B802882309F464CD80
:104000001D861E861C821B8288EE93E0A0E0B0E035
:104010008D839E83AF83B88780E491E09A83898300
:1040200065E971E0CE0101960E941F1150E040E069
:10403000682FCE0101960E941E16CE010D960E9499
:10404000670842CD61E089EB90E08C0F9D1F0196DF
:104050000E940E09882309F437CDC654DF4F28810A
:10406000CA5BD0402930C1F060F4213008F09CC018
:10407000C654DF4F8881CA5BD0408A3009F024CD16
:10408000ACCE40E052E06BE17EE380E090E02A308D
:1040900079F70E94960DECCFC754DF4F1881C95BAA
:1040A000D0404BE150E060E070E0CB010E94960D03
:1040B000173109F06AC042E050E06BE170EC80E03B
:1040C00090E00E94960D41E050E06DE170EC80E0E0
:1040D00090E00E94960D8091950187701092790171
:1040E00091E090937A0192E0811193E090937B01AB
:1040F00092E0813019F093E0811194E090937C017B
:1041000092E0833021F094E0823008F095E09093C3
:104110007D0192E0843031F0843018F495E08230F3
:1041200009F496E090937E0192E0863031F085307C
:1041300018F496E0823009F497E090937F0187307D
:1041400079F1853079F1823069F187E080938001DF
:1041500084E00E94EA0988E0173121F083E01631FB
:1041600009F081E00E94EA0901E110E080E00E948C
:10417000EA0901501109D1F70FE010E08FEF0E941A
:10418000EA0901501109D1F773CF80E00E94EA09D2
:1041900080E00E94EA0980E30E94EA0980E09ECF65
:1041A00082E0D4CF88E0D2CFE22FF0E0E858FE4F93
:1041B0003081C32ED12CF12CE12C7EE0CC0CDD1C07
:1041C000EE1CFF1C7A95D1F7C701B601655E7F4FE3
:1041D0008F4F9F4F333030F0C701B601615E7F4F84
:1041E0008F4F9F4F40E05EE3213009F452CF40E013
:1041F00050E44FCF61E089EB90E08C0F9D1F01965A
:104200000E940E09882309F45FCCC654DF4F188141
:10421000CA5BD040C754DF4F9881C95BD04088E06B
:10422000E1E0F1E0DE01AF54BF4F01900D928A95BD
:10423000E1F789E1E9E0F1E0DE01A856BF4F019026
:104240000D928A95E1F7193009F46EC008F058C054
:10425000113008F40DCF933109F036C1E1EBF0E0F5
:10426000EC0FFD1FE10FF11D3197008180918C0152
:10427000833008F05FC1823009F030C160E070E443
:10428000113071F48EE190E0A0E0B0E080938801FD
:1042900090938901A0938A01B0938B0160E07EE343
:1042A00001E02DE831E04EE851E088E891E00E941D
:1042B0008E13113009F0DCCE809188019091890134
:1042C000A0918A01B0918B01809383019093840126
:1042D000A0938501B093860180918E018093820125
:1042E00080918D01809381011093870100E02DE87A
:1042F00031E04EE851E060E072E088E891E011C002
:104300001A3009F0B5CE80918701882309F4D1C015
:1043100001E021E831E042E851E060E072E083E84A
:1043200091E00E948E13A4CE10928E0110928D0106
:104330001092870160E070E0CB010E94610847E5C0
:1043400050E0BE016F5F7F4F8AE694E00E947D0CD3
:10435000FE01E856FF4F9F01275E3F4FCE01885A6E
:104360009F4FA19141E050E04C0F5D1F4A0F511D3E
:10437000DA014C91DC014D93CD012E173F0789F7EF
:104380008C8D811184E0AC968FAFAC973D85832FE7
:1043900090E02C8530FB27F9AD962FAFAD972E8D91
:1043A0002370E2962FAFE297959587958770E396F5
:1043B0008FAFE39780E3E6968FAFE69784E0E796CA
:1043C0008FAFE7979F818885292F282BD9F1E49615
:1043D0009FAFE497E5968FAFE59783E0E8968FAFC0
:1043E000E89782E035FF81E080938C0190918C0109
:1043F000A8E5B0E0AC0FBD1F9096FE0131969E017E
:104400002D5E3F4F80E0973108F086A18D93319665
:104410002E173F07B9F7E8E5F0E0EC0FFD1FF19626
:104420008FEF81938E169F06E1F7C956DF4F888381
:10443000C759D04060E470E0CE01885A9F4F0E9477
:10444000D60916CE8F8D80938C0199A1E4969FAFEB
:10445000E4979AA1E5969FAFE597863329F18733D4
:10446000E9F0873139F48BA1833008F583E0E896D1
:104470008FAFE897E8968FADE897883021F49CA13C
:10448000E6969FAFE6979EA197FFB0CF833009F0E5
:10449000ADCF81E0E8968FAFE897A8CF68968FAD53
:1044A0006897E7968FAFE7978BA18430F8F288E0A2
:1044B000DECF60918301709184018091850190919C
:1044C000860140E052E0E5CD04E0123009F4CECEA2
:1044D00008E0133009F0CACE05E0C8CE1230E1F092
:1044E000133009F1113009F0C3CD40E05EE36EE115
:1044F00070E080E090E00E94960D8EE19EE3A0E0E7
:10450000B0E08093830190938401A0938501B093E0
:10451000860110928701ACCD40E050E46EE170E47A
:1045200080E090E0B6CD40E050E46EE170E880E0DD
:1045300090E0AFCDC82ED12C90E2C90ED11C0D2C2D
:10454000000CEE08FF08D701C6010396A11DB11D9E
:104550008093880190938901A0938A01B0938B0185
:1045600080917A0490917B04A0917C04B0917D04A9
:10457000C816D906EA06FB0621F0C701B6010E945B
:1045800061088AE694E00E9447135C018AE694E0A1
:104590000E944713CE53DF4F8883C25CD040CF5375
:1045A000DF4F1882C15CD040CF53DF4FA881B98163
:1045B000C15CD040AA0EBB1E26013701BFEFAB166F
:1045C000BB0621F5E0E45E0E611C711C7301620103
:1045D000F3E0CF0ED11CE11CF11C8AE694E00E94AE
:1045E00047130813B0CF113009F0F3C460E07EE345
:1045F000AB20A09481F4C301B2016D5F7F438109B8
:10460000910940E05EE30E94960D15C04A0C5B1CC8
:10461000611C711CDBCF10928E0110928D0101E0A4
:104620002DE831E04EE851E088E891E00E948E13D9
:10463000113009F01DCD8091880190918901A091E0
:104640008A01B0918B018093830190938401A093A0
:104650008501B093860180918E01809382018091C3
:104660008D018093810181E08093870101CD61E01C
:1046700089EB90E08C0F9D1F01960E940E09882304
:1046800009F422CAC654DF4FD880CA5BD04040EB41
:1046900051E065E971E08AE694E00E947D0C05E94D
:1046A00011E055E4E52E53E0F52E6DE1D8018D9132
:1046B0008D010E94BA09E016F106B9F7B0E1DB12EC
:1046C00003CA8BCBC114E2E0DE06E104F10418F565
:1046D000260137015201A20165E971E08AE694E002
:1046E0000E947D0C05E911E06DE1D8018D918D01ED
:1046F0000E94BA09C801855991408A159B05A0F30B
:10470000C418D508E608F708E9F667CBC12C4BE1D9
:10471000D42EE12CF12C412C32E0532E612C712C43
:10472000D9CF61E089EB90E08C0F9D1F01960E942C
:104730000E09882309F4C8C9C654DF4FD880CA5B64
:10474000D04021E0D21213C0809182049091830462
:10475000A0918404B09185048B31904CA105B105E2
:10476000F1F46BE170E090E080E00E94610840EBC2
:1047700051E065E971E08AE694E00E947D0C05E96C
:1047800011E095E4E92E93E0F92E6DE1D8018D91C9
:104790008D010E94BA09E016F106B9F78FCF6DE1DD
:1047A00070EC80E090E00E9461088AE694E00E944C
:1047B000471383FFD6CF877099276BE170E807977F
:1047C00091F260918204709183047054CCCF84E0A4
:1047D00080938C01C090B301D12CF0E2CF0ED11C9C
:1047E0000D2C000CEE08FF08D701C6010396A11D91
:1047F000B11D8093880190938901A0938A01B093A1
:104800008B0180917A0490917B04A0917C04B091FB
:104810007D04C816D906EA06FB0621F0C701B601D9
:104820000E9461088AE694E00E9447138C018AE6A0
:1048300094E00E944713CC53DF4F8883C45CD04080
:10484000CD53DF4F1882C35CD040CD53DF4F48813A
:104850005981C35CD040040F151F0F3F1007C9F4E6
:1048600080E4D80EE11CF11C93E0C90ED11CE11CC0
:10487000F11C8AE694E00E944713883009F0B4CF17
:104880000F3F1F4F81F483E080938C01DDC981E0ED
:10489000CDC9C00ED11EE11CF11CE6CF833079F0EA
:1048A000843009F0DBC901E02DE831E04EE851E049
:1048B00060EB71E088E891E00E948E13CFC96091AF
:1048C00088017091890180918A0190918B0140EB60
:1048D00051E00E94960D8091880190918901A091EC
:1048E0008A01B0918B0180559E4FAF4FBF4F80938F
:1048F000880190938901A0938A01B0938B01AEC97E
:10490000803309F06ACA8FEF8093A10260EE7FE3E3
:1049100080E090E00E94610848E050E069E972E0C0
:104920008AE694E00E947D0C80919902863751F4CA
:1049300010919B021E3209F498C010919C021E3205
:1049400009F4B8C08FEF8093990269E070E089E9BB
:1049500092E00E94D6098091A10281508E3F08F01A
:104960003CCA65E070E080E090E00E947A0211E0CD
:1049700000E283E0F82E8091A102811708F4F3C0D1
:1049800080919702853040F04FE150E060E070E0A8
:104990008AE694E00E94430A80919702843009F0ED
:1049A000BAC041E250E062EA72E08AE694E00E9416
:1049B0007D0C1092C302F092C4021092C60245E62A
:1049C00051E060E070E08AE694E00E94430A64E20D
:1049D00070E082EA92E00E94D609809197028530C9
:1049E00009F0BCC08091980244E450E060E070E0BF
:1049F000882321F04FE350E060E070E08AE694E025
:104A00000E94430AAEC06EE170E080E090E00E9438
:104A100061088AE694E00E9447138093970262E25D
:104A200070E080E090E00E9461088AE694E00E94D5
:104A300047138093980265E270E080E090E00E9466
:104A400061088AE694E00E944713809399026DE121
:104A5000809197020E94BA096DE1809198020E94AC
:104A6000BA096DE18091990251C910929B028AE9BD
:104A700092E00E94F627809397028CE992E00E94D0
:104A8000F6278093980210939B02809197028530BD
:104A900051F108F5843009F058CF64E87CE180E0FA
:104AA00090E00E9461088AE694E00E944713809398
:104AB000A1024BCF10929C028AE992E00E94F62755
:104AC000809397028DE992E00E94F62780939802E6
:104AD00010939C02DACF8F3F08F037CF60E07EE082
:104AE00080E090E0DECF8091980281110FC060E0FD
:104AF0007AE080E090E00E9461088AE694E00E94FB
:104B000047138093A1028F3F09F01FCF60E07CE044
:104B100080E090E0C6CF8EE594E00E945E1342E014
:104B200050E062EA72E08AE694E00E947D0C009315
:104B3000A4024EE150E065EA72E08AE694E00E9449
:104B40007D0C8EE594E00E945E1343E050E063EC40
:104B500072E08AE694E00E947D0C39CF843009F03F
:104B600049CF1F5F08CF88B18F6088B9599A35C97E
:104B700064E070E080E090E00E9461084AE050E06C
:104B800067E972E08AE694E00E947D0C1092A1022F
:104B90001092A2021092A3021092A402C090A1024D
:104BA000D090A202E090A302F090A402809182042F
:104BB00090918304A0918404B0918504C816D9060D
:104BC000EA06FB0608F08FC08EE594E00E94240AF6
:104BD000892B09F488C0C701B6010E94610842E030
:104BE00050E069EA72E08AE694E00E947D0C8091D0
:104BF000A9029091AA02439709F049C08AE694E07D
:104C00000E9447138093A702811141C08AE694E075
:104C10000E9447138093A702833041F44CE050E098
:104C200060E070E08AE694E00E94430A42E050E0CF
:104C30006FEA72E08AE694E00E947D0C8091AF02F8
:104C40009091B0028115904411F546E050E060E08B
:104C500070E08AE694E00E94430A81E08093960225
:104C6000E7E9F2E021EA32E090E281918052803679
:104C700018F0DF0111979C932E173F07B1F76BE0F7
:104C800070E086E992E00E94D6090C94641D809140
:104C9000A9029091AA0282309B41E1F08091A10289
:104CA0009091A202A091A302B091A4020296A11D2C
:104CB000B11D2091A9023091AA02820F931FA11D5C
:104CC000B11D8093A1029093A202A093A302B0937E
:104CD000A40264CF8AE694E00E9447138093A7025F
:104CE0008F3FE1F6BACF80E0B9CF65E089EB90E085
:104CF0008C0F9D1F01960E940E09882311F40C94BD
:104D0000641D65E070E080E090E00E947A0280918E
:104D10007A0490917B04A0917C04B0917D04039669
:104D2000A11DB11D80938F0190939001A0939101DB
:104D3000B093920140918204509183046091840465
:104D400070918504481759076A077B0788F460E06B
:104D500070E0CB010E94610883E090E0A0E0B0E049
:104D600080938F0190939001A0939101B093920151
:104D700042E050E0B1018AE694E00E947D0CC0540C
:104D8000DF4F88819981C05CD0400297C054DF4FCB
:104D900099838883C05CD0408AE694E00E944713E0
:104DA000C154DF4F8883CF5BD040C654DF4F98811A
:104DB000CA5BD040891759F18FEFCE53DF4F8883FC
:104DC000C25CD040CD53DF4F19821882C35CD04003
:104DD000CB53DF4F19821882C55CD04065E070E08C
:104DE00089EB90E08C0F9D1F09960E94D609C05454
:104DF000DF4F48815981C05CD0404F5F5F4F70E00A
:104E000060E08AE694E00E94430A0C94641DC95352
:104E1000DF4F19821882C75CD040C554DF4F28810C
:104E20003981CB5BD040C054DF4F88819981C05C11
:104E3000D0402817390709F09FC0CE53DF4F1882A2
:104E4000C25CD040CD53DF4F39832883C35CD04050
:104E5000C354DF4F28813981CD5BD040CB53DF4F26
:104E600039832883C55CD040211590E4390770F55B
:104E700040918F0150919001609191017091920148
:104E8000CD53DF4F88819981C35CD040820F931F3F
:104E90009054CD53DF4F99838883C35CD04080E02A
:104EA00090E4DC01A21BB30B4A0F5B1F611D711D57
:104EB00040938F0150939001609391017093920100
:104EC000CB53DF4F99838883C55CD040CD53DF4FF0
:104ED00028813981C35CD040CB53DF4F88819981D1
:104EE000C55CD04044275527421B530B4817590730
:104EF00088F4280F391FC953DF4F39832883C75CD3
:104F0000D040919581959109CD53DF4F9983888346
:104F1000C35CD04065E070E089EB90E08C0F9D1F92
:104F200009960E94D6098BE891E00197F1F7CD53DD
:104F3000DF4F48815981C35CD04060918F017091EF
:104F4000900180919101909192010E94960DC95318
:104F5000DF4F48815981C75CD0404115510531F080
:104F600070E060E08AE694E00E94430A8EE594E0F7
:104F70000E945E130C94641D28173907A8F441E0C1
:104F8000CE53DF4F4883C25CD040CD53DF4F3983CF
:104F90002883C35CD040821B930BC953DF4F998396
:104FA0008883C75CD04054CF22E0CE53DF4F2883A4
:104FB000C25CD040CD53DF4F99838883C35CD0401F
:104FC00047CF60E08FEE0C94F81E0E948A190C9473
:104FD000641D60E070E4AB20A09409F01CCBC30119
:104FE000B2016D5F7F438109910901C9FC018827E6
:104FF0009927E89421912032E9F3293010F02E30DE
:10500000C8F32B3241F02D3239F4689404C00E9469
:105010003228820F911D219120532A30C0F31EF4B3
:10502000909581959F4F0895DC01FB0141505040C0
:1050300058F049F001900D920020C1F7E61BF70BE4
:105040003197CF0108951C9201900020E9F7F6CF27
:10505000DC016C9161566A3108F0605E6F5B6D93A4
:10506000C1F708957AE0979F902D879F802D910D2D
:1050700011240895AA1BBB1B51E107C0AA1FBB1F27
:10508000A617B70710F0A61BB70B881F991F5A95D4
:10509000A9F780959095BC01CD010895EE0FFF1FF3
:1050A0000590F491E02D09949111089581548A514D
:1050B00008F4805E855A08959111089581568A51A9
:1050C00008F4805285580895FB01DC0104C08D91DD
:1050D0000190801921F441505040C8F7881B990B6A
:1050E0000895FB01DC0102C001900D924150504037
:1050F000D8F70895FB01DC018D9101908019011012
:0A510000D9F3990B0895F894FFCF3E
:10510A0003080503040607090A0A131411120F10EB
:10511A00161504050D0E02031718191A1B0B0100A8
:10512A0008094D554C5476312E32000000002C01EE
:10513A008C00B9007901EA00C800DC000000000018
:10514A006B0C680C600A210A240A5E138B132E5317
:10515A004E41002E534352002E524F4D004D4C44A7
:0E516A00002E5A3830002E544150002F000005
:00000001FF
