:100000000C945D000C9485000C9485000C94850084
:100010000C9485000C9485000C9485000C9485004C
:100020000C9485000C9485000C9485000C9485003C
:100030000C9485000C9485000C9485000C9485002C
:100040000C940D190C9485000C94860D0C94600D85
:100050000C9485000C9485000C9485000C9485000C
:100060000C9485000C9485000000000024002700FB
:100070002A0000000000250028002B0004040404CE
:100080000404040402020202020203030303030342
:10009000010204081020408001020408102001021F
:1000A00004081020000000080002010000030407FB
:1000B0000000000000000000352411241FBECFEF17
:1000C000D8E0DEBFCDBF11E0A0E0B1E0EAE1FAE4A4
:1000D00002C005900D92AE38B107D9F726E0AEE820
:1000E000B1E001C01D92A93FB207E1F710E0CDE5F4
:1000F000D0E004C02197FE010E94D124CC35D10765
:10010000C9F70E9457190C940B250C9400002F92EC
:100110003F924F925F926F927F928F929F92AF9297
:10012000BF92CF92DF92EF92FF920F931F93CF93E4
:10013000DF9300D01F92CDB7DEB77C017B836A834B
:10014000FA016115710509F4EDC0DB018C9180772E
:1001500009F4E8C0D7018C918111E4C0C180D2803C
:100160008081837009F4CEC0C6010C966DE070E00A
:100170000E94BD2433243394360E8F018A819B81E3
:100180000E94510B1982812C212C912C5801B6E030
:10019000AB0EB11CEA81FB8140885188628873886C
:1001A00061E0CF010E94B011009709F4BBC0DC01EF
:1001B0002C91253E39F0222309F4B1C0231408F410
:1001C000A4C008C0231440F42394222309F4AAC035
:1001D000253E11F02E3211F4912CDCCFFC01338539
:1001E0003F3009F052C0911008C026FFD3CF2F71C5
:1001F000822EF585F983922E07C08A942811ECCFC0
:100200002585B9812B13E8CF482D50E04150510985
:10021000EDE0E49F9001E59F300D11242C153D0584
:10022000D8F6FC01712C64E0671518F08181928189
:1002300008C08AE0871518F08481958102C0868104
:100240009781C216D30621F4892B09F4A3CFC4CF1A
:100250008F3F910509F000F64FEB480F4A3108F443
:10026000805EB9016F5F7F4FD80113964D915C910D
:100270001497240F351FD9019C912FEB290F2A3198
:1002800008F4905E9813A8CF42C033FDA5CF992003
:1002900049F0B1E08B1246C00E948F10E981E8134B
:1002A00041C00CC04BE050E0B5010E94EC24892B0A
:1002B00009F070CFD8018C9180FD6CCFB301A20101
:1002C00085E076956795579547958A95D1F7292DBD
:1002D0006A817B81C7010F900F900F90DF91CF91C2
:1002E0001F910F91FF90EF90DF90CF90BF90AF9054
:1002F0009F908F907F906F905F904F903F902F9046
:100300000C9459183324339438CF212C63CF739431
:100310003296BDE07B1609F43DCF9B0184CF2314B8
:1003200008F452CF80E00F900F900F90DF91CF91A3
:100330001F910F91FF90EF90DF90CF90BF90AF9003
:100340009F908F907F906F905F904F903F902F90F5
:1003500008952F923F924F925F926F927F928F9269
:100360009F92AF92BF92CF92DF92EF92FF920F9344
:100370001F93CF93DF93CDB7DEB7E5970FB6F89411
:10038000DEBF0FBECDBF7C018A0119821A82DC015B
:100390008C9181115BC16115710509F457C1FB0195
:1003A0008081807709F452C1FA0180818F32C9F4CB
:1003B0008F0181918F32E1F3DB0116966D917C9173
:1003C0001797811104C0C7010E942F0871C1CE0187
:1003D00001960E942F08882309F438C1BE016F5F7F
:1003E0007F4FFE01F296FBABEAABB0E26B2EF80159
:1003F0009F012F5F3F4F8081803211F4F901F8CFC8
:10040000FDA3ECA39F01A9014E1B5F0B8901D9013C
:100410008D919D01882341F18F3221F4CF01840F0A
:10042000951F1BC08C3509F411C1982F977F92320C
:1004300009F40CC18A3309F409C1982F9F7B9C33BE
:1004400009F404C192EC980F923008F4FFC0805276
:100450008F35C8F2FBC02F3239F48C01DC012D91AD
:10046000CD012032C1F7F9CFDA01AE0FBF1FAD01C8
:100470004E1B5F0BEA17FB0759F08E918E32B9F3D2
:100480008032A9F34F3F510511F00CF0DFC002C0DC
:1004900040E050E05BA34AA3DE0197965D016D92B8
:1004A0008AA99BA9A817B907D1F79F01C9018E1B7B
:1004B0009F0BD901DD909D01BEE2DB16B9F3A0E2EE
:1004C0003A2ED31499F388248394009709F0812C51
:1004D0009A01215031096F01C40ED51E2F3FAFEF95
:1004E0003A0749F45EA0712CB7E0BCAB312C912CDB
:1004F000B8E04B2E55C0D6019E906D01BEE29B1612
:1005000089F321503109EACF6F01C80ED91ED601F7
:10051000BC91BDABB03209F474C0BE3209F045C025
:100520008217930709F06DC0A6EDDA2EBDA9DB0E88
:10053000A5E0AD1508F040C0B6ECDB2EBDA9DB0E82
:10054000A5E0AD15E0F5A5EADA2EDB0EB2E0BD15AB
:10055000B0F5AFEDDA2EADA9DA0EBDE5BD1578F137
:100560008217930709F496C0ACA9A315D8F1DDA8AA
:10057000BFE9CB2ECD0CB9E1BC1568F1AD2DA05271
:10058000ADAB742822242394230C6501C30CD11C29
:100590003DA8D6013C92A6E0A215A8F5322C019602
:1005A000841795070CF4B0CF31C0ADA9A23239F051
:1005B000AC3709F0B9CF03C0BD3209F4BDCF821703
:1005C000930709F467C0ACA9A31560F0812CAFE5CF
:1005D000DA2EBFE5BDABBFEBDB0EA9E1AD1590F2A6
:1005E0009428D0CFBCA9BA3009F45FC028173907C6
:1005F0000CF45BC0C901BAE0BCABB8E03B2EA0E193
:100600004A2E812CCCCF522C322CC9CF5EA28FA186
:100610008032E1F0882041F0872D892111F4872D67
:1006200001C082E089A314C081E089A38EA190E07B
:10063000D501A80FB91F2EE72C93E8E2F0E0EC0FEC
:10064000FD1FE80FF91F21E3208302C080E030C0C6
:10065000D8018C918823B9F0AE014F5D5F4FC7017F
:100660000E948700882391F380E2F701DE01119652
:1006700001900D928A95E1F7C7010E944908BE01D9
:100680006F5F7F4FB4CEAE014F5D5F4FC7010E94D9
:1006900087000EC08CA98A3041F0C901AAE0ACAB3A
:1006A000B8E03B2EA0E14A2E7ACF5EA2812CAFCFDC
:1006B000E5960FB6F894DEBF0FBECDBFDF91CF91A8
:1006C0001F910F91FF90EF90DF90CF90BF90AF9070
:1006D0009F908F907F906F905F904F903F902F9062
:1006E00008950F931F93009190041091910420910D
:1006F000920430919304AB01BC01400F511F621F63
:10070000731F80E894E01F910F910C94EC1087EC1C
:1007100096E0892B29F09091C706907781E009F443
:1007200080E00895FC01148615861382128288EEFB
:1007300093E0A0E0B0E084839583A683B7838EE244
:1007400091E0918380830895AB01BC0180E894E03F
:100750000C94EC10CF92DF92EF92FF920F931F93C5
:10076000CF93C82F1092A50481E090E0A0E0B0E004
:100770008093A8049093A904A093AA04B093AB0417
:1007800080EA94E09093C2048093C1041092C00464
:100790008FEF9FEFDC018093C3049093C404A09378
:1007A000C504B093C604CC2331F1C53008F0DEC0D7
:1007B00020E040E050E0BA0180EC94E00E945E0F3F
:1007C000009709F4D3C000E1C09F800D911D112452
:1007D0004097FC01E254FE4F20812F7709F0C6C0FC
:1007E0003896C080D180E280F380C114D104E10446
:1007F000F10421F4BBC0C12CD12C760120E0B7015B
:10080000A60180EC94E00E945E0FFC01892B09F4A4
:10081000ADC0838594858115924009F0A7C0808979
:10082000823009F0A3C0268537852115310509F4EA
:100830009DC095859093A2048FEF890F8093A304A8
:10084000C0E081E0981751F041E04C0F493019F4B5
:10085000C093A4048BC0880FC42FF4CFC093A4040A
:10086000468957894115510519F060E070E004C0D0
:1008700044A155A166A177A14093AC045093AD0467
:100880006093AE047093AF04D701C601820F931F2B
:10089000A11DB11D8C019D018093B4049093B504FA
:1008A000A093B604B093B704818992899093A7046A
:1008B0008093A604440F551F661F771F400F511FDA
:1008C000621F731F4093BC045093BD046093BE0429
:1008D0007093BF04B5E0880F991FBA95E1F7815076
:1008E0009E4F892F99278695480F591F611D711DAD
:1008F0004093B0045093B1046093B2047093B30476
:10090000238934892115310521F0C901A0E0B0E027
:1009100004C080A191A1A2A1B3A197018601041BEB
:10092000150B260B370BB901A801480F591F6A1F79
:100930007B1F04C07695679557954795CA95D2F762
:10094000DB01CA010196A11DB11D8093B8049093EB
:10095000B904A093BA04B093BB04453F1FE051070C
:100960006105710528F48CE08093A50480E017C030
:10097000453F5F4F6105710510F480E10DC084A50E
:1009800095A5A6A5B7A58093BC049093BD04A0939C
:10099000BE04B093BF0480E28093A50481E0CF91B0
:1009A0001F910F91FF90EF90DF90CF90089587EC0B
:1009B00096E00E94490860EA74E087EC96E00E94A5
:1009C0002F0881110C94870380E00895CF93DF9363
:1009D000CDB7DEB7A0970FB6F894DEBF0FBECDBF80
:1009E00019821A828091AA018F3239F48091AB0169
:1009F000811103C00E94D70418C04AEA51E067EC95
:100A000076E0CE0101960E94A901882371F09981B8
:100A1000907751F090E2FE013196A7ECB6E001909C
:100A20000D929A95E1F701C080E0A0960FB6F89478
:100A3000DEBF0FBECDBFDF91CF910895CF93DF937F
:100A4000EB0120E2FB013C96DC011C9601900D922B
:100A50002A95E1F72A813B81FC01338322834C8173
:100A60005D816E817F81448355836683778348856A
:100A700059856A857B854087518762877387DF91B7
:100A8000CF910895CF92DF92EF92FF920F931F9331
:100A9000CF93DF936A010E94A40300E010E00C15DD
:100AA0001D0518F5E601C01BD10BC11582E0D80762
:100AB00010F0C0E0D2E0AE016AEA71E080E894E0B4
:100AC0000E9414078AEAE82E81E0F82E6DE1F70112
:100AD00081917F010E946409C7018A5A91408C1755
:100AE0009D07A0F30C0F1D1FDACFDF91CF911F914F
:100AF0000F91FF90EF90DF90CF9008950F931F9389
:100B0000CF93DF93EC018C01060F171FC017D1079D
:100B100029F06DE189910E946409F8CFDF91CF91AE
:100B20001F910F9108953F924F925F926F927F9223
:100B30008F929F92AF92BF92CF92DF92EF92FF92ED
:100B40000F931F93CF93DF93CDB7DEB7A0970FB668
:100B5000F894DEBF0FBECDBF7C018B016A01198204
:100B60001A82DC018C918823E9F04D305105D0F0D8
:100B7000D70113969C919923C9F0F701808591853F
:100B8000A285B385668177819E012F5F3F4F590112
:100B90000097A105B10509F05FC0C9010E942F08A7
:100BA000811169C0F8011082712CE7C0807629F0AC
:100BB0008FE2F801808311824CC0D70154964D9189
:100BC0005D916D917C91579716968D919C91179799
:100BD00020E080960E945E0F009731F3D7011496B3
:100BE000ED91FC911597EF70FF2725E0EE0FFF1FA9
:100BF0002A95E1F77F01E80EF91EE114F104A1F254
:100C0000D70148E080E090E05EE22C912032C9F00C
:100C1000983039F49801280F311DF90150838F5F06
:100C200040E12C913FEB320F3A3128F4F701348543
:100C3000342309F0205EB801680F711DFB01208389
:100C40008F5F9F5F11969B3001F7F801E80FF11D50
:100C500010827724739491C020E2F50111922A95B5
:100C6000E9F720E1298321E02B8378876F838D8F3B
:100C70009E8FAF8FB8A3662463949DE0392E280120
:100C80004C0C5D1CF1E04F1A5108D70113968C9162
:100C90001397861508F486CF862C912C14964D91C7
:100CA0005C9115974819590960E070E085E0440FA0
:100CB000551F661F771F8A95D1F7C5010E94EC105A
:100CC000782E882309F46ECF60E0C5010E94B01130
:100CD000FC01892B09F466CF83858F3009F062CF40
:100CE00080818F7190E08816990609F05BCFB1E0A2
:100CF0008B1A9108389C9001399C300D1124C80141
:100D0000820F931F4F0160E0D401653028F41196E3
:100D10004D915C9112970BC06B3028F414964D9155
:100D20005C91159704C016964D915C9117974115EB
:100D3000510591F02C153D05C8F42F5F3F4F4F37FB
:100D4000510508F04FE3DC014D93CD016F5FB2E038
:100D50008B0E911C6D30C1F62C153D0538F4808149
:100D600086FF04C0D801A20FB31F1C92D2011C92AF
:100D7000808186FD02C0639488CF872DA0960FB630
:100D8000F894DEBF0FBECDBFDF91CF911F910F91C1
:100D9000FF90EF90DF90CF90BF90AF909F908F909B
:100DA0007F906F905F904F903F900895FC018485F5
:100DB00083FF0DC084A195A1A6A1B7A1448D558D37
:100DC000668D778D841B950BA60BB70B03C080E057
:100DD00090E0DC01811520E89207A105B10520F023
:100DE0008FEF9FE7A0E0B0E00895089580E090E0E5
:100DF00008950C960C949E100C960C94F716CF93B5
:100E0000DF931F92CDB7DEB7698341E050E0BE01AA
:100E10006F5F7F4F0C960E94F7160F90DF91CF9176
:100E200008950C960C94CD164F925F926F927F921C
:100E30008F929F92AF92BF92CF92DF92EF92FF92EA
:100E40000F931F93CF93DF93EC014B018A018881AD
:100E50008823D9F09A8190FF18C01DC0D380D42276
:100E6000A114B10409F081C0D1107FC0892B8A2B55
:100E70008B2B09F464C04C855D856E857F8592015E
:100E8000CF010E940F1087FF6AC089818260898329
:100E90008FEF9FEFD3C083FF15C0888D998DAA8DEA
:100EA000BB8D488959896A897B89841B950BA60B60
:100EB000B70BA80160E070E0481759076A077B0785
:100EC000A0F012C085FF11C0EE81FF81868197815D
:100ED00055E0880F991F5A95E1F728893989821BB7
:100EE000930B8017910708F48C0178012E012CE0F8
:100EF000420E511C612C42E0742EE114F10409F4FD
:100F000065C088899989AA89BB895C0121E0B222E0
:100F10002881EE81FF81AC01BD0139E076956795AE
:100F2000579547953A95D1F725FF98CF848D958DA4
:100F3000A68DB78D480F591F6A1F7B1F34C026FF2F
:100F400005C0848D958DA68DB78D04C08C8D9D8D2B
:100F5000AE8DBF8D8C879D87AE87BF8706C0811100
:100F600004C08881807791F590CFEE81FF814C8518
:100F70005D856E857F854250510961097109048044
:100F800004C0440F551F661F771F0A94D2F780894B
:100F90009189A289B389480F591F6A1F7B1F4D0D84
:100FA000511D611D711DEE81FF81A114B10471F508
:100FB000E11482E0F80650F183A194A1A5A1B6A1A5
:100FC000481759076A077B0729F420C0C8018E1902
:100FD0009F0934C09401808191810E94BB0E8823B7
:100FE00009F453CFC12C82E0D82E8C0C9D1C88892B
:100FF0009989AA89BB898C0D9D1DA11DB11D888B66
:10100000998BAA8BBB8BEC18FD0877CFC3018A198B
:101010009B0967018E159F0508F46C0120E0CF0144
:1010200080960E945E0F009709F42FCFBC016A0DD5
:101030007B1DA601C4010E94F924D7CFDF91CF9177
:101040001F910F91FF90EF90DF90CF90BF90AF90E6
:101050009F908F907F906F905F904F900895FC01CC
:101060008081811114C080E2DF01982F1D929A9532
:10107000E9F777836683DB0115969C91903119F02F
:10108000903229F480E4808381E08283089580E0B7
:101090000895CF93DF93EC010E949E101882DF9198
:1010A000CF9108953F924F925F926F927F928F926D
:1010B0009F92AF92BF92CF92DF92EF92FF920F93E7
:1010C0001F93CF93DF9300D000D0CDB7DEB74C0194
:1010D000FC018281846082834484558466847784A1
:1010E000A680B780F501C084D184E284F384C4145F
:1010F000D504E604F704C0F47301620110E0FFEFC9
:10110000CF1ADF0AEF0AFF0AF501808D918DA28DBB
:10111000B38D8C159D05AE05BF0540F4111132C08D
:10112000C084D184E284F38411E0E9CF4C145D04DF
:101130006E047F0439F19E012F5F3F4FB701A60176
:10114000C5010E940F1087FD1DC08823C1F289814F
:101150009A81AB81BC81892B8A2B8B2B81F6112341
:1011600029F0F501C086D186E286F3860FEF1FEFE6
:101170002FEF3FE0B701A601C5010E949E0F382E58
:10118000811102C0312C15C0411451046104710455
:1011900031F4F401C486D586E686F7860AC0970145
:1011A0008601B301A201C5010E949E0F8111F1CFFA
:1011B000E9CF832D0F900F900F900F90DF91CF917B
:1011C0001F910F91FF90EF90DF90CF90BF90AF9065
:1011D0009F908F907F906F905F904F903F90089579
:1011E000CF92DF92EF92FF920F931F93CF93DF93F3
:1011F000F82EC92FD62F0E9401190F2D1C2FC0E0E9
:101200006B017C0128EEC20E23E0D21EE11CF11C12
:10121000CD17C1F00E9401196C157D058E059F0543
:1012200088F48BEA93E00E94AD0C892B89F38BEA5A
:1012300093E00E948B0CF80181938F01CF5F0E9495
:101240000119DECF81E0DC1380E0DF91CF911F91A7
:101250000F91FF90EF90DF90CF900895CF92DF92A3
:10126000EF92FF929091C10098609093C100662325
:1012700029F0682F8BEA93E00E94E50C0E94011987
:101280006B017C0120EAC20E2FE0D21EE11CF11C92
:101290000E9401196C157D058E059F0558F48BEA97
:1012A00093E00E94AD0C892B99F38BEA93E00E94A6
:1012B0008B0CDFCF8091C100877F8093C100FF90AE
:1012C000EF90DF90CF900895982F92959F70909512
:1012D00098B95998EFE1F0E03197F1F7809588B926
:1012E000599A862F90E08230910538F0880F991F27
:1012F000880F991F05970197F1F7089563E20C9401
:101300006409199BFECF8091C100877F8093C10043
:1013100088B18F6088B987B18F6087B9599A519A1F
:1013200008958F929F92AF92BF92CF92DF92EF92E9
:10133000FF920F931F93CF93DF93CDB7DEB7AC9798
:101340000FB6F894DEBF0FBECDBF21982998E0916B
:10135000BB03F091BC0382E08083E091BB03F0917A
:10136000BC031082E091B703F091B8031082E091C2
:10137000B903F091BA0380E180831092C303E09136
:10138000BF03F091C0038EE08083E091BD03F09134
:10139000BE03808180618083E091BD03F091BE0334
:1013A000808188608083E091BD03F091BE038081DD
:1013B00080688083E091BD03F091BE0380818F7DC2
:1013C00080838091C100877F8093C10062E082E0CA
:1013D0000E94571662E083E00E94571662E084E0A4
:1013E0000E94571662E085E00E94571662E086E090
:1013F0000E9457161092EA061092E7061092EC0629
:101400008DEE96E09093E9068093E8060E9401191C
:101410006B017C010091E8061091E9068AE0F80171
:10142000828361E00E94571661E0F80182810E9488
:101430000A161FB7F8948091AA03811127C0E6E825
:10144000F0E08491EAE9F0E09491E82FF0E0EE0F0B
:10145000FF1FE859FF4FA591B491EC91E92321F4C6
:1014600061E08AE00E940A1661E08AE00E94571655
:101470008CB580618CBD8CB580648CBD61E08DE0E5
:101480000E94571661E08BE00E9457168091AA03D4
:101490008F5F8093AA031FBFE091E806F091E906F1
:1014A00082E5808311828091EA06811104C087EE73
:1014B00096E00E94B80DE091E806F091E90661E03F
:1014C00082810E940A161AE08FEF0E94CC0D115003
:1014D000D9F7E091E806F091E90660E082810E9488
:1014E0000A161AE020E030E0A90160E087EE96E0FD
:1014F0000E94080E082F813091F0115011F480E203
:1015000061C08DEF0E94CC0D98E0A92E92E0B92E1B
:101510000E94D10DF1E0AF1AB108D1F7E3CF2AEA6A
:1015200031E040E050E068E087EE96E00E94080E6F
:10153000853019F40093EC060FC014E00E94D10D21
:101540008093EB061150D1F78A3A21F482E0809320
:10155000EC0602C085E236C08091EC06823021F0B4
:10156000812C912C540105C0812C912CA12C80E45C
:10157000B82E20E030E0A90167E387EE96E00E94F4
:10158000080EA501940169E287EE96E00E94080E1C
:10159000882349F00E9401196C197D09613D77404B
:1015A00040F383E40FC08091EC06823001F520E027
:1015B00030E0A9016AE387EE96E00E94080E8823D6
:1015C00041F087E38093E70687EE96E00E94F30DF3
:1015D0003CC00E94D10D807C803C19F483E0809354
:1015E000EC060E94D10D0E94D10D0E94D10D87EE14
:1015F00096E00E94F30DE091E806F091E90680E59F
:10160000808381E0818387EE96E09093A1048093AC
:10161000A00487EC96E00E94490881E00E94AA039A
:10162000882349F060EA74E087EC96E00E942F0876
:10163000882359F006C080E00E94AA038111F2CFEE
:1016400004C00E948703811128C00E948109CE0135
:1016500001960E9492034EE651E067EC76E0CE01DF
:101660000D960E94A901BE016F5F7F4F88E494E050
:101670000E941E05AC960FB6F894DEBF0FBECDBF1C
:10168000DF91CF911F910F91FF90EF90DF90CF905E
:10169000BF90AF909F908F90089581E080938E01CE
:1016A000D4CF40E050E0BA010C94EC10CF93DF931C
:1016B0001F92CDB7DEB741E050E0BE016F5F7F4FB4
:1016C0000E941407019719F4898190E002C08FEFFE
:1016D0009FEF0F90DF91CF9108954F925F926F929D
:1016E0007F928F929F92AF92BF92CF92DF92EF92B2
:1016F000FF920F931F93CF93DF937C014B016A01FD
:101700005901FC0160817181828193814090900434
:101710005090910460909204709093046415750544
:101720008605970511F00E94A403F60180818111BE
:1017300003C0C0E0D0E065C0F5011081C0E0D0E09A
:101740008C169D0609F49AC0F6018081882309F45D
:1017500058C0002321F06DE1812F0E946409F60139
:101760008081815080832196EBCF84E794E00E94B2
:10177000D606892B09F482C080E894E00E94560BBB
:10178000F70140815181628173814F5F5F4F6F4FDD
:101790007F4F40835183628373838D3E09F067C01E
:1017A00080E894E00E94560B182FF7018081918108
:1017B000A281B3810196A11DB11D80839183A28373
:1017C000B3831D3E91F580E894E00E94560BF6012C
:1017D000808380E894E00E94560BF5018083F70136
:1017E00080819181A281B3810296A11DB11D808368
:1017F0009183A283B383F5011081F6018081811169
:1018000005C0C815D90508F4B0CF38C0002321F0B1
:101810006DE1812F0E946409F601808181508083EF
:101820002196C815D90548F3ECCF002321F06DE1CE
:101830008DEE0E9464099E012F5F3F4F28153905E8
:1018400040F4002321F06DE1812F0E94640922966B
:10185000D8CFF70180819181A281B3810197A1093D
:10186000B10980839183A283B383E901CACF0023A6
:1018700019F06DE10E9464092196C3CFDF91CF91E9
:101880001F910F91FF90EF90DF90CF90BF90AF909E
:101890009F908F907F906F905F904F9008950C96DF
:1018A0000C94560BCF92DF92EF92FF920F931F93FF
:1018B000CF93DF936C017A018B01C0E0D0E0CE15AD
:1018C000DF0581F0D8016D918D01D601ED91FC917C
:1018D0000190F081E02DC6010995892B11F0219628
:1018E000EECF7E01C701DF91CF911F910F91FF9045
:1018F000EF90DF90CF900895FC01538D448D252FFC
:1019000030E0842F90E0821B930B541710F0CF9699
:10191000089501970895FC01918D828D981761F0CB
:10192000828DDF01A80FB11D5D968C91928D9F5F16
:101930009F73928F90E008958FEF9FEF0895FC01C1
:10194000918D828D981731F0828DE80FF11D858D74
:1019500090E008958FEF9FEF0895FC01918D228D07
:10196000892F90E0805C9F4F821B91098F7399278C
:1019700008958BEA93E00E94AD0C21E0892B09F4D5
:1019800020E0822F0895FC01848DDF01A80FB11D96
:10199000A35ABF4F2C91848D90E001968F739927A5
:1019A000848FA689B7892C93A089B1898C91837083
:1019B00080648C93938D848D981306C00288F3897C
:1019C000E02D80818F7D80830895EF92FF920F93A9
:1019D0001F93CF93DF93EC0181E0888F9B8D8C8DDB
:1019E000981305C0E889F989808185FD26C0F62E07
:1019F0000B8D10E00F5F1F4F0F731127E02E8C8DA2
:101A0000E8120CC00FB607FCFACFE889F98980818B
:101A100085FFF5CFCE010E94C30CF1CF8B8DFE0167
:101A2000E80FF11DE35AFF4FF0829FB7F8940B8F38
:101A3000EA89FB89808180620AC09FB7F894EE89A9
:101A4000FF896083E889F98980818370806480835D
:101A50009FBF81E090E0DF91CF911F910F91FF90A8
:101A6000EF900895CF93DF93EC01888D8823C9F020
:101A7000EA89FB89808185FD05C0A889B9898C9197
:101A800086FD0FC00FB607FCF5CF808185FFF2CF32
:101A9000A889B9898C9185FFEDCFCE010E94C30C36
:101AA000E7CFDF91CF91089580E090E0892B29F076
:101AB0000E94B90C81110C94000008950E94D72453
:101AC0001F920F920FB60F9211242F933F934F93B3
:101AD0005F936F937F938F939F93AF93BF93EF9396
:101AE000FF938BEA93E00E94C30CFF91EF91BF91AB
:101AF000AF919F918F917F916F915F914F913F91A6
:101B00002F910F900FBE0F901F9018951F920F925C
:101B10000FB60F9211242F938F939F93EF93FF9300
:101B2000E091BB03F091BC038081E091C103F0918F
:101B3000C20382FD12C090818091C4038F5F8F73B6
:101B40002091C503821751F0E091C403F0E0E55500
:101B5000FC4F958F8093C40301C08081FF91EF916A
:101B60009F918F912F910F900FBE0F901F901895FE
:101B7000CF93DF93EC01E981FA81908181819CBD53
:101B80008DBDE981FA8160E082810E940A1681E0C0
:101B90008B83DF91CF9108958EBD0DB407FEFDCFED
:101BA00008958FEF8EBD0DB407FEFDCF8EB508955D
:101BB0000F931F93CF93DF93EB010E9401198B01C9
:101BC0000E94D10D8F3F49F00E940119601B710BDB
:101BD000C617D707A8F780E001C081E0DF91CF9159
:101BE0001F910F910895CF93DF93FC01238122234E
:101BF00061F0EC010180F281E02D61E082810E94C0
:101C00000A168FEF0E94CC0D1B82DF91CF910895B1
:101C1000FF920F931F93CF93DF9300D000D0CDB7E7
:101C2000DEB78C01F62E29833A834B835C83FC015B
:101C30008381811103C0C8010E94B80DFF2029F0E3
:101C40006CE271E0C8010E94D80D8F2D80640E9463
:101C5000CC0D8C810E94CC0D8B810E94CC0D8A8191
:101C60000E94CC0D89810E94CC0DFF2011F087E8E5
:101C700001C085E90E94CC0D0E94D10D8BE0F82EA9
:101C80000E94D10DF801848387FF03C0FA94F110FC
:101C9000F7CF0F900F900F900F90DF91CF911F9182
:101CA0000F91FF9008950F931F93CF93DF93EC0153
:101CB00089018D81833039F089E0440F551F661FFB
:101CC000771F8A95D1F79A01AB0168E1CE010E9496
:101CD000080E882311F082E330C08EEF0E94CC0DF5
:101CE000F80180818EBD818132961E5F0DB407FEA2
:101CF000FDCF8EBDE017F10711F08191F7CF0DB444
:101D000007FEFDCF8FEF0E94CC0D8FEF0E94CC0D10
:101D10000E94D10D8C838F71853031F087E58883E7
:101D2000CE010E94F30D0AC060ED77E0CE010E9463
:101D3000D80D182F811107C08AE58883CE010E9433
:101D4000F30D10E012C020E030E0A9016DE0CE01FB
:101D50000E94080E811104C00E94D10D882311F049
:101D600089E2EBCFCE010E94F30D812FDF91CF915D
:101D70001F910F910895EF92FF920F931F93CF93AE
:101D8000DF93EC0179018D81833039F089E0440FD4
:101D9000551F661F771F8A95D1F79A01AB0161E144
:101DA000CE010E94080E882319F080E3888338C092
:101DB0000E9401198B010E94D10D8C838F3F49F441
:101DC0000E940119601B710B693E7340A0F385E509
:101DD00003C08E3F31F080E58883CE010E94F30D71
:101DE0001FC08FEF8EBDF701D701A150BE4F9FEFEF
:101DF0000DB407FEFDCF8EB59EBD8193AE17BF0714
:101E0000B9F70DB407FEFDCF8EB58C931C820E94EE
:101E1000D10D0E94D10DCE010E94F30D81E004C0CE
:101E2000CE010E94F30D80E0DF91CF911F910F91C1
:101E3000FF90EF900895EF92FF921F93CF93DF935F
:101E4000FC01208120FF32C0EC017C01F7E0EF0EA5
:101E5000F11C4B815C816D817E81E981FA81970162
:101E6000808191810E94530E182F811102C010E0D1
:101E70001EC0888181FD04C088818E7F888317C041
:101E8000E981FA814B815C816D817E8184859585B4
:101E9000A685B785480F591F6A1F7B1F9701808150
:101EA00091810E94530E8111E7CFE1CF11E0812F84
:101EB000DF91CF911F91FF90EF900895CF92DF9225
:101EC000EF92FF921F93CF93DF93EC016A017B01A6
:101ED000122F8B819C81AD81BE8184179507A60747
:101EE000B707F1F0CE010E941B0F811103C080E003
:101EF00090E01CC012FF06C01882CB82DC82ED820B
:101F0000FE820EC0E981FA819E01295F3F4FB70131
:101F1000A601808191810E94BB0E8111EDCFE7CF98
:101F200013708881182B1883CE010796DF91CF910B
:101F30001F91FF90EF90DF90CF9008958F929F9226
:101F4000AF92BF92CF92DF92EF92FF920F931F93C7
:101F5000423051056105710510F480E055C0FC0167
:101F6000C08CD18CE28CF38CC416D506E606F7063D
:101F7000A0F3480159016A017B018581803239F55E
:101F800084899589A689B78917E0769567955795CD
:101F900047951A95D1F7480F591F6A1F7B1F23E0F9
:101FA000CF0180960E945E0F0097B9F2E894C7F8BF
:101FB000DD24EE24FF24CC0CDD1CCC0CDD1CFC014C
:101FC000EC0DFD1D80829182A282B3821CC0803103
:101FD00021F644895589668977894D0D511D611D0A
:101FE000711D23E0CF0180960E945E0F009709F4D7
:101FF000B4CFDD24EE24FF24CC0CDD1CFC01EC0D61
:10200000FD1D9182808281E01F910F91FF90EF90E2
:10201000DF90CF90BF90AF909F908F900895CF9218
:10202000DF92EF92FF920F931F93CF93DF93423093
:1020300051056105710510F48FEF68C0FC01C08C7B
:10204000D18CE28CF38CC416D506E606F706A0F315
:1020500089016A017B01EC018581803241F5848927
:102060009589A689B789E7E076956795579547954D
:10207000EA95D1F7480F591F6A1F7B1F22E0CE0156
:1020800080960E945E0F0097B9F2E894C7F8DD24AD
:10209000EE24FF24CC0CDD1CCC0CDD1CFC01EC0D73
:1020A000FD1D80819181A281B381BF701EC08031EE
:1020B00019F644895589668977894D0D511D611D31
:1020C000711D22E0CF0180960E945E0F009709F4F7
:1020D000B3CFDD24EE24FF24CC0CDD1CFC01EC0D81
:1020E000FD1D80819181A0E0B0E0488D598D6A8D01
:1020F0007B8D481759076A077B0738F0F801808302
:102100009183A283B38381E001C080E0DF91CF910E
:102110001F910F91FF90EF90DF90CF900895FC01F9
:102120009C01255F3F4F80E0982F90FB979597F992
:102130008191890F2E173F07B9F70895CF93DF9349
:10214000FC012081211102C081E043C0EC018281A9
:1021500082FF37C04489558966897789868197814E
:1021600021E080960E945E0F009729F489818160AA
:10217000898380E02EC0EC81FD81EF70FF2725E090
:10218000EE0FFF1F2A95E1F7E80FF91F309771F363
:102190008081853E59F3888183FF08C0888D998DA1
:1021A000AA8DBB8D848F958FA68FB78F8C8D9D8DBB
:1021B000AE8DBF8D938F828FB58BA48B8A818B7FE1
:1021C0008A838E819F8180960E941B0F882371F2E3
:1021D000BBCFDF91CF9108954F925F926F927F9224
:1021E0008F929F92AF92BF92CF92DF92EF92FF9227
:1021F0000F931F93CF93DF93EC014A015B014C8453
:102200005D846E847F84A881AA2309F491C04889E3
:1022100059896A897B89481559056A057B0509F43E
:102220008DC081149104A104B10429F41C861D867B
:102230001E861F8678C0A3FF0BC0088D198D2A8DBE
:102240003B8D081519052A053B0508F471C014C01B
:10225000A5FF12C0EE81FF818681978125E0880F5E
:10226000991F2A95E1F7A0E0B0E088159905AA0525
:10227000BB0508F45DC057C0EE81FF81848190E00A
:1022800009968A019B010150110921093109082E83
:1022900004C036952795179507950A94D2F77501CE
:1022A0006401B1E0CB1AD108E108F10804C0F6944A
:1022B000E794D794C7948A95D2F7C016D106E20660
:1022C000F30620F0452B462B472B99F4A6FF05C0BB
:1022D000848D958DA68DB78D04C08C8D9D8DAE8D12
:1022E000BF8D8C879D87AE87BF878E01045F1F4F90
:1022F00015C0C01AD10AE20AF30AF7CF4C855D85F2
:102300006E857F8598018E819F810E940F1091E0DC
:10231000C91AD108E108F108181654F4C114D104FF
:10232000E104F10459F7888A998AAA8ABB8A06C00F
:102330004C865D866E867F8680E001C081E0DF91FD
:10234000CF911F910F91FF90EF90DF90CF90BF90B2
:10235000AF909F908F907F906F905F904F90089577
:10236000FF920F931F93CF93DF931F92CDB7DEB7EA
:102370008C01FC0180899189A289B3899C01AD01FE
:1023800075E056954795379527957A95D1F7F22FB1
:10239000FF70FF2E11F0611116C041E050E0BE0148
:1023A0006F5F7F4FC8010E941407813019F080E0F1
:1023B00090E01AC0F80180899189A289B3894F966B
:1023C000A11DB11D04C08096A11DB11DF801808B17
:1023D000918BA28BB38BF801868197818796F0E26F
:1023E000FF9E800D911D11240F90DF91CF911F91C1
:1023F0000F91FF900895CF92DF92EF92FF920F938B
:102400001F93CF93DF9320918004211157C0009731
:1024100009F454C0FC012081207709F44FC04089A1
:102420005189628973894F71552766277727452B14
:10243000462B472B09F042C08C01C0E0D0E0F801E8
:10244000C088D188E288F38860E0C8010E94B0119A
:102450000097A1F1FC012081222381F12E3211F499
:10246000C0E0EDCF253EE1F3338533FD07C0CC233B
:1024700071F00E948F108D1321C009C03F3081F789
:1024800026FFDDCFC22FCF71FC01D585D8CFB70194
:10249000A60185E076956795579547958A95D1F77A
:1024A0002C2FB80180E894E0DF91CF911F910F911C
:1024B000FF90EF90DF90CF900C94591880E0DF915F
:1024C000CF911F910F91FF90EF90DF90CF900895E3
:1024D000EF92FF920F931F93CF93DF93CDB7DEB7A9
:1024E000AC970FB6F894DEBF0FBECDBF8C017B0159
:1024F00019821A82AB0167EC76E0CE0101960E9448
:10250000A9018823F9F0F8018485882321F0C80106
:102510000C960E944908CE0101960E949203A701E1
:1025200067EC76E0CE010D960E94A901BE016F5FB7
:102530007F4FC8010E941E05F8019485907781E0C5
:1025400009F480E0AC960FB6F894DEBF0FBECDBFA5
:10255000DF91CF911F910F91FF90EF9008950F930E
:102560001F93CF93DF938C01009741F1AC01415051
:10257000510960E070E085E0440F551F661F771F2A
:102580008A95D1F784E594E00E94EC108823E9F164
:1025900060E084E594E00E94B011FC01892BA9F170
:1025A00083858F3079F480818F71813059F4D5859E
:1025B000C02F0531110540F0C4E106C084E594E068
:1025C0000E94510BC0E0D0E060E084E594E00E94FE
:1025D000B0110097D1F0FC012081253EB1F02223FB
:1025E000A1F02E3291F0CC2321F00E948F108D1398
:1025F0000CC02C2FA80164E574E080E894E0DF9122
:10260000CF911F910F910C94591880E0DF91CF91D9
:102610001F910F910895CF93DF93EC018091800477
:10262000882321F080E894E00E944908809180048A
:1026300081110EC084E594E0892B51F080915404FF
:10264000807731F0CE010E94AF12C82F811103C0F4
:10265000C0E08C2F0AC080918004807731F460E064
:1026600070E0CB010E94A403F4CFDF91CF910895D5
:10267000CF92DF92EF92FF920F931F93CF93DF934E
:10268000CDB7DEB7A6970FB6F894DEBF0FBECDBFAD
:10269000FC01DB018C918E3209F483C1909180049E
:1026A000907711F08CE066C08F01C0909804D090B4
:1026B0009904E0909A04F0909B04FB0101900020A3
:1026C000E9F7BF016550710945E050E0CE01019680
:1026D0000E949724CE0101960E94AB2460E771E02E
:1026E000CE0101960E940225892BA1F560E070E0E1
:1026F000CB010E94A4034BE150E0BE016F5F7F4F0E
:1027000080E894E00E941407FE013196CE014B96BA
:1027100031912081321304C0E817F907C9F741C18C
:10272000BBE1CB16B0ECDB06E104F10431F480919F
:102730000001823078F086E11CC0D701C6019F7B82
:102740004F97A240B10531F480910001833010F021
:1027500087E123C165E771E0CE0101960E94022561
:10276000892B51F4C114BBE1DB06E104F10421F42F
:1027700080E1F801808313C16AE771E0CE01019620
:102780000E940225892BD1F5C114D104F8E0EF068F
:10279000F104A1F560EE7FE380E090E00E94A403E5
:1027A00045E050E0BE016F5F7F4F80E894E00E94FB
:1027B00014078981863741F48A81843310F080E3DD
:1027C000ECC08B818E32D9F76CEE7FE380E090E035
:1027D0000E94A40343E050E0BE016F5F7F4F80E89A
:1027E00094E00E9414071C826FE771E0CE0101960D
:1027F0000E940225892B09F4D4C0E1CF63E871E07F
:10280000CE0101960E940225892B09F094C060E058
:1028100070E0CB010E94A40346E250E0BE016F5F6E
:102820007F4F80E894E00E9414078F81811139C0A6
:102830008885811136C08F8D873129F0865382308B
:1028400008F0AFC009C08BA1833010F083E101C054
:1028500082E1F801808308C08BA1843010F083E10D
:1028600001C082E1D8018C93F8018081823129F482
:102870008EA187FF02C081E18083D8018C918231D3
:1028800039F481E090910001923008F08BC089C04A
:10289000833109F084C080910001833008F481C045
:1028A0007EC082E1F801808380910001823008F4CB
:1028B00078C08D8585FF1EC0C701B60164507109BF
:1028C000810991090E94A40344E050E0BE016F5FBA
:1028D0007F4F80E894E00E941407898181112BC00A
:1028E0008A818D3E41F58B818D3E29F58C81811148
:1028F00022C055C0FEE1CF16F0ECDF06E104F10482
:10290000D1F460E070E0CB010E94A4034EE150E0FE
:10291000BE016F5F7F4F80E894E00E941407FE01C4
:102920003196CE014E9631912081321338C08E17E8
:102930009F07C9F736C068E871E0CE0101960E9492
:102940000225892B71F560E070E0CB010E94A403A1
:1029500042E050E0BE016F5F7F4F80E894E00E944C
:10296000140780E894E00E94CD16892BD1F41B82D5
:1029700089819A81892B69F080E894E00E94560B46
:102980009B8189278B8389819A8101979A83898387
:10299000EFCF8B81811105C080E2D8018C9381E05B
:1029A00001C080E0A6960FB6F894DEBF0FBECDBF83
:1029B000DF91CF911F910F91FF90EF90DF90CF901B
:1029C0000895AF92BF92DF92EF92FF920F931F9301
:1029D000CF93DF937C01662391F18091800488235B
:1029E00021F080E894E00E944908F701848580770F
:1029F0009701245F3F4F5901882319F0C9010E94B4
:102A0000510BE114F10419F0DA2DDB2C02C0D0E0F7
:102A1000D12CC0E08D2F9D2D0E94FB11882311F039
:102A2000CB3FC0F0F7018485807719F0C5010E9483
:102A3000510B8D2F9D2D0E94FB11811153C01092BF
:102A4000A902C2E26DE18091A9020E946409C1500D
:102A5000C9F79DC080918004982F9077F1F181FD96
:102A60003CC040E450E06AEA72E080E894E00E94F2
:102A700093058091AA0290E00E94E4248093AA0228
:102A80000BEA12E0F801808190E00E94DC24F8015A
:102A900081938F01F2E0083C1F07A1F76AEA72E018
:102AA00089EA92E00E9438138823B9F08091840467
:102AB000909185049093CA028093C9021092C80233
:102AC00009EA12E06DE1F80181918F010E94640929
:102AD000F2E00B3C1F07B1F7CF5F80E894E00E9463
:102AE000490898CFCB3F08F0AACF8091800483FF9C
:102AF00049C081FD47C040E450E06AEA72E080E8E6
:102B000094E00E9493056AEA72E089EA92E00E94EA
:102B100038138823B9F18091AA0290E00E94E4243E
:102B20008093AA020BEA12E0F801808190E00E94F3
:102B3000DC24F80181938F01F2E0083C1F07A1F724
:102B4000EAEAF2E001900020E9F7EB5AF240FF27B1
:102B5000EA55FD4F10821092C80280918404909132
:102B600085049093CA028093C90209EA12E06DE1DC
:102B7000F80181918F010E946409F2E00B3C1F076C
:102B8000B1F7CF5F80E894E00E94490852CFDF910F
:102B9000CF911F910F91FF90EF90DF90BF90AF907A
:102BA0000895CF92DF92EF92FF92CF93DF930E942E
:102BB0000119D0E0C1E06B017C0128EEC20E23E0D8
:102BC000D21EE11CF11CCC23D9F00E9401196C1516
:102BD0007D058E059F05A0F48BEA93E00E94AD0C65
:102BE000892B89F38BEA93E00E948B0CC82FED2F81
:102BF000F0E0E655FE4F8083DF5F0E940119DBCFD6
:102C000081E0C11180E0DF91CF91FF90EF90DF90E4
:102C1000CF90089590E0FC01EC55FF4F2491FC010A
:102C2000E057FF4F3491FC01E458FF4FE491EE234D
:102C300009F43CC0222339F1233091F038F42130DB
:102C4000A9F0223001F584B58F7D12C0273091F0B4
:102C50002830A1F02430B9F4809180008F7D03C02A
:102C6000809180008F77809380000DC084B58F772E
:102C700084BD09C08091B0008F7703C08091B000FF
:102C80008F7D8093B000F0E0EE0FFF1FEE58FF4FF6
:102C9000A591B4919FB7F894611104C08C913095BF
:102CA000382302C0EC913E2B3C939FBF0895CF93F5
:102CB000DF9390E0FC01E057FF4F2491FC01E458C2
:102CC000FF4F8491882361F190E0880F991FFC01E8
:102CD000E859FF4FC591D491FC01EE58FF4FA591E3
:102CE000B491611109C09FB7F8948881209582231F
:102CF0008883EC912E230BC0623061F49FB7F89467
:102D00008881322F309583238883EC912E2B2C934E
:102D10009FBF06C08FB7F894E8812E2B28838FBF02
:102D2000DF91CF9108958F929F92AF92BF92CF92F1
:102D3000DF92EF92FF926B017C010E94DC184B0145
:102D40005C01C114D104E104F104F1F00E94DC182B
:102D5000DC01CB0188199909AA09BB09883E934077
:102D6000A105B10570F321E0C21AD108E108F1080C
:102D700088EE880E83E0981EA11CB11CC114D104FA
:102D8000E104F10419F7DDCFFF90EF90DF90CF90D1
:102D9000BF90AF909F908F9008958F929F92AF9227
:102DA000BF92CF92DF92EF92FF92CF93DF93EC012D
:102DB00088889988AA88BB88CC84DD84EE84FF84C7
:102DC0000E94560B97FD08C0888A998AAA8ABB8AF6
:102DD000CC86DD86EE86FF86DF91CF91FF90EF9067
:102DE000DF90CF90BF90AF909F908F9008952F92DB
:102DF0003F924F925F926F927F928F929F92AF928B
:102E0000BF92CF92DF92EF92FF920F931F93CF93D7
:102E1000DF93EC015B014A01888183FF0EC08A8148
:102E200081FF0BC083FF0FC0488D598D6A8D7B8D4C
:102E3000CE010E94EC10811106C0898181608983D6
:102E40008FEF9FEF23C1A40160E070E0888999892A
:102E5000AA89BB8980959095A095B0958417950710
:102E6000A607B70750F364011E018CE0280E311C41
:102E7000088919892A893B89C114D10409F4D0C071
:102E80008E819F81B901A80129E0769567955795B4
:102E900047952A95D1F7DC011396FC90F422117026
:102EA000F11034C00115110589F54C855D856E85DD
:102EB0007F85411551056105710569F091010E94F9
:102EC0000F1087FDBACF8111C6C0CE010E945208F3
:102ED0008111C1C0B2CF8C8D9D8DAE8DBF8D0097FD
:102EE000A105B10579F4CE010E945208882309F4A6
:102EF000A4CF8C859D85AE85BF858C8F9D8FAE8F31
:102F0000BF8F04C08C879D87AE87BF87EE81FF810E
:102F10004C855D856E857F85425051096109710937
:102F2000048004C0440F551F661F771F0A94D2F710
:102F300080899189A289B389480F591F6A1F7B1F15
:102F40004F0D511D611D711D0115110521F4C11495
:102F5000B2E0DB06B0F580E092E0801B910B7601D9
:102F60008C159D0508F47C010115110579F448883C
:102F700059886A887B88888D998DAA8DBB8D481663
:102F800059066A067B0610F025E001C021E0CF015A
:102F900080960E945E0F009709F44FCFA701B501FC
:102FA000800F911F0E94F9240E0D1F1D0115124064
:102FB00031F58E819F8180960E941B0F81111FC069
:102FC0003CCF83A194A1A5A1B6A184179507A6071C
:102FD000B70741F410A28FEF9FEFDC0183A394A306
:102FE000A5A3B6A3EE81FF819501808191810E9406
:102FF000530E882309F421CFE12C82E0F82E888932
:103000009989AA89BB898E0D9F1DA11DB11D888B31
:10301000998BAA8BBB8BAE0CBF1CCE18DF0828CFB8
:10302000888D998DAA8DBB8D80179107A207B30754
:1030300038F4088F198F2A8F3B8F8A8184608A83A6
:103040008A8187FD02C0C40121C0CE010E949E106A
:103050008111F9CFF2CEEE81FF814C855D856E85C1
:103060007F854250510961097109048004C0440FF1
:10307000551F661F771F0A94D2F780899189A2890C
:10308000B389480F591F6A1F7B1F61CFDF91CF9112
:103090001F910F91FF90EF90DF90CF90BF90AF9076
:1030A0009F908F907F906F905F904F903F902F9068
:1030B0000895CF92DF92EF92FF920F931F93CF93D9
:1030C000DF93DC0180E2ED0119928A95E9F7EB01CB
:1030D000EE81FF811796FC93EE93169715965C93FD
:1030E0004E931497CC8CDD8CEE8CFF8C1896CD9281
:1030F000DD92ED92FC921B974F705527EF01A7963A
:1031000035E0440F551F3A95E1F7BE01640F751F76
:10311000EB018B8583FD45C0CF01840F951FEC012A
:103120009AA997719C93EB018B85887111F4986033
:103130009C9313962C93139781E012968C9312977D
:1031400003A114A125A136A154960D931D932D938F
:103150003C935797E40FF51F43AD54AD60E070E02A
:10316000BA0155274427EF01CF5BDF4F0881198152
:1031700020E030E0402B512B622B732B5C964D935B
:103180005D936D937C935F97ED5BFF4F4081518121
:103190006281738158964D935D936D937C935B9799
:1031A00002C01C9280E0DF91CF911F910F91FF90A0
:1031B000EF90DF90CF9008953FB7F8948091F50697
:1031C0009091F606A091F706B091F80626B5A89B57
:1031D00005C02F3F19F00196A11DB11D3FBFBA2FA9
:1031E000A92F982F8827820F911DA11DB11DBC0109
:1031F000CD0142E0660F771F881F991F4A95D1F7CE
:1032000008952FB7F8946091F1067091F2068091BD
:10321000F3069091F4062FBF08951F920F920FB6F8
:103220000F9211242F933F938F939F93AF93BF934C
:103230008091F1069091F206A091F306B091F40608
:103240003091F00623E0230F2D3720F40196A11DC5
:10325000B11D05C026E8230F0296A11DB11D2093C4
:10326000F0068093F1069093F206A093F306B093D4
:10327000F4068091F5069091F606A091F706B091BC
:10328000F8060196A11DB11D8093F5069093F606F0
:10329000A093F706B093F806BF91AF919F918F91DD
:1032A0003F912F910F900FBE0F901F901895CF93C5
:1032B000DF93CDB7DEB7CC5FD1090FB6F894DEBF90
:1032C0000FBECDBF789484B5826084BD84B5816023
:1032D00084BD85B5826085BD85B5816085BD8091E1
:1032E0006E00816080936E00109281008091810059
:1032F0008260809381008091810081608093810051
:10330000809180008160809380008091B100846012
:103310008093B1008091B00081608093B000809173
:103320007A00846080937A0080917A008260809332
:103330007A0080917A00816080937A0080917A008F
:10334000806880937A001092C1000E94910948E938
:10335000E42EF12CEC0EFD1E2FEFE21AF20A58E9D2
:10336000252E312C2C0E3D1E67E0260E311C68E9FF
:10337000862E912C8C0E9D1E79E0870E911C8BEA77
:1033800093E00E94AD0C892BB1F489B190E023E069
:10339000959587952A95E1F78F7088B92BB199B1EA
:1033A000892F90E09595879582709927922F9D7F20
:1033B000892B8BB9E4CF19990FC08091C100877F09
:1033C0008093C10088B1807F88B9599887B18F6098
:1033D00087B9519A0E9481098BEA93E00E948B0C75
:1033E000C856DF4F8883C859D040843108F040C0A8
:1033F000813108F072C28A3009F4E5C008F58330E3
:1034000009F46FC0A8F4882311F40C94932381303D
:1034100011F00C9495236DE170E080E090E00E9443
:10342000931602E2C02E01E0D02E0AE211E04EC057
:10343000883009F465C0893009F4B2C00C94952332
:103440008D3009F429C140F48B3009F4C6C08C30AA
:1034500009F4E3C00C9495238F3009F436C108F0C9
:103460006DC461E088E494E00E94E1140C9495231B
:10347000803211F40C94332290F4883140F4863178
:1034800008F04FC1843109F4FFC40C9495238831AE
:1034900009F4A7C48E3109F4D7C50C9495238D3E49
:1034A00011F40C948C2340F4833209F420C480334B
:1034B00009F423C10C9495238F3E11F40C948E23B0
:1034C000833F11F40C948C230C9495236DE1D60169
:1034D0008D916D010E9464090C151D05B9F70C94BE
:1034E000952361E08AEA91E00E94F008882311F4B4
:1034F0000C9495238091AA01809300010C9495234C
:103500000E94D115882311F40C94952310922A025D
:1035100019821A824AEA51E067EC76E0CE01019600
:103520000E94A9018823A9F180918004882321F0B9
:1035300080E894E00E944908CE0101960E9492031F
:103540004AEA51E067EC76E0CE010D960E94A901AF
:10355000BE016F5F7F4F84E794E00E941E0560E02C
:1035600070E0CB010E94A40380918004807789F4ED
:1035700040E450E06AEA72E080E894E00E9493053B
:1035800081E080932A026AEA72E08BE292E00E9474
:10359000381381E090912A02913089F080E00FC0C9
:1035A00062E08AEA91E00E94F008882311F40C940A
:1035B00095238091AA019091AB010E940B138093F7
:1035C000A9010C9495236EE671E088E494E00E94D2
:1035D00068120E94D7040C9495230E94D115882369
:1035E00011F40C949523CE0101960E9492036AEA8D
:1035F00071E0CE0101960E946812182FCE010D963F
:103600000E944908112311F40C9495236AEA71E091
:1036100088E494E00E9468123BC062E08AEA91E08C
:103620000E94F008882311F40C9495238091800463
:10363000882321F080E894E00E944908809180046A
:10364000882311F080E01EC084E594E0892BD1F33B
:10365000809154048077B1F38091AA019091AB01DD
:103660000E94AF12882371F340E450E06AEA71E0EF
:1036700080E894E00E9493056AEA71E088E494E0AF
:103680000E9468128093A901882311F40C94952359
:103690000E94E6040C94952340E051E06AEA71E050
:1036A00084E594E00E9493051AEAC12E11E0D12E20
:1036B0000AEA12E06DE1F60181916F010E9464094E
:1036C0000C151D05B9F70C9495230E94D11588237C
:1036D00011F40C949523CE0101960E9492036AEA9C
:1036E00071E0CE0101960E946812682FCE0101960A
:1036F0000E94E114CE010D96B3C661E0C7010E949D
:10370000F008882311F40C9495238091A901882353
:1037100011F40C94952380918E0181115BC60C9459
:10372000952361E0C7010E94F008882311F40C94EE
:103730009523C756DF4F2881C959D040293079F0E9
:1037400020F4213008F0A1C0C9C22A3009F0C6C255
:1037500040E052E06BE17EE380E090E0B8C1C85603
:10376000DF4F1881C859D0404BE150E060E070E075
:10377000CB010E9442051731A1F442E050E06BE119
:1037800070EC80E090E00E94420541E050E06DE185
:1037900070EC80E090E00E9442058091AA01877061
:1037A0000AC080E00E947E0980E00E947E0980E3DA
:1037B0000E947E0980E010928F0191E09093900129
:1037C000811102C092E001C093E090939101813099
:1037D00021F0811104C093E003C092E001C094E0A5
:1037E00090939201833021F0823020F494E003C062
:1037F00092E001C095E090939301843029F08430E9
:1038000028F4823029F402C092E003C096E001C09F
:1038100095E090939401863029F0853028F4823029
:1038200029F402C092E003C097E001C096E09093B3
:103830009501873031F0853031F0823021F087E01A
:1038400003C082E001C088E08093960184E00E947A
:103850007E09173121F0163121F483E003C088E09E
:1038600001C081E00E947E0901E110E080E00E9439
:103870007E0901501109D1F70FE010E08FEF0E948F
:103880007E0901501109D1F729C2E22FF0E0E25779
:10389000FE4F3081432F50E060E070E02A013B0191
:1038A000BEE0440C551C661C771CBA95D1F7C301C9
:1038B000B201655E7F4F8F4F9F4F333030F0C301B1
:1038C000B201615E7F4F8F4F9F4F213019F440E06E
:1038D0005EE3FDC040E050E4FAC061E0C7010E9431
:1038E000F008882309F421C7C756DF4FD880C9598B
:1038F000D040C856DF4F9881C859D04088E0E1E0F9
:10390000F1E0DE01AF50BF4F01900D928A95E1F7D3
:1039100089E1E9E0F1E0DE01A852BF4F01900D928C
:103920008A95E1F789E0D81661F08D1528F0A1E0BD
:10393000DA1608F0CFC0D2C1BAE0DB1609F4AFC086
:10394000CDC11092A4011092A30110929D0160E0DC
:1039500070E0CB010E94A40347E550E0BE016F5F19
:103960007F4F80E894E00E9414078E0108521F4F99
:10397000CE01885A9F4F9801275E3F4FFC01D80126
:103980004D918D0161E070E06C0F7D1F640F711D22
:10399000DB014C91DC014D93CD010217130779F740
:1039A0008C8D811184E0838B8C85982F9F772D855A
:1039B00020FF02C080E801C080E0892B848B8E8DBF
:1039C0008370818F822F8E7090E095958795828F7E
:1039D00080E3858F84E0868F9F818885911102C066
:1039E000882361F0938F848F83E0878F25FF02C047
:1039F00082E001C081E08093A20128C08F8D809376
:103A0000A20199A1938F9AA1948F863361F0873395
:103A100031F0873179F48BA1833050F407C0689678
:103A20008FAD6897868F8BA1843010F483E001C03E
:103A300088E0878F878D883011F49CA1958F9EA197
:103A400097FF04C0833011F481E0878F3091A20189
:103A5000BF01605E7F4FCE010196AF014E5C5F4FAC
:103A6000373120F0DC0196962C9101C020E0DB017B
:103A70002D93BD010196A417B50791F7DF01D196EB
:103A8000CF01CF962FEF2D93A817B907E1F78FEF4E
:103A900087AF60E470E0CF010E947E051FC1809176
:103AA0009D01882351F001E027E931E048E951E028
:103AB00060E072E089E991E070C0609199017091D5
:103AC0009A0180919B0190919C0140E052E00E94FC
:103AD000420504C1933149F4E1EFF0E0EC0FFD1F22
:103AE000ED0DF11D3197C0800EC0B2E0DB1631F054
:103AF000E3E0DE1631F0E8E0CE2E05C074E0C72E1C
:103B000002C065E0C62E8091A201833008F076C025
:103B1000823009F045C0F1E0DF120FC08EE190E085
:103B2000A0E0B0E080939E0190939F01A093A0013C
:103B3000B093A10160E07EE302C060E070E401E0C8
:103B400023EA31E044EA51E08EE991E00E946D0BF6
:103B5000D012C4C080919E0190919F01A091A001BC
:103B6000B091A1018093990190939A01A0939B0138
:103B7000B0939C018091A401809398018091A3014E
:103B800080939701D0929D0100E023EA31E044EA5E
:103B900051E060E072E08EE991E00E946D0B9EC002
:103BA00022E0D216E9F063E0D61609F171E0D712EF
:103BB00095C040E05EE36EE170E080E090E00E943E
:103BC00042058EE19EE3A0E0B0E0809399019093DE
:103BD0009A01A0939B01B0939C0110929D017EC01D
:103BE00040E050E46EE170E480E090E070CF40E0AF
:103BF00050E46EE170E880E090E069CF482E512CEF
:103C000090E2490E511C052C000C66087708D30180
:103C1000C2010396A11DB11D80939E0190939F0147
:103C2000A093A001B093A101809190049091910480
:103C3000A0919204B0919304481659066A067B0637
:103C400021F0C301B2010E94A40380E894E00E9425
:103C5000560B8C0180E894E00E94560BC650DF4F53
:103C60008883CA5FD040C750DF4F1882C95FD040F9
:103C7000C750DF4FA881B981C95FD0400A0F1B1F11
:103C80000F3FBFEF1B0729F4E0E45E0E611C711CBF
:103C900004C0400E511E611C711CF3E04F0E511CFC
:103CA000611C711C80E894E00E94560BC812AFCFD3
:103CB00021E0D212CFC5A8C560E07EE31092A40136
:103CC0001092A30101E023EA31E044EA51E08EE9D9
:103CD00091E00E946D0BD01609F4A0C5C756DF4FC6
:103CE0008881C959D0408A3009F01FC5B7C361E047
:103CF000C7010E94F008882309F417C5C756DF4F93
:103D0000B880C959D04040EB51E06AEA71E080E8E0
:103D100094E00E9414075AEAC52E51E0D52E0AE518
:103D200013E06DE1D6018D916D010E9464090C15BF
:103D30001D05B9F7B0E1BB12F8C490C361E0C7013B
:103D40000E94F008882309F4F0C4C756DF4FD880DA
:103D5000C959D040D1102DC0412C4BE1542E612CBB
:103D6000712C00E012E0A8016AEA71E080E894E0BA
:103D70000E9414073AEAC32E31E0D32EB8016655EB
:103D80007E4F5B016DE1D6018D916D010E9464094A
:103D9000AC14BD04B9F7401A510A6108710809F45E
:103DA0005DC34114E2E05E0661047104D0F6820155
:103DB000DACF40EB51E06AEA71E080E894E00E94DB
:103DC00014070AEA11E06DE1F80181918F010E9468
:103DD0006409F3E00A351F07B1F720E1D212A5C448
:103DE0003DC361E0C7010E94F008882309F49DC427
:103DF000C756DF4FD880C959D04061E0D6122CC0D9
:103E00008091980490919904A0919A04B0919B0498
:103E10008B31904CA105B10519F46BE170E018C02D
:103E20006DE170EC80E090E00E94A40380E894E0F3
:103E30000E94560B83FFF1CF87709927079731F0C7
:103E40006091980470919904705402C06BE170E81D
:103E500080E090E00E94A40340EB51E06AEA71E048
:103E600080E894E00E9414070AEA11E06DE1D801AD
:103E70008D918D010E946409B3E00A351B07B1F7EB
:103E8000E0E1DE1252C4EAC261E0C7010E94F0081C
:103E9000882309F44AC4C756DF4FD880C959D04097
:103EA000F1E0DF1294C01092A4011092A30160E02F
:103EB00070E0CB010E94A4034FE150E06AEA71E098
:103EC00080E894E00E9414078091B001811104C041
:103ED0008091B1018823B1F08091B60185FF02C0C5
:103EE00082E001C081E08093A2018EE190E0A0E039
:103EF000B0E080939E0190939F01A093A001B093A6
:103F0000A10165C084E08093A2014090C801512CBA
:103F100020E2420E511C052C000C66087708D301E4
:103F2000C2010396A11DB11D80939E0190939F0134
:103F3000A093A001B093A10180919004909191046D
:103F4000A0919204B0919304481659066A067B0624
:103F500021F0C301B2010E94A40380E894E00E9412
:103F6000560B8C0180E894E00E94560BC450DF4F42
:103F70008883CC5FD040C550DF4F1882CB5FD040E4
:103F8000C550DF4F68817981CB5FD040060F171F86
:103F90000F3F7FEF170729F480E4580E611C711C56
:103FA00004C0400E511E611C711C93E0490E511C4F
:103FB000611C711C80E894E00E94560B883009F067
:103FC000AECF0F3F1F4F89F583E08093A201809110
:103FD000A201823051F118F4813031F031C08330C8
:103FE00019F0843011F12CC060919E0170919F01F5
:103FF0008091A0019091A10140EB51E00E94420507
:1040000080919E0190919F01A091A001B091A1018A
:1040100080559E4FAF4FBF4F80939E0190939F015D
:10402000A093A001B093A1010BC001E023EA31E00D
:1040300044EA51E060EB71E08EE991E00E946D0B83
:10404000B0E1DB1272C30AC262E08AEA92E00E9427
:10405000F008882309F469C38091AA029091AB0209
:104060000E940B13882309F460C340E450E06BEA1C
:1040700072E080E894E00E9493056BEA72E08AEABD
:1040800092E00E943813882309F4E8C18091AA02C3
:10409000803209F455C120F48151833028F0DEC10B
:1040A000803309F458C0DAC166E070E080E090E047
:1040B0000E94A40380E894E00E94560B8093AC0217
:1040C00080E894E00E94560B8093AD029091AC0280
:1040D000911102C0882359F06DE18FEF0E946409AD
:1040E0006DE18FEF0E9464096DE18FEF31C06EE1E9
:1040F00070E080E090E00E94A40380E894E00E94D9
:10410000560B8093AC0262E270E080E090E00E9487
:10411000A40380E894E00E94560B8093AD0265E210
:1041200070E080E090E00E94A40380E894E00E94A8
:10413000560B8093AE026DE18091AC020E9464093F
:104140006DE18091AD020E9464096DE18091AE0243
:104150000E94640983C18FEF8093B60260EE7FE313
:1041600080E090E00E94A40348E050E06EEA72E034
:1041700080E894E00E9414078091AE02863741F4F3
:104180001091B0021E3241F01091B1021E32A9F01E
:104190008FEF8093AE0252C01092B0028FEA92E08D
:1041A0000E9479248093AC0281EB92E00E947924F2
:1041B0008093AD021093B00210C01092B1028FEA4A
:1041C00092E00E9479248093AC0282EB92E00E94FC
:1041D00079248093AD021093B1028091AC028530B6
:1041E00079F038F4843051F564E87CE180E090E0C7
:1041F0001DC08F3F18F560E07EE080E090E016C0C3
:104200008091AD0281110EC060E07AE080E090E024
:104210000E94A40380E894E00E94560B8093B602AB
:104220008F3F61F460E07CE080E090E00E94A403B6
:1042300080E894E00E94560B8093B60269E070E03B
:104240008EEA92E00E947E058091B60281508E3FF8
:1042500008F004C165E070E080E090E00E949316F1
:1042600011E000E223E0D22E8091B602811708F41B
:1042700062C08091AC02853030F06FE170E080E088
:1042800090E00E9471038091AC028430A9F441E275
:1042900050E067EB72E080E894E00E94140710920F
:1042A000D802D092D9021092DB0265E671E080E07C
:1042B00090E00E94710322C084E794E00E944F0CBA
:1042C00042E050E067EB72E080E894E00E9414075F
:1042D0000093B9024EE150E06AEB72E080E894E0AE
:1042E0000E94140784E794E00E944F0C43E050E0E2
:1042F00068ED72E080E894E00E94140764E270E0E8
:1043000087EB92E00E947E058091AC02853049F4F3
:104310008091AD02811107C064E470E080E090E01C
:1043200006C0843031F06FE370E080E090E00E94DE
:1043300071031F5F99CF88B18F6088B9599A8EC079
:1043400064E070E080E090E00E94A4034AE050E066
:104350006CEA72E080E894E00E9414071092B602C2
:104360001092B7021092B8021092B9024090B602B1
:104370005090B7026090B8027090B9028091980492
:1043800090919904A0919A04B0919B044816590603
:104390006A067B0638F484E794E00E94D606892BEF
:1043A00009F0C7C180E08093AB02ECEAF2E026EBB3
:1043B00032E090E280818052803608F0908331961E
:1043C0002E173F07B9F76BE070E08BEA92E00E948E
:1043D0007E05ABC1C756DF4FD880C959D040CC2429
:1043E000CA94CD0C4C2C512C612C712C65E070E0E2
:1043F00080E090E00E9493168FE0440C551C661CF0
:10440000771C8A95D1F790E4B92E00E010E040E0E7
:1044100052E0C301B2010E944205EAEAF1E0819153
:10442000080F111D23E0EA3AF207C9F7BA9462E0D7
:10443000560E611C711CB110EACF0D0D111D6DE1FE
:104440008D2D0E9464096DE1802F0E9464096DE149
:10445000812F0E9464097FE1C71267C180E894E060
:104460000E94490862C165E0C7010E94F0088823E4
:1044700009F45BC165E070E080E090E00E94931673
:104480008091900490919104A0919204B091930432
:104490000396A11DB11D8093A5019093A601A09341
:1044A000A701B093A801409198045091990460919C
:1044B0009A0470919B04481759076A077B0788F490
:1044C00060E070E0CB010E94A40363E070E080E054
:1044D00090E06093A5017093A6018093A70190934B
:1044E000A80142E050E0B10180E894E00E94140786
:1044F000C156DF4F88819981CF59D0400297C1566C
:10450000DF4F99838883CF59D04080E894E00E94A0
:10451000560BC256DF4F8883CE59D040C756DF4F67
:104520009881C959D040891721F18FEFCF55DF4FBE
:104530008883C15AD040CE55DF4F19821882C25AA3
:10454000D040CC55DF4F19821882C45AD04065E064
:1045500070E0C4010E947E05C156DF4F68817981F9
:10456000CF59D0406F5F7F4F80E090E00E94710391
:10457000DCC0CA55DF4F19821882C65AD040C656D1
:10458000DF4F28813981CA59D040C156DF4F888119
:104590009981CF59D0402817390761F4CF55DF4FA3
:1045A0001882C15AD040CE55DF4F39832883C25A72
:1045B000D04024C028173907A8F441E0CF55DF4F79
:1045C0004883C15AD040CE55DF4F39832883C25A21
:1045D000D040821B930BCA55DF4F99838883C65AFC
:1045E000D0400CC022E0CF55DF4F2883C15AD040C5
:1045F000CE55DF4F99838883C25AD040C456DF4FCF
:1046000028813981CC59D040CC55DF4F398328835C
:10461000C45AD040211570E4370778F5CE55DF4FE6
:1046200088819981C25AD040820F931F9054CE55F1
:10463000DF4F99838883C25AD04040E050E4CA01DA
:10464000821B930B9C018091A5019091A601A091E2
:10465000A701B091A801820F931FA11DB11D8093E6
:10466000A5019093A601A093A701B093A801CC55F2
:10467000DF4F59834883C45AD040CE55DF4F28813D
:104680003981C25AD040CC55DF4F88819981C45AB4
:10469000D04044275527421B530B4817590788F42D
:1046A000280F391FCA55DF4F39832883C65AD04097
:1046B000919581959109CE55DF4F99838883C25A90
:1046C000D04065E070E0C4010E947E058BE891E077
:1046D0000197F1F7CE55DF4F48815981C25AD0403A
:1046E0006091A5017091A6018091A7019091A80108
:1046F0000E944205CA55DF4F68817981C65AD04071
:104700006115710521F080E090E00E94710384E75B
:1047100094E00E944F0C09C061E002C060E08FEE9F
:104720000E942E0902C00E9491090E94540D0C940F
:10473000BF19C301B2010E94A40342E050E06EEB36
:1047400072E080E894E00E9414078091BE0290918C
:10475000BF02439761F580E894E00E94560B809376
:10476000BC02811124C080E894E00E94560B809323
:10477000BC02833031F46CE070E080E090E00E9495
:10478000710342E050E064EC72E080E894E00E9443
:1047900014078091C4029091C5028115904439F4A8
:1047A00066E070E080E090E00E9471032BC0809191
:1047B000BE029091BF0282309B41E1F08091B6022F
:1047C0009091B702A091B802B091B9020296A11DD2
:1047D000B11D2091BE023091BF02820F931FA11D17
:1047E000B11D8093B6029093B702A093B802B09324
:1047F000B902BCCD80E894E00E94560B8093BC02C5
:104800008F3FE1F681E0CFCD0F3F1F4F09F054CA33
:1048100040E05EE3C301B2010E94420580919E0127
:1048200090919F01A091A001B091A1018093990165
:1048300090939A01A0939B01B0939C018091A40155
:10484000809398018091A3018093970181E08093E8
:104850009D0144CA0F3F1F4F29F440E050E4C301BB
:10486000B20135C960E070E429CAEBEAF3E01382D3
:10487000128288EE93E0A0E0B0E084839583A68363
:10488000B78380E691E09183808385EC90E0958703
:10489000848784EC90E09787868780EC90E0918B0A
:1048A000808B81EC90E0938B828B82EC90E0958BF7
:1048B000848B86EC90E0978B868B118E128E138EF4
:1048C000148E1092A5041092C7061092C80684E6B2
:1048D0008093E7061092EC0680E58093ED06109237
:1048E000EE0684E794E00E94920388E494E00C943E
:1048F0009203FC0188279927E89421912032E9F35B
:10490000293010F02E30C8F32B3241F02D3239F41B
:10491000689404C00E94B524820F911D21912053F8
:104920002A30C0F31EF4909581959F4F0895DC01C5
:10493000FB014150504058F049F001900D92002089
:10494000C1F7E61BF70B3197CF0108951C92019038
:104950000020E9F7F6CFDC016C9161566A3108F06E
:10496000605E6F5B6D93C1F708957AE0979F902D1D
:10497000879F802D910D11240895AA1BBB1B51E127
:1049800007C0AA1FBB1FA617B70710F0A61BB70BBF
:10499000881F991F5A95A9F780959095BC01CD0164
:1049A0000895EE0FFF1F0590F491E02D099481E02A
:1049B00090E0F8940C940B259111089581548A513C
:1049C00008F4805E855A08959111089581568A51A0
:1049D00008F4805285580895FB01DC0104C08D91D4
:1049E0000190801921F441505040C8F7881B990B61
:1049F0000895FB01DC0102C001900D92415050402E
:104A0000D8F70895FB01DC018D9101908019011008
:0A4A1000D9F3990B0895F894FFCF35
:104A1A0003080503040607090A0A131411120F10E2
:104A2A00161504050D0E02031718191A1B0B01009F
:104A3A0008094D554C5476312E3000000000FF060F
:104A4A00FC06F606F906D6064F0C11070000000010
:104A5A0000005E0D520CF606F5065E0D5E0D5E0D4B
:104A6A00000000005E0D520CF606F506000000007C
:104A7A00E50C520C7C0C320DAD0C8B0C9F0C2F00EC
:104A8A002E534E41002E534352002E524F4D004D8D
:0E4A9A004C44002E5A3830002E54415000007B
:00000001FF
